:400000000080002011000000FD0A0000FD0A000008B5044B1A6803F53F5302331A6000F08DFD00BFFA46004010B5054C237833B9044B13B10448AFF300800123237010BDDF
:400040009081FF1F00000000D8480000084B10B51BB108490848AFF300800848036803B910BD074B002BFBD0BDE81040184700BF000000009481FF1FD8480000C880FF1F32
:400080000000000010B500F0E3FE234B1A8892B2013292B21A805A8892B2013292B25A809A8892B2013292B29A801B889BB2052B10D109E0204600F015FB00B2174B23F858
:4000C00014000134A4B200E00024012CF2D90122114B9A71104B1B889BB20A2B06D10E4B00221A800122DA7100F09EFF0A4B5B889BB2B3F5FA7F04D1074B00225A80012288
:400100001A72054B9B889BB2092B04D9024B00229A8001225A7210BDAC81FF1FFC83FF1FF8B507460E461546002403E0012001F0FFF9013400F0B2FD012801D8AC42F5D3EF
:4001400000F0ACFD012807D900F092FD387000F08FFD30700120F8BD0020F8BD70B582B005460E4600238DF8073002AC04F8023D462000F09FFD0A2221460DF10700FFF7B1
:40018000CFFF0446C8B19DF807009DF8063043EA002000B200F001033370801002F006FA074902F00BFB0646064B588902F0FAF90146304602F04EFA2860204602B070BDC0
:4001C00000C0CC44AC81FF1F30B583B0054600238DF8073002AC04F8023D502000F06AFD0A2221460DF10700FFF79AFF044668B19DF807009DF8063043EA002040F38D00F4
:4002000002F0D4F9034902F025FA2860204603B030BD00BF0000B43D2DE9F04F85B080460F4616461D4600238DF80F308DF80E308DF80D308DF80C30422000F03BFD0A221D
:400240000DF10E010DF10F00FFF76AFF044600286ED0412000F02EFD0A2203A90DF10D00FFF75EFF0446002862D09DF80F00FF2807D002F09BF94FF07C5102F0EBF983462C
:4002800001E0DFF8B4B09DF80E00FF2807D002F08DF94FF07C5102F0DDF9019001E0264B01939DF80D00FF2807D002F07FF94FF07C5102F0CFF9824601E0DFF87CA09DF8BD
:4002C0000C00FF2807D002F071F94FF07C5102F0C1F9814601E0DFF86090C8F800A0C7F800905146504602F07BFB48B95946584602F076FB30B95946504602F0A1F802E001
:400300000D4800E00C4830604946484602F068FB50B9019E3146304602F062FB30B93146484602F08DF802E0034800E002482860204605B0BDE8F08F0000C07F82B002ABAD
:4003400043F8040D1868086002B0704782B002AB23F8040D1B880B8002B0704710B4084C235C4B40E05C002305E0D45C6040044C205C0133DBB28B42F7D310BC704700BFA2
:40038000E0480000F8B50F4614460C4D28736A7305F10E0002F066FBA61C3A4621460A20FFF7DCFF35442873002001F00DF9E11CC9B2034800F0D4FCF8BD00BFAC81FF1F80
:4003C000B881FF1FF0B58BB062B60023ADF8243000F0F8FC00F03EFC00F0A8FCAC4800F00BFD01E000F044FC00F058FC0028F9D1532000F05FFC00238DF823300AA901F858
:40040000063D32220DF12300FFF78AFE20B909A9FFF79CFF042412E09DF823209DF8223043EA02231BB298B2002B02DA10F0010F04D109A9FFF78AFF042400E0002443207C
:4004400000F038FC32220DF122010DF12300FFF767FE58B944F0040409A94CF6CC40FFF775FF00228B4B83F80E210AE09DF823209DF8223043EA0223864A5381012382F8D1
:400480000E31022209A92046FFF77CFF00F0B8FD00F012F9804801F0C3F800F0C5FD01F0F3FB00F01BFD7B4BDB7913F0FF0FFAD0784B9B7913F0FF0FF5D0764B5B7A13F068
:4004C000FF0FF0D0734B0020D8719871587200F0AFFD68B9002316E0204600F0B5FD6F4B23F81400012001F023F80134A4B200E00024032CF0D908E04FF61841674A22F868
:40050000131001339BB2032BF6D9002501272C4644E0624B33F8150000B200F0A3FD06465C4B1B7A13F0FF0F23D0032D21D1594B00221A72D3F81001002102F01FFAA8B99F
:400540005749304601F07EFF524BD3F8101102F029FA48B95249304601F072FF4D4BD3F8101102F029FA08B147F00507494BC3F810614C49304602F029FA20B94A4930468E
:4005800002F006FA08B147F00307484921443046FFF7D4FE0434E4B20135EDB2032DB8D900251AE0424B33F8150000B201F0BCFB06463C4902F00AFA20B93B49304602F0E5
:4005C000E7F908B147F00907384921443046FFF7B5FE0434E4B20135EDB2012DE2D9354B0293039300228DF807200493059306930793284B93F80E3183B10DF1070102A88E
:40060000FFF7ACFD054603A8FFF7DEFD064607AB06AA05A904A8FFF7FFFD02E000200646054625B11EB110B19DF807300BB947F021071E4D29190298FFF780FE211DC9B2F8
:4006400029440398FFF77AFE04F10801C9B229440498FFF773FE04F10C01C9B229440598FFF76CFE04F11001C9B229440698FFF765FE04F11401C9B229440798FFF75EFE6C
:4006800004F11802D2B229463846FFF77BFE0AE7E0490000AC81FF1F850000000084FF1F9A99993E3333A340CDCCCCBDC082FF1FFC83FF1F0000C07F08B501F0D1FA01F0A4
:4006C000E3FA00F0D5FC08BD10B5044601F0E4FAE0B200F0E9FC012000F02AFF01F0D4FA10BD00BF10B530B901F032FB84B20120FFF7EAFF05E001F02BFB84B20020FFF783
:40070000E3FF204610BD00BFFEE700BFF0B40022174611E050F82760F3B226F0FF0608E001EB420511F812406D78A5550132013BDBB2002BF4D10137282FEBD9F0BC7047A7
:4007400008B50A46002102F098F908BDF8B5214B1B78DBB2204E3478E4B2204F3D78EDB203F007011E4A11701B090132137044F00303337045F003033B708023A2F26272CB
:40078000137088213032117042F220011F3211800821A1321170402212490A7002310A703021114A11701021683211702221043211701C32137020220C4B1A70922235330F
:4007C0001A700A2000F0CAFE3D7034704422084B1A70F8BDCF010049F8460040F94600406E58004001590040985A0040235B00407658004008B502F035F908BD38B50024DD
:40080000384B1C80502202331A700C2202331A80182335490B7002310A80344A13700E210232118002321370172102321180023213701925023215800232137004222C49C1
:400840002C48FFF7D7FF06222B4B1A705222A3F580731A70294B1B78DBB2294A13704FF4E162284B1A8041F25122023B1A800CE0254B1B7803F0010343EA440404F0030497
:400880004FF4F07001F088FB013D0DB1032CEFD115B90320FFF738FF1C4A4FF4807313800723137000231A490B704820023108701370053213700222164B1A7004220A3379
:4008C0001A70154A137843F03F031370013A137843F001031370013A137843F08003137038BD00BF80400040864000408A400040D40D004800410040004300400F010049C3
:40090000A14600402242004025420040044000400640004001400040A2430040012807D8044B53F820201844017A13780B431370704700BFF0490000012808D8044B53F82E
:4009400020201844017A137823EA010313707047F0490000012808D8044B03EB8002D2681844017D13780B4313707047F0490000012809D8054B03EB8002D2681844017D4B
:40098000137823EA01031370704700BFF049000038B572B6404A137843F00403137000240BE03E4863001A19510001440A46898B9069FFF7C5FE0134E4B2072CF1D90024BF
:4009C0000CE03648A20011194B000344B3F85020D96C986CFFF70EFF0134E4B2012CF0D92F494FF09040FFF791FE0A242D4B1C7004212D48FFF7A4FE04222C492C48FFF792
:400A0000F9FE2C4A137843F0020313701032137843F002031370284D2B7843F040032B70A2F58632513A137843F010031370224622492348FFF7DEFE224622492248FFF7E1
:400A4000D9FE224621492248FFF7D4FE224621492148FFF7CFFE082220492148FFF7CAFE224620492048FFF7C5FE204A137843F0080313701E4C61232370FFF7BFFE812363
:400A8000237001221B4B1A70FFF760FE0E2229461948FFF7AFFE38BDE8460040F0490000A40000488358004000760040D80D00480876004003500140A0430040900D0048B9
:400AC000005100409C0D0048C0510040A80D0048F0510040B40D004810510040C00D004822510040C80D004830510040224300400048004004000840B043004008B501F0FB
:400B000085FF03680C2B00D1FEE7FEE708B5094B1A681044084BC31A802B02DC054B186005E001F073FF0C2303604FF0FF32104608BD00BFCC80FF1F2884FF1F08B5104E19
:400B4000104D16E029686B68AC68002204E051F8040B43F8040B0432A242F8D1E868002203E0002143F8041B04328242F9D11035013E002EE6D101F04FFFFFF723FCFEE7E9
:400B8000010000009C4B000008B5114A114B1A60114A136843F40073136000230AE0032B03D80E4A52F8231000E00D490D4A42F8231001332F2BF2D90B4B1A780B4B1A7066
:400BC000084A0B4B1A60FFF7E3FE00F0CFFB08BD0004FA050CED00E014ED00E000000000FD0A00000080FF1FBC760040C080FF1F08ED00E07622074B1A700023064A13700C
:400C00000E21653A11708F211032117053321370704700BF876500408964004010B501F0C3F904460A4A137843F020031370FE3A137843F010031370023A137843F010030E
:400C4000137000F045FA204601F0B2F910BD00BF9765004008B5054B1B7823B9FFF7CAFF0122024B1A70FFF7D9FF08BDBF83FF1F084B1B78DBB213F0200F06D0064A10787D
:400C8000C0B213F01E0F02D17047002070470020704700BF696400404B640040044B1B7813F0200F01D0012070470020704700BF69640040034B1B7813F0040FFAD1024B30
:400CC0001870704767640040476400407622074B1A700023064A13700E219C3211708F211032117050321370704700BF8E6400408D64004010B501F057F904460A4A137857
:400D000043F020031370013A137843F010031370FC32137843F01003137000F0E7F9204601F046F910BD00BF9E64004008B5054B1B7823B9FFF7CAFF0122024B1A70FFF76A
:400D4000D9FF08BDC183FF1F034B1B7813F0040FFAD1024B18707047696500404A650040084B1B7833B97047305DFFF7EDFF0134E4B203E070B50D4606460024AC42F3D3E7
:400D800070BD00BFC183FF1F0E22044B1A708F2210331A7000224D331A7070472564004010B501F001F90446054A137843F01003137000F0A9F9204601F0FAF810BD00BFAE
:400DC0009264004008B5054B1B7823B9FFF7DCFF0122024B1A70FFF7E3FF08BDC383FF1F034B1B7813F0040FFAD1024B18707047626400404C64004038B5074B1B782BB97B
:400E000038BDFFF7EDFF0134A4B201E005460024285D0028F5D138BDC383FF1F084A137843F0010313701032137843F00103137002F64D32137843F001031370704700BFE4
:400E4000A3430040014B1870704700BF034F0040014B1878704700BF034F0040014B1880704700BF044F0040014B1880704700BF064F004008B5164A137803F0010313708E
:400E80000232137803F0FC031370124B1A7802F0CF021A701A7842F030021A701A7802F0F0021A701A7842F00F021A700A4A137843F00103137042F20F70FFF7CFFF42F29F
:400EC0000F70FFF7D1FF0820FFF7BCFF08BD00BF004F00400B4F0040014F004008B5054B1B7823B9FFF7C6FF0122024B1A70FFF795FF08BDC583FF1F10B541F6FF734FF400
:400F000080420121022000F0E7F9084C207041F6FF731A460121082000F0FCF96070044800F016FA002000F019FA10BDC883FF1F6D10000070B52C4C207800F04DFA607889
:400F400000F04AFA294B1B78FF2B03D100F0B2FA264B1870254D287806230246082100F0C3FA214E341DA4B2224645F6A031287800F0CEFA2978307800F06EFA6B78FF2BBA
:400F800002D100F097FA6870184D687807230246082100F0A9FA164A92B22146687800F0B7FA114C6978607800F056FA0121207800F0F6F90121607800F0F2F900F0F4FF5F
:400FC0000C4A137843F02003137000F0F1FF0A4B1A7842F001021A701A7842F002021A700122064B1A6070BDC883FF1FD080FF1F0884FF1F986400407464004080E200E02D
:4010000008B5074BDB6823B9FFF776FF0122044BDA6000F023F9FFF78DFF024B1B7808BDC883FF1F6564004008B500F025F908BD044B1B7803F0FF020BB90028F8D0104656
:40104000704700BF65640040C0F10300034B33F91030034A1088181A00B270470884FF1F1884FF1F08B500F00FF908BD704700BF10B5002407E02046FFF75EFC2046FFF7CD
:4010800077FC0134E4B2012CF5D9FF22014B1A7010BD00BFD280FF1F10B50446FFF74CFC2046FFF765FC10BD10B50446074B1878FF2801D0FFF7F0FF2046FFF72FFC204672
:4010C000FFF748FC014B1C7010BD00BFD280FF1F054A137843F0200313701032137843F020031370704700BFA2430040054A137843F0040313701032137843F004031370CD
:40110000704700BFA2430040054A137843F0020313701032137843F002031370704700BFA243004008B50A280FD00C2802D0082806D102E04FF4805209E04FF4807206E086
:40114000002000F0F3F9002201E04FF480620021094B198042F2107303FB02F303F6C413064A82FB0302DB17C3EBE223044A1360044B198008BD00BF1084FF1FAD8BDB68F2
:401180001484FF1F1884FF1F10B500F00DFF0446184A137843F0010313701032137843F00103137002F5AA520832137843F0030313701822104B1A70013B1A7842F04002B1
:4011C0001A701A7802F0FC021A70C822053B1A700222A3F597530C3B1A70084A137843F0080313700A2000F0B9F9204600F0E0FE10BD00BFAB43004006590040275B004075
:4012000010B504460A280DD00C2802D0082804D101E0C22207E0422205E0002000F086F9C22200E08222034B1A702046FFF77AFF10BD00BF0259004008B5064A137843F0FA
:40124000060313700C20FFF7DBFF0022024B1A8008BD00BF015900401A84FF1F08B5054B1B7823B9FFF7E8FF0122024B1A70FFF78BFF08BDD883FF1F024A137843F00103E4
:40128000137070470059004038B50F4B1B881BB233B10D4B1B881BB203EB83035C0001E00A4B1C680A4B1B88C01A00B201F07EF9084901F0CFF90546204601F077F901461F
:4012C000284601F07BFA38BD1084FF1F1484FF1F1A84FF1F00002041F0B583B016461F460B4C012525700023019300932B460A460146284600F0BCF83A463146207800F012
:4013000091F80221207800F07BF8207803B0F0BDD380FF1FF0B583B016461F460B4D00242C700194009423460A460146204600F09FF83A463146287800F074F80221287820
:4013400000F05EF8287803B0F0BD00BFD480FF1F014B1B681864704708ED00E04001C0B2014B1870704700BF00E400E00B4A7F2313708021517007E0DA0002F1804202F515
:40138000F042013BDBB21370002BF5D1DB0003F1804303F5F04300221A707047D880FF1F172815D831B103010A495A5C42F020025A5405E0030107495A5C02F0DF025A549B
:4013C0000001044A835C43F00103835400207047012070471070004017280CD80001074BC1180A7942F004020A71C25C42F00102C254002070470120704700BF1070004026
:4014000017280BD80001064A835C03F0F103490001F00E011943815400207047012070471070004041F6FF73994201D14FF4005141F6FF739A4201D14FF40052172808D895
:40144000C00000F1804000F5EC408180C280002070470120704700BF172805D8034B03EB0010417200207047012070471070004017281BD810B4C00000F1804404F5EC440B
:40148000D201D2B201F07F01114321709DF804201201D2B203F00F03134363709DF8083003F00F03A3700020E07001E00120704710BC704710B500F077FD0A4B5B78182BDC
:4014C0000BD9084A1478013B5370E30003F1804303F5F0431B78137000E0FF2400F068FD204610BDD880FF1F10F0800F0CD111F4704F0BD1C00000F1804000F5F04001802C
:401500008270C37000207047012070470120704710F0800F08D1C00000F1804000F5F0408180C280002070470120704701BE704710B5044605E0084B186800F02DFDA4F51F
:401540000044B4F5004FF6D8034B586800FB04F000F022FD10BD00BFE080FF1F08B5034B1B7A00FB03F000F017FD08BDE080FF1F70B504460E46074B1D681F2802D900209A
:40158000FFF7D4FF04F01F04103455F8240045F8246070BD08ED00E038B504460D46072902D90020FFF7C2FF1F2C02D90020FFF7BDFF04F01F0000F1604000F564406D01C4
:4015C000EDB2057038BD00BF044A137803F0FD03400000F0020018431070704720510040024B1B68C3F88400704700BF08ED00E04001C0B2014B1870704700BF11E400E0B6
:401600004FF40032014B1A60704700BF00E100E04FF40032014B1A60704700BF80E100E010B50446FFF7F4FF2046FFF7D9FF0720FFF7DEFFFFF7E4FF10BD00BF38B59DF839
:401640001040651EEDB2032D51D8013809282ED8DFE800F0052D2D052D2D0F192D230F2B03D92548007840B222E02448007840B21EE00F2B03D92248007840B218E0214834
:40168000007840B214E00F2B03D91F48007840B20EE01E48007840B20AE00F2B03D91C48007840B204E01B48007840B200E0002001EB401101FB02F2D20B91B20D2B0BD840
:4016C000C3F10E0192B20A4191B2621E124800EB82020133937005E0631E0F4A02EB83030F229A70013C0C4B23F8241038BD0020FFF71CFF38BD00BF180100491C010049E3
:40170000190100491D0100491A0100491E0100491B0100491F010049DC83FF1FF8B5074600F042FC06460D4D2B7843F003032B700B4C237843F0030323700A4B1F700320BE
:40174000FFF70CFF2B7803F0FC032B70237803F0FC032370304600F02BFCF8BDF8460040F946004092580040F8B504460022BC4B1A7401285BD13822BA4B1A700422023368
:401780001A70072201331A70002501331D7001331D703F2201331A7002331D7001331D7001331D7001260A331E70502203F527631A707C2701331F700C2201331A702022AA
:4017C00001331A70442003331870422201331A70122201331A7002331E70112201331A70192201331A70972201331A70FFF796FF58229D4B1A7001331D70052005331870B4
:401800000D2201331A7001331D700A2201331A704FF4FA22954B1A60314600F0CDFA3146384600F04DFB92491D20FFF7A1FE022C5AD138228B4B1A70042202331A7007222E
:4018400001331A70002501331D7001331D703F2201331A7002331D7001331D7001331D7001260A331E70502203F527631A70272201331A702C2201331A7001331D705522E5
:4018800003331A705A2201331A70052701331F7002331E70112201331A70192201331A70972201331A704420FFF738FF58226E4B1A7001331D7005331F7001331E7001334F
:4018C0001D700A2201331A704FF4FA42674B1A603146384600F070FA31467C2000F0F0FA64491D20FFF744FE032C5AD138225D4B1A70042202331A70072201331A70002591
:4019000001331D7001331D703F2201331A7002331D7001331D7001331D7001260A331E70502203F527631A70272201331A702C2201331A7001331D70552203331A705A22CB
:4019400001331A70052701331F7002331E70112201331A70192201331A70972201331A704420FFF7DBFE58223F4B1A7001331D7005331F7001331E7001331D700A2201336A
:401980001A704FF4FA42394B1A603146384600F013FA3146252000F093FA37491D20FFF7E7FD042C5AD138222E4B1A70042202331A70072201331A70002401331C700133C2
:4019C0001C703F2201331A7002331C7001331C7001331C7001250A331D70502203F527631A70272201331A702C2201331A7001331C70552203331A705A2201331A7005261E
:401A000001331E7002331D70112201331A70192201331A70972201331A704420FFF77EFE5822114B1A7001331C7005331E7001331D7001331C700A2201331A704FF4FA421B
:401A40000A4B1A602946304600F0B6F92946252000F036FA09491D20FFF78AFDF8BD00BFDC83FF1F004E0040945800401C84FF1F791D00007D1D0000811D0000851D00005A
:401A80002DE9F04182B0394E4FF0010886F80080374F00247C74102000F07CF9102000F0FDF907211D20FFF777FD0425314B1D7001331C7007331C702F4A137843F01803C2
:401AC00013702E4B1C7003F2F5231C7001331C700A20A3F20933187001331C7002331C705B2205331A705E2201331A7004331C701422A3F68C231A70CDF8008010234FF4FE
:401B0000004248F6E261FFF799FD0223009310234FF4004249F2DA012846FFF78FFD0323009310234FF4004249F2DA012846FFF785FD009510234FF4004249F2DA012846A2
:401B4000FFF77CFD3378013B07EB83039A780C4B1A703378013B37F823200A4B1A803078FFF702FE02B0BDE8F08100BFF080FF1FDC83FF1F96580040075B00409358004031
:401B80000E4E00400C4E004070B500F00DFA06462A4B1B782A4B1A7842F001021A701A7842F010021A7010331A7842F001021A701A7842F010021A70224D2B7843F002031B
:401BC0002B70214C237843F0020323701F4A137843F0030313700320FFF7C0FC2B7803F0FD032B70237803F0FD032370184A137843F0060313707A22164B1A70164A137882
:401C000043F0010313701032137843F0010313700F3A137843F0010313701032137843F0010313704FF000530C4A1360A2F5C0721360304600F0BCF970BD00BFF080FF1F22
:401C4000AA430040F8460040F9460040915800407758004082580040A143004080E200E008B5084B9B7C4BB9064BDB7C13F0FF0F01D1FFF705FF0122024B9A74FFF784FFDB
:401C800008BD00BFDC83FF1F024A137843F0010313707047004E0040024A137803F0FE0313707047004E0040094B1B7C13F0FF0F03D0074B5B7CDBB203E0064B1B7803F07B
:401CC0000103012B01D00028EED01846704700BFDC83FF1F014E00400E4B1B7803F00303012B03D80C4B188880B209E00A4A12780A49087842EA0020032B01D1084B1B783C
:401D0000084B1B7C13F0FF0F02D00022054B5A7400B27047144E0040104E0040114E0040124E0040DC83FF1F10B5074B5B69C01A00F03CFC0446054B186800F037FC0146D0
:401D4000204600F03BFD10BDDC83FF1F1C84FF1F10B5084A137843F004031370FFF794FF0020FFF7A1FFFFF7B7FF0446FFF794FF204610BD014E0040704700BF704700BF02
:401D8000704700BF704700BF014B188880B2704780400040034B1A7800F0F80010431870704700BF82400040024B187800F00700704700BF8240004070B505460E46FFF741
:401DC000F3FF0446FFF7E0FFA84256D02B4B1B7803F0010294B900B185B938B9284B1D80284A137803F0BF03137070BD254A137843F040031370224B1D8070BD22B3002302
:401E000021490B7001240F310C7004310B700C390B7803F07F030B701A4B1B7813F0080F00D08DB9194B18800721013B1970164B1B7813F0010FFAD110490B7803F0FE03C1
:401E40000B700021104B19700C4B1B7813F0010F0DD00E4B1D800EB1032200E001220A4B1A70094B1B7813F0010FFAD170BD044B1D8002490B7813430B7070BDA24300407D
:401E800080400040824000400140004002400040014B188880B2704700410040034B1A7800F0F80010431870704700BF02410040024B187800F00700704700BF024100405E
:401EC00070B505460E46FFF7F3FF0446FFF7E0FFA84256D02B4B1B7803F0010294B900B185B938B9284B1D80284A137803F0BF03137070BD254A137843F040031370224B09
:401F00001D8070BD22B3002321490B70012413310C7004390B7008390B7803F07F030B701A4B1B7813F0080F00D08DB9194B18800721013B1970164B1B7813F0010FFAD1C6
:401F400010490B7803F0FE030B700021104B19700C4B1B7813F0010F0DD00E4B1D800EB1032200E001220A4B1A70094B1B7813F0010FFAD170BD044B1D8002490B78134379
:401F80000B7070BDA1430040004100400241004001400040024000400230800803D000BF01380046FCD17047EFF3108072B6704780F31088704700BF81F0004102E000BFDA
:401FC00083F0004330B54FEA41044FEA430594EA050F08BF90EA020F1FBF54EA000C55EA020C7FEA645C7FEA655C00F0E2804FEA5454D4EB5555B8BF6D420CDD2C4480EA16
:40200000020281EA030382EA000083EA010180EA020281EA0303362D88BF30BD11F0004F4FEA01314FF4801C4CEA113102D0404261EB410113F0004F4FEA03334CEA1333A9
:4020400002D0524263EB430394EA050F00F0A780A4F10104D5F1200E0DDB02FA0EFC22FA05F2801841F1000103FA0EF2801843FA05F359410EE0A5F120050EF1200E012AFE
:4020800003FA0EFC28BF4CF0020C43FA05F3C01851EBE37101F0004507D54FF0000EDCF1000C7EEB00006EEB0101B1F5801F1BD3B1F5001F0CD349085FEA30004FEA3C0C2D
:4020C00004F101044FEA445212F5800F80F09A80BCF1004F08BF5FEA500C50F1000041EB045141EA050130BD5FEA4C0C404141EB010111F4801FA4F10104E9D191F0000FD7
:4021000004BF01460020B1FA81F308BF2033A3F10B03B3F120020CDA0C3208DD02F1140CC2F10C0201FA0CF021FA02F10CE002F11402D8BFC2F1200C01FA02F120FA0CFC77
:40214000DCBF41EA0C019040E41AA2BF01EB0451294330BD6FEA04041F3C1CDA0C340EDC04F11404C4F1200220FA04F001FA02F340EA030021FA04F345EA030130BDC4F1F1
:402180000C04C4F1200220FA02F001FA04F340EA0300294630BD21FA04F0294630BD94F0000F83F4801306BF81F480110134013D4EE77FEA645C18BF7FEA655C29D094EA95
:4021C000050F08BF90EA020F05D054EA000C04BF1946104630BD91EA030F1EBF0021002030BD5FEA545C05D14000494128BF41F0004130BD14F580043CBF01F5801130BD82
:4022000001F0004545F0FE4141F470014FF0000030BD7FEA645C1ABF194610467FEA655C1CBF0B46024650EA013406BF52EA033591EA030F41F4002130BD00BF90F0000F07
:4022400004BF0021704730B54FF4806404F132044FF000054FF0000150E700BF90F0000F04BF0021704730B54FF4806404F1320410F0004548BF40424FF000013EE700BFBF
:4022800042004FEAE2014FEA31014FEA02701FBF12F07F4393F07F4F81F06051704792F0000F14BF93F07F4F704730B54FF4607401F0004521F0004120E700BF50EA0102EB
:4022C00008BF704730B54FF000050AE050EA010208BF704730B511F0004502D5404261EB41014FF4806404F132045FEA915C3FF4DCAE4FF003025FEADC0C18BF03325FEA71
:40230000DC0C18BF033202EBDC02C2F1200300FA03FC20FA02F001FA03FE40EA0E0021FA02F11444C1E600BF4FF0FF3C06E000BF4FF0010C02E000BF4FF0010C4DF804CD95
:402340004FEA410C7FEA6C5C4FEA430C18BF7FEA6C5C1BD001B050EA410C0CBF52EA430C91EA030F02BF90EA020F0020704710F1000F91EA030F58BF994208BF90422CBFDA
:40238000D8176FEAE37040F0010070474FEA410C7FEA6C5C02D150EA013C07D14FEA430C7FEA6C5CD6D152EA033CD3D05DF8040B704700BF8446104662468C4619466346C7
:4023C00000E000BF01B5FFF7B7FF002848BF10F1000F01BD4DF808EDFFF7F4FF0CBF012000205DF808FB00BF4DF808EDFFF7EAFF34BF012000205DF808FB00BF4DF808EDFB
:40240000FFF7E0FF94BF012000205DF808FB00BF4DF808EDFFF7CEFF94BF012000205DF808FB00BF4DF808EDFFF7C4FF34BF012000205DF808FB00BF80F0004002E000BFE5
:4024400081F0004142001FBF5FEA410392EA030F7FEA226C7FEA236C6AD04FEA1262D2EB1363C1BFD218414048404140B8BF5B42192B88BF704710F0004F40F4000020F089
:402480007F4018BF404211F0004F41F4000121F07F4118BF494292EA030F3FD0A2F1010241FA03FC10EB0C00C3F1200301FA03F100F0004302D5494260EB4000B0F5000F3D
:4024C00013D3B0F1807F06D340084FEA310102F10102FE2A51D2B1F1004F40EBC25008BF20F0010040EA03007047490040EB000010F4000FA2F10102EDD1B0FA80FCACF101
:40250000080CB2EB0C0200FA0CF0AABF00EBC25052421843BCBFD0401843704792F0000F81F4000106BF80F400000132013BB5E74FEA41037FEA226C18BF7FEA236C21D075
:4025400092EA030F04D092F0000F08BF0846704790EA010F1CBF0020704712F07F4F04D1400028BF40F00040704712F100723CBF00F50000704700F0004343F0FE4040F479
:40258000000070477FEA226216BF08467FEA23630146420206BF5FEA412390EA010F40F4800070474FF0000304E000BF10F0004348BF40425FEA000C08BF704743F09643E3
:4025C00001464FF000001CE050EA010208BF70474FF000030AE000BF50EA010208BF704711F0004302D5404261EB41015FEA010C02BF84460146002043F0B64308BFA3F1FE
:402600008053A3F50003BCFA8CF2083AA3EBC25310DB01FA02FC634400FA02FCC2F12002BCF1004F20FA02F243EB020008BF20F00100704702F1200201FA02FCC2F120020F
:4026400050EA4C0021FA02F243EB020008BF20EADC7070474FF0FF0C1CEAD0521EBF1CEAD15392EA0C0F93EA0C0F6FD01A4480EA010C400218BF5FEA41211ED04FF00063B1
:4026800043EA501043EA5111A0FB01310CF00040B1F5000F3EBF490041EAD3715B0040EA010062F17F02FD2A1DD8B3F1004F40EBC25008BF20F00100704790F0000F0CF0CB
:4026C000004C08BF49024CEA502040EA51207F3AC2BFD2F1FF0340EAC250704740F400004FF00003013A5DDC12F1190FDCBF00F000407047C2F10002410021FA02F1C2F1FB
:40270000200200FA02FC5FEA310040F1000053EA4C0308BF20EADC70704792F0000F00F0004C02BF400010F4000F013AF9D040EA0C0093F0000F01F0004C02BF490011F47B
:40274000000F013BF9D041EA0C018FE70CEAD15392EA0C0F18BF93EA0C0F0AD030F0004C18BF31F0004CD8D180EA010000F00040704790F0000F17BF90F0004F084691F0EF
:40278000000F91F0004F14D092EA0C0F01D142020FD193EA0C0F03D14B0218BF084608D180EA010000F0004040F0FE4040F40000704740F0FE4040F4400070474FF0FF0C3B
:4027C0001CEAD0521EBF1CEAD15392EA0C0F93EA0C0F69D0A2EB030280EA010C49024FEA402037D04FF0805343EA111143EA10130CF000408B4238BF5B0042F17D024FF44D
:40280000000C8B4224BF5B1A40EA0C00B3EB510F24BFA3EB510340EA5C00B3EB910F24BFA3EB910340EA9C00B3EBD10F24BFA3EBD10340EADC001B0118BF5FEA1C1CE0D1F1
:40284000FD2A3FF650AF8B4240EBC25008BF20F0010070470CF0004C4CEA50207F32C2BFD2F1FF0340EAC250704740F400004FF00003013A37E792F0000F00F0004C02BF2F
:40288000400010F4000F013AF9D040EA0C0093F0000F01F0004C02BF490011F4000F013BF9D041EA0C0195E70CEAD15392EA0C0F08D142027FF47DAF93EA0C0F7FF470AF4E
:4028C000084676E793EA0C0F04D14B023FF44CAF08466EE730F0004C18BF31F0004CCAD130F000427FF45CAF31F000437FF43CAF5FE700BF4FF0FF3C06E000BF4FF0010C45
:4029000002E000BF4FF0010C4DF804CD4FEA40024FEA41037FEA226C18BF7FEA236C11D001B052EA530C18BF90EA010F58BFB2EB030088BFC81738BF6FEAE17018BF40F0C3
:40294000010070477FEA226C02D15FEA402C05D17FEA236CE4D15FEA412CE1D05DF8040B704700BF844608466146FFE70FB5FFF7C9FF002848BF10F1000F0FBD4DF808EDF0
:40298000FFF7F4FF0CBF012000205DF808FB00BF4DF808EDFFF7EAFF34BF012000205DF808FB00BF4DF808EDFFF7E0FF94BF012000205DF808FB00BF4DF808EDFFF7D2FFEC
:4029C00094BF012000205DF808FB00BF4DF808EDFFF7C8FF34BF012000205DF808FB00BF4FEA40024FEA41037FEA226C02D15FEA402C08D17FEA236C02D15FEA412C02D146
:402A00004FF0000070474FF001007047014B1868704700BF5481FF1F0E4B70B51E460E4C0025E41AA410A54204D056F8253098470135F8E702F0A0F8084B094C1E46E41A7B
:402A4000A4100025A54204D056F8253098470135F8E770BD844B0000844B0000844B00008C4B000010B5431E0A44914204D011F8014B03F8014FF8E710BD034602449342EF
:402A800002D003F8011BFAE770472DE9F04788B0149F002B1E461299B8BF03F1004327F02007B6BF1E4600232D23462F1446109DDDF84CA00B7003D0452F03D1013501E001
:402AC000032300E0022307AA049206AA03928DE828042246334600F0B7FB472F804602D1119BDB0728D5462F08EB050911D198F80030302B0AD10022002320463146FFF7FB
:402B000069FC18B9C5F10105CAF80050DAF8003099440022002320463146FFF75BFC08B9302202E0CDF81C9006E0079B994503D9591C07911A70F8E74046079B159AC8EB9B
:402B40000303136008B0BDE8F087034673B50029B8BF494203F8022BB4BF2D222B22092942701ADD0DF1070216460A2591FBF5F405FB1411092C01F1300102F8011D214657
:402B8000F4DC3031541E02F8011CB4421A460AD214F8012B03F8012BF7E71A463024214402F8024B5970101A02B070BD2DE9F04F91B00C46DDF8688016461F46054601F018
:402BC000DBF803681846099300F0AAFA00230E93D8F800300A90073323F0070303F1080294F81890D4F800B0C8F80020D3E90023C4E91223D4F84CA0D4F848802AF000435C
:402C00000B934FF0FF32A74B40460B9901F026FEA0B94FF0FF32A34B40460B99FFF7EEFB60B90022002340465146FFF7DDFB10B12D2384F843309C4B9C4A0AE04246534674
:402C40004046514601F00AFE002800F09281984B984AB9F1470F8CBF90469846032323612BF0040323604FF0000A3DE0B9F1670F00F08A81B9F1470F00F086812360019371
:402C8000636800210DF13302059002920093424653460691CDF81090CDF80CE02846FFF7F4FE09F0DF03472B804600F08481B9F1650F0D9900F28D8101394A4604F150003A
:402CC0000D91FFF742FF0E9A82468318012A236100F37C812268D10700F178819DF8333013B12D2384F84330009733460FAA2146284600F09FF9013002D14FF0FF3096E1FF
:402D000023685A0501D4236965E0B9F1650F40F2D580D4E9120100220023FFF75BFB78B30123654A31462846B8470130E5D00E9B0D9A9A420BDB2368D80708D423689B07B0
:402D400040F111814FF0000804F1190906E10A9B099A31462846B8470130CED04FF0000804F11A090E9B013B9845E7DA01234A4631462846B8470130BFD008F10108F1E73C
:402D80000D9B002B29DC01234B4A31462846B8470130B2D00D9B23B90E9B13B92368D907CCD50A9B099A31462846B8470130A4D04FF0000904F11A0A0D9B5B42994509DAAE
:402DC0000123524631462846B847013095D009F10109F1E70E9B4246A7E00E9AA36D9A42A8BF1A46002A914606DC4FF0000A29EAE97904F11A0B11E013463146424628463C
:402E0000B8470130F1D178E701235A4631462846B84701303FF471AF0AF1010AA36DC9EB03029245F0DB08EB03090D9A0E9B9A420FDB2368DA070CD40E9B0D9A9844C9EB63
:402E400008089B1A9845A8BF9846B8F1000F08DC0FE00A9B099A31462846B8470130EBD14BE743464A4631462846B84701303FF444AF4FF0000928EAE87804F11A0A09E085
:402E80000123524631462846B84701303FF435AF09F101090D9A0E9B9B1AC8EB03039945EEDB4BE7FFFFEF7F4E4A0000524A0000564A00005A4A00005E4A00000E9A012A30
:402EC00001DCDB0738D50123424631462846B84701303FF412AF0A9B099A31462846B84701303FF40AAFD4E9120100220023FFF771FA20B14FF0000804F11A090EE00E9BCB
:402F000008F10102013B19E001234A4631462846B84701303FF4F1AE08F101080E9B013B9845F1DB534604F1500231462846B84701307FF403AFE0E64246012331462846C4
:402F4000B8470130EED1D8E601234A4631462846B84701303FF4D1AE08F10108E3680F9A9B1A9845F0DBE0680F9B9842B8BF18465DE062680EA8531C0DF1340E4BF48063A7
:402F80007FF474AE062201E012B90122626075E6002106910DF133018DE80C00236005904246CDF81090CDF80CE0029153462846FFF76BFD80460D9BD81C02DB6268934271
:402FC0001DDDA9F102095FFA89F970E60133236184E6B9F1660F14D10029636807DD216113B92268D2071DD501330B4419E013B92268D00701D5023313E0012311E04FF065
:4030000067090D9B0E9A934205DB22682361D10708D5013305E0002BD4BFC3F102030123134423610D9B4FF0000AA36556E611B0BDE8F08F2DE9F04791461F460A698B68C0
:4030400006469342B8BF1346C9F8003091F843200C46DDF8208012B10133C9F800302368990642BFD9F800300233C9F80030256815F0060510D104F1190A07E00123524648
:4030800039463046C04701301AD00135E368D9F800209B1A9D42F1DB94F843302268003318BF012392060FD5E118302081F843005A1C94F845102244023382F8431003E04D
:4030C0004FF0FF30BDE8F08704F1430239463046C0470130F4D02268D9F80050E36802F00602042A08BF5D1B2269A3680CBF25EAE57500259342C4BF9B1AED184FF0000975
:403100001A344D4509D00123224639463046C0470130D5D009F10109F3E70020BDE8F087034613F8012B002AFBD1181A013870472DE9F74F03690C6980469C427FDC013C4D
:4031400001F114074FEA840E00F1140606EB0E0357F82450019356F824300135B3FBF5F507EB0E09C5B34FF0000A3846B446D34650F8043B9AB205FB02A21B0C4FEA124A15
:4031800005FB03A392B2C2EB0B0BBCF800204FEA134A5A441FFA83FBDCF800308145CBEB134303EB224392B242EA03424FEA234B4CF8042BDCD256F80E306BB9019B043B92
:4031C0009E421A4602D3C8F8104005E01268043B002AF8D1013CF3E7404600F0E6FF00282BDB304601354FF0000E57F8042B036891B2C1EB0E0E120C99B27144C2EB13436B
:4032000003EB214389B24FEA234EB94541EA034340F8043BE9D256F8242006EB840362B9043B9E421A4602D3C8F8104005E01268043B002AF8D1013CF3E7284600E0002017
:4032400003B0BDE8F08F00002DE9F04F456A95B08246219CCDE9022345B9102000F090FDCAF82400456085600560C560DAF82430196859B15A68012393404A608B60504694
:4032800000F0BBFDDAF8243000221A60039BA04A002BBDBF01232360039B0023BCBF23F000430393DDF80C80A8BF236028F000431B0D1B0593421DD142F20F73209A136012
:4032C000029B43B9934A944BC8F31300002814BF1846104600E09048229B002B00F04685C37813B100F1080300E0C31C229A136000F03CBDDDE902450022002320462946A8
:40330000FFF768F8074658B1209A01231360229B002B00F01E8581481860013800F026BD12AB019313AB009322462B46504600F0B7FFC8F30A56049056B1C5F3130343F05A
:403340007F51204641F44011A6F2FF3611971DE0139B129E1E4406F23243202B0ADD029A06F21240C3F1400322FA00F008FA03F3184304E0C3F12000029B03FA00F0FEF74D
:403380005DFF0123A1F1F871013E11930022644BFEF716FE58A3D3E9002301F04DF858A3D3E90023FEF70EFE044630460D46FEF755FF55A3D3E9002301F03EF802460B46F7
:4033C00020462946FEF7FEFD04460D4601F05CFA00228346002320462946FFF705F858B15846FEF73BFF02460B4620462946FEF7F1FF08B90BF1FF3BBBF1160F0DD8DDE9B2
:403400000223484901EBCB01D1E90001FFF70AF830B10BF1FF3B002300E00123109300E01090129B9E1B731E079343BFC3F10008002307934FF00008BBF1000F06DB079B79
:40344000CDF82CB05B440793002705E00023CBEB0808CBF100070B931E9B092B28D8052BC4BF043B1E931E9BC8BF0025A3F10203D8BF0125032B20D8DFE803F0060E0204D7
:40348000012302E0012308E000230A931F9B002B1DDD9946059321E000230A931F9B0BEB030909F10103012B0593B8BF012315E0012500231E930A9501E001230A934FF09B
:4034C000FF390022CDF8149012231F9206E04FF001094B46CDF81490CDF87C90DAF8244000226260042101F114029A421CD86268490001326260F6E761436F63A787D23F78
:40350000B3C8608B288AC63FFB799F501344D33F0000F07F604A0000694A00005F4A00000000F83F784A00006168504600F030FCDAF8243020601B680693059B0E2B00F22C
:403540005B81002D00F05881DDE90234BBF1000FCDE90E3430DD9F4A0BF00F034FEA2B1502EBC303E80618CBCDE908340CD5DDE90E01994B05F00F05D3E9082301F086F8DF
:403580000324CDE9020100E00224934E6DB1E90708D5DDE90801D6E9002300F04DFFCDE9080101346D100836F0E7DDE90823DDE9020101F06BF820E0CBF1000505B3DDE999
:4035C0000E01844B05F00F0203EBC203D3E9002300F032FFCDE902017F4E2D110023022455B1EA0705D5D6E9002300F025FF013401236D100836F3E71BB1CDE9020100E00D
:403600000224109BE3B1DDE902560022734B28463146FEF7E9FE98B1059B8BB1B9F1000F40F3E6800BF1FF330893314600226C4B284600F001FF0134CDE902014E4602E014
:40364000059ECDF820B02046FEF708FEDDE9022300F0F2FE634B0022FEF7B4FCA1F1507304460C931D46D6B9DDE9020100225E4BFEF7A6FC22460C9BCDE90201FEF7D2FE89
:40368000002840F03F820C99224601F10043DDE90201FEF7A9FE002840F02B82A8E00A9A4C4B711E002A49D003EBC103D3E9002300204E4900F0EAFF22462B46FEF780FC45
:4036C000CDE90C01069CDDE9020101F0DDF80546FEF7C4FD02460B46DDE90201FEF770FCDDE90C23303504F8015BCDE90201FEF77BFE002840F01D83DDE9022300203749B6
:40370000FEF75EFCDDE90C23FEF76EFE002840F0D180069BE31AB3426ADADDE90C0100222F4B00F089FE0022CDE90C01DDE902012B4B00F081FECDE90201C4E703EBC101D7
:403740002246D1E900012B4600F076FE069BCDE90C011D469C19DDE9020101F095F80646FEF77CFD02460B46DDE90201FEF728FC303605F8016BAC42CDE902014FF00002A2
:4037800022D11A4BDDE90C01FEF71CFC02460B46DDE90201FEF746FE002840F08B80DDE90C2300201149FEF70BFC02460B46DDE90201FEF719FED8B114F8013C621E302B4D
:4037C00040F0B7821446F7E7054B00F035FECDE90201C0E7784A0000504B00000000F03F0000244000001C40000014400000E03FDDE90E34CDE90234139B002B7CDBBBF1C6
:403800000E0F79DCAB4B03EBCB03D3E900671F9B002B14DA059B002B11DC40F06C810022A54B3046394600F007FEDDE90223FEF7EFFD059D2E46002840F05F8165E1069C9B
:40384000DDE9028932463B464046494600F01EFF01F01AF80546FEF701FD32463B4600F0EBFD0B46024649464046FEF7A9FB05F1300E069B04F801EBC3EB040E059B7345AE
:403880002DD102460B46FEF79DFB8046894602460B4630463946FEF7A7FD78B942464B4630463946FEF796FD002800F04482EB0704D440E2DDF820B000E01C4614F8012C77
:4038C000631E392A07D1069A9A42F6D1069930220BF1010B0A701A7801321A702BE20022764B00F0A9FD0022002380468946FEF771FD0028A6D01EE20A9A002A2BD01E9A25
:40390000012A0ADC119A12B103F2334302E0129BC3F136033D46444613E0059B5D1EAF42BFBF0B9BEA1B9B180B93059BB6BF2F467D1B0025002BA7BF4446059BC3EB0804DF
:403940000023079A01211A4450469844079200F0F3FA064602E03D4644460A9E5CB1079B002B08DDA342A8BF2346079AC3EB0808E41AD31A0793002F1DDD0A9BABB18DB178
:4039800031462A46504600F071FB049A01460646504600F0DAFA04990890504600F02DFA089B04937A1B06D000E03A460499504600F05CFB04900121504600F0BDFA0B9BA9
:4039C00005465BB31A460146504600F04FFB1E9B0546012B18DC029B83B9039BC3F3130373B9039B23F000473F0D3F054FB1079B08F1010801330793012702E0002700E059
:403A0000029F0B9B73B100E000272B6905EB8303186900F044FAC0F1200004E01E9B012BD9DD0B9F0120079B184410F01F0008D0C0F12003042B02DDC0F11C0002E006D0E4
:403A400018461C30079B8044034404440793B8F1000F05DD42460499504600F055FB0490079B002B05DD29461A46504600F04CFB0546109B23B32946049800F096FB002819
:403A80001EDA00230A220499504600F0CDF90A9B0BF1FF3B0490002B00F05F81314600230A22504600F0C0F9B9F1000F06463FDC3BE000BF784A00000000144000002440F3
:403AC000059B002B2BDC1E9B022B28DDDDF81490B9F1000F11D129464B460522504600F0A3F901460546049800F05FFB00280CDC03E0354600E000252E461F9B069C6FEA98
:403B0000030B09E03546DDF820B0069B069A5C1C312313700BF1010B05960026F7E00A9BDDF8149023B9069CB2E01E9B022BCFDC002C05DD31462246504600F0E5FA0646E1
:403B40009FB17168504600F023F90446326906F10C01023292000C30FEF784FF01222146504600F0D1FA059000E00596029B069F03F00103079329460498FFF7D9FA31460E
:403B8000044600F13008049800F00FFB059A02902946504600F025FBC36802463BB901460A90049800F001FB0A9A034600E00123114650460A9300F020F90A9B53B91E9AF9
:403BC00042B9079A32B9B8F1390F2AD0029B002B1CDC1DE0029A002A04DB1BD11E9ACAB9079ABAB9002B13DD01220499504600F08BFA2946049000F0D8FA002803DC07D12C
:403C000018F0010F04D0B8F1390F0AD004F131087C1C0CE0002B07F101040BDDB8F1390F03D139233B70013756E008F1010887F800806CE0069B2746E31A4B4504F8018C60
:403C40003BD000230A220499504600F0EDF8059B04909E424FF00A024FF000033146504604D100F0E1F80646059084E700F0DCF8002306460A220599504600F0D5F8059065
:403C800079E700230A220499504600F0CDF8049029460498FFF74CFA069B00F1300804F8018BE31A4B45ECDB069B0596B9F1010FACBF4B4401331F460026012204995046E7
:403CC00000F022FA2946049000F06FFA002803DC15D118F0010F12D03C4614F8013C621E392B09D1069B934204D10BF1010B3123069A02E01446F0E70133137007E03C4672
:403D000014F8013C621E302B01D11446F8E72946504600F072F8059B6BB12EB19E4203D03146504600F069F80599504600F065F801E0DDF820B00499504600F05EF80023A6
:403D4000209A23700BF101031360229B1BB11C6001E008480AE0069808E0B9F1000F3FF7E2AE1E9B022B7FF7DEAEB1E615B0BDE8F08F00BF5E4A0000004870475881FF1F99
:403D8000024B0146186800F0E7BA00BF5481FF1F70B5456A04460E463DB91020FFF7F0FF6062456085600560C560656AEB6843B1636ADB6853F8260078B1026843F82620AE
:403DC00017E021220421204600F0B8FA636AE860DB68002BECD1002070BD012101FA06F56A1D9200204600F0A9FA0028F3D04660856000230361C36070BD70B5446A064639
:403E00000D463CB91020FFF7BBFF7062446084600460C4603DB1736A6A68DB6853F82210296043F8225070BD2DE9F04106460C460D691F4601F1140E0023DEF800000133B7
:403E400081B202FB0171000C0F0C02FB007089B201EB00419D424FEA10474EF8041BECDCD7B1A3689D4212DB616830460131FFF78FFF8046226904F10C01023292000C305F
:403E8000FEF7F0FD21463046FFF7B7FF444604EB850301355F6125612046BDE8F081030C1B0413B90004102300E0002310F07F4F04BF0002083310F0704F04BF00010433E2
:403EC00010F0404F04BF80000233002803DB420003D5581C70471846704720207047036813F007020BD0D90722D49A074BBF5B089B08036003604CBF01200220704799B275
:403F000009B91B0C102213F0FF0F04BF1B0A0832190704BF1B090432990704BF9B080232D90702D45B0805D00132036010467047002070472020704710B50C460121FFF72E
:403F400027FF01224461026110BD2DE9F74F14460A69236988469A42BEBF0B46A0461C46D8F81070D4F81090D8F80830D8F8041007EB09069E42C8BF0131FFF709FF00F17D
:403F800014052B4605EB860C0022634502D243F8042BFAE704F1140208F1140102EB890301EB87070093009B0192934257D9B2F800B0BBF1000F23D08946AE464FF0000828
:403FC00059F8044BBEF800A0A3B20BFB03A34FEA144ADEF8004043444FEA14480BFB0A84F24604EB13449BB243EA04434F454FEA14484AF8043B01D9D646E1E7CEF804807C
:40400000019B0432B3F802A0BAF1000F21D02C4689462B684FF00008B9F800E0B4F802B09BB20AFB0EBEA346F04443EA08434BF8043B59F8043BB4F804E01B0C0AFB03E345
:404040004F4503EB18434FEA134801D95C46E3E763600435A7E75CF8043D13B9013E002EF9DC066103B0BDE8F08F00002DE9F843154612F0030206460F4607D0214C013A4B
:40408000002354F82220FFF7CFFE0746AD1036D0746A3CB91020FFF773FE7062446084600460C460D6F82480D8F808404CB940F271213046FFF740FF04460023C8F80800FD
:4040C00003604FF00008EB070AD5394622463046FFF73BFF814639463046FFF78EFE4F466D100CD0206808B10446ECE7224621463046FFF72AFF2060C0F80080F4E73846B9
:40410000BDE8F883404B00002DE9F0470C460746914626694FEA621A56444968A368751CAB4202DA01315B00FAE73846FFF730FE002380461A4600F11401534503DA41F810
:4041400023200133F9E72AEAEA73206901EB830319F01F0904F1140101EB800E14D0C9F1200C002208689A4600FA09F0024343F8042B51F8042B8E4522FA0CF2F2D8CAF8F8
:40418000042042B1B51C06E0043B51F8042B8E4543F8042FF9D8013D3846C8F810502146FFF72BFE4046BDE8F08703690A6910B59B1A11D192001430143183180A4453F8DA
:4041C000044D52F8041D8C4202D007D3012010BD9842F4D3002010BD184610BD4FF0FF3010BD2DE9F8430C460746114620461546FFF7DBFF061E08D131463846FFF7C8FD22
:40420000012303614661BDE8F883BCBF23462C4638466168BABF1D4601260026FFF7B8FD2B69C660266905F1140904F1140101EB860709EB830800F114054FF0000C51F8C2
:40424000042B59F8044B93B29C44A3B2240CC3EB0C03C4EB124202EB23429BB24FEA224CC84543EA02428E4645F8042BE7D8BE450ED25EF8041B8AB26244131403EB11439F
:4042800092B242EA03424FEA234C45F8042BEEE755F8043D0BB9013EFAE70661BDE8F8832DE9F3411C4601219046089E099DFFF76FFDC4F31302C4F30A5407460CB142F4F4
:4042C00080120192B8F1000F19D002A840F8088DFFF705FE009B48B1019AC0F1200102FA01F10B43C2407B61019200E07B61019B002B14BF02210121BB61396107E001A8F9
:40430000FFF7EDFD019B01217B613961203034B1A4F2334404443460C0F1350009E0A0F2324007EB810330601869FFF7B8FDC0EB41102860384602B0BDE8F08138B502FB92
:4043400001F4214600F008F8054618B122460021FEF793FB284638BD70B5CD1C25F0030508350C2D38BF0C25002D064601DBA94202D90C23336046E000F05CF8234B1C686C
:404380001A462146A1B10B685B1B0ED40B2B03D90B60CC18CD501EE08C420BBF63684B681360636018BF0C4615E00C464968E9E7174C23681BB9304600F02CF82060294625
:4043C000304600F027F8431C18D0C41C24F00304A0420DD12560304600F02DF804F10B00231D20F00700C31A0ED05A42E25070BD211A304600F00EF80130EBD10C233360C3
:40440000304600F018F8002070BD00BFF883FF1FF483FF1F38B5064C0023054608462360FCF774FB431C02D1236803B12B6038BD2084FF1F7047704770B54FF0FF0C4CF41C
:40444000E06C1CEA11541DBF1CEA135594EA0C0F95EA0C0F00F0DEF82C4481EA030621EA4C5123EA4C5350EA013518BF52EA033541F4801143F4801338D0A0FB02CE4FF00D
:404480000005E1FB02E506F00042E0FB03E54FF00006E1FB03569CF0000F18BF4EF0010EA4F1FF04B6F5007F64F5407404D25FEA4E0E6D4146EB060642EAC62141EA5551E7
:4044C0004FEAC52040EA5E504FEACE2EB4F1FD0C88BFBCF5E06F1ED8BEF1004F08BF5FEA500E50F1000041EB045170BD06F0004646EA010140EA020081EA0301B4EB5C0443
:40450000C2BFD4EB0C0541EA045170BD41F480114FF0000E013C00F3AB8014F1360FDEBF002001F0004170BDC4F10004203C35DA0C341BDC04F11404C4F1200500FA05F375
:4045400020FA04F001FA05F240EA020001F0004221F0004110EBD37021FA04F642EB06015EEA430E08BF20EAD37070BDC4F10C04C4F1200500FA04F320FA05F001FA04F299
:4045800040EA020001F0004110EBD37041F100015EEA430E08BF20EAD37070BDC4F1200500FA05F24EEA020E20FA04F301FA05F243EA020321FA04F001F0004121FA04F2B8
:4045C00020EA020000EBD3705EEA430E08BF20EAD37070BD94F0000F0FD101F00046400041EB010111F4801F08BF013CF7D041EA060195F0000F18BF704703F00046520041
:4046000043EB030313F4801F08BF013DF7D043EA0603704794EA0C0F0CEA135518BF95EA0C0F0CD050EA410618BF52EA4306D1D181EA030101F000414FF0000070BD50EADD
:40464000410606BF1046194652EA430619D094EA0C0F02D150EA013613D195EA0C0F05D152EA03361CBF104619460AD181EA030101F0004141F0FE4141F470014FF0000004
:4046800070BD41F0FE4141F4780170BD70B54FF0FF0C4CF4E06C1CEA11541DBF1CEA135594EA0C0F95EA0C0F00F0A7F8A4EB050481EA030E52EA03354FEA013100F0888025
:4046C0004FEA03334FF0805545EA131343EA12634FEA022245EA111545EA10654FEA00260EF000419D4208BF964244F1FD0404F5407402D25B084FEA3202B61A65EB03051F
:404700005B084FEA32024FF480104FF4002CB6EB020E75EB030E22BFB61A754640EA0C005B084FEA3202B6EB020E75EB030E22BFB61A754640EA5C005B084FEA3202B6EB4E
:40474000020E75EB030E22BFB61A754640EA9C005B084FEA3202B6EB020E75EB030E22BFB61A754640EADC0055EA060E18D04FEA051545EA16754FEA06164FEAC30343EA59
:4047800052734FEAC2025FEA1C1CC0D111F4801F0BD141EA00014FF000004FF0004CB6E711F4801F04BF01430020B4F1FD0C88BFBCF5E06F3FF6AFAEB5EB030C04BFB6EBAD
:4047C000020C5FEA500C50F1000041EB045170BD0EF0004E4EEA113114EB5C04C2BFD4EB0C0541EA045170BD41F480114FF0000E013C90E645EA060E8DE60CEA135594EA9C
:404800000C0F08BF95EA0C0F3FF43BAF94EA0C0F0AD150EA01347FF434AF95EA0C0F7FF425AF104619462CE795EA0C0F06D152EA03353FF4FDAE1046194622E750EA4106FB
:4048400018BF52EA43067FF4C5AE50EA41047FF40DAF52EA43057FF4EBAE12E74FEA410C7FEA6C5C02D150EA013C0AD14FEA430C7FEA6C5C02D152EA033C02D14FF00000CA
:4048800070474FF0010070474FEA410212F5001215D211D56FF47873B3EB625212D94FEAC12343F0004343EA505311F0004F23FA02F018BF404270474FF00000704750EA5B
:4048C000013005D111F0004008BF6FF0004070474FF00000704700BF000000000000000000070E091C1B1215383F363124232A2D70777E796C6B6265484F464154535A5DAE
:40490000E0E7EEE9FCFBF2F5D8DFD6D1C4C3CACD90979E998C8B8285A8AFA6A1B4B3BABDC7C0C9CEDBDCD5D2FFF8F1F6E3E4EDEAB7B0B9BEABACA5A28F88818693949D9A97
:404940002720292E3B3C35321F18111603040D0A5750595E4B4C45426F68616673747D7A898E878095929B9CB1B6BFB8ADAAA3A4F9FEF7F0E5E2EBECC1C6CFC8DDDAD3D457
:40498000696E676075727B7C51565F584D4A4344191E171005020B0C21262F283D3A33344E49404752555C5B7671787F6A6D64633E39303722252C2B0601080F1A1D141317
:4049C000AEA9A0A7B2B5BCBB9691989F8A8D8483DED9D0D7C2C5CCCBE6E1E8EFFAFDF4F348656C6C6F20576F726C64210D0A00003D5100400D510040201000003C5100400A
:404A00000D51004010200000004F00400C0040510040300000000140000E800E0140800100140140000800400140000A004C01400002105001401000000E0140000D0048A1
:404A4000800000500140800D004810004300494E4600696E66004E414E006E616E003000496E66696E697479004E614E00504F534958002E00000000000000000000F03F62
:404A8000000000000000244000000000000059400000000000408F40000000000088C34000000000006AF8400000000080842E4100000000D01263410000000084D7974191
:404AC0000000000065CDCD41000000205FA00242000000E876483742000000A2941A6D42000040E59C30A2420000901EC4BCD64200003426F56B0C430080E03779C341437A
:404B000000A0D8855734764300C84E676DC1AB43003D9160E458E143408CB5781DAF154450EFE2D6E41A4B4492D54D06CFF08044F64AE1C7022DB544B49DD9794378EA4492
:404B400005000000190000007D000000000000000080E03779C34143176E05B5B5B89346F5F93FE9034F384D321D30F94877825A3CBF737FDD4F1575F8B500BFF8BC08BC37
:404B80009E4670474D000000890B0000F8B500BFF8BC08BC9E46704729000000B04B0000C880FF1FC80000009802000000000000000000002884FF1FFFFFFFFFFF00000049
:404BC0007F800000030000000000E02EC05D00001800000000366E010100000000000000000000000000000000000000000000000000000000000000000000004C4A000034
:404C0000000000000000000000000000000000000000000000000000000000000000000000000000000000000000000000000000000000000000000000000000F480FF1FE2
:404C4000734A0000744A0000744A0000744A0000744A0000744A0000744A0000744A0000744A0000744A0000FFFFFFFFFFFFFFFFFFFFFFFFFFFF00000000000000000000D7
:404C800000000000000000000000000000000000000000000000000000000000000000000000000000000000000000000000000000000000000000000000000000000000F4
:404CC00000000000000000000000000000000000000000000000000000000000000000000000000000000000000000000000000000000000000000000000000000000000B4
:404D00000000000000000000000000000000000000000000000000000000000000000000000000000000000000000000000000000000000000000000000000000000000073
:404D40000000000000000000000000000000000000000000000000000000000000000000000000000000000000000000000000000000000000000000000000000000000033
:020000040003F7
:0200000480007A
:40000000024F004004520040015B00400664004002650040450201403B030140470401405A0501402E06014056070140240801404E090140480A01404B0B0140500C01409A
:40004000480D0140030E0140270F01404A1401404B15014035160140491701405218014052190140431A01405E1B0140084001400941014006420140044301400244014059
:40008000024501400F4601400447014008480140094901400D4C0140064D0140035001400251014001400A4B08801988618079282784820F870F880389388D388E768776F7
:4000C000890F014303340F20152A1754180119431B1C1F28218023152D032F0431C0330F3401353839023B283E105401580459045B045C135D105F018040840C850C861103
:4001000087038A408E408F03911092409420960398099A109C1C9E029F0CA040A308A410A810A901AA0CAB0EAC14AD01AF06B040B10FB21FB310B420BB02BE11BF04D60885
:40014000D804D904DB04DC15DD90DF010140024003240508060809100A210B800C090D20102011021209140415021610184019101A201E082204238024082610275829204C
:400180002A402B422D402F403101334037543B843D023F8058805C605D015E0860018024816186408C018F129880AC80C06FC27FC47FCA9DCC79CE9AD6F8D808E401E606E2
:4001C000EE0400090210046008400C100E0C1203181C1A021E202014240C261128602C10301F346038283E144002450449FF4A0F4BFF4C404D204EF04F0550085203530276
:40020000580459045A045B045C315D355F01604061A86240632080029403A601A803B403B820BE10C002C604C9FFCA0FCBFFCC40CD20CEF0CF05D008D401D804D904DA046D
:40024000DB0CDC33DD31DF01E040E1A8E240E320002001040362051807800A400B060C010E2610801180120813081622171218041A601D2029902B102C012D882F1031062C
:40028000322235143602370239023A023E064004452048204B0255405620574058045A045E806402670269D07D407E207F1080088144824185108A208B408E109208930402
:4002C0009502960197809BD89C059D099E11A080A250A302A428A510A608A760A880A910AB84AD21AF84B208C07FC2FBC4FFCA5ECCE7CEC1D024D610DE10E007E240E40CAE
:40030000EA0CEC04020103010B02110215021B0221022B022D02320135023701580459045C335F0192019A019E01A401A801B001BE01C061C102C5E0C6C0C7B0C82AC9FFE8
:40034000CAFFCBFFCEF0CF44D00CD401D804D904DA04DB04DC33DD55DF01E6C0EA40EB0201900290030405960610082209200A030B240C840E020F401080110412081340A9
:4003800017011A401D041F042690270129142B082C802D802E022F083084322033053504362037013B803D103F224002432049014A0851205201582059015A48810884087D
:4003C0008502861087018840890291049209970198029C0C9D959E13A320A408A502A628A710A910AB01AC10AE01B020B320B402B608C0FFC2BFC41FCAB6CCEFCEA8D00CE6
:40040000D204D60FE002E404E801EA0800800240060108080B010C400E801010122016021A081C0222042420261028012C0430FF37013A083E0156025739580459045B0D09
:400440005C325D305F01D418D804D904DB04DC33DD50DF0101040280030104A20506070108600C900D390EC0101011801440160817441F0A26C0286029042C502E403001A8
:400480003120328035043701388039043D843E1058025E206004614067206C316E106FC47480760A7D208204840185488B8090049524964099409B099C519D869E04A1101B
:4004C000A210A408A501A684A708AB04AD01AF02B324B404B601C0FDC2F3C4F5CAD3CCCDCE7AD621D84CDE20E280E810EA80EC600C900E48101D12E0160118E01A1C1E0283
:40050000206D229024B5264828B52A482C252ED8320334FC580459045C325F0186038A208C018E469401960E9A109E20A04CA203A301A64CAA08AE10B00FB24AB410B62062
:40054000B701BA0ABE50C035C106C202C404C5C0C7E0C822C9FFCAFFCBFFCC62CDA0CEF0CF41D00CD804D904DA04DC35DD05DF01E640E702E910EA30EB10ED10EE10EF1270
:400580000140040806050A950D080E080F0110A412021501160217241A141C041D481F0624022540270128402D022E4030113104328034513504380239043D844420450180
:4005C00046044C084D804F015602802081108248830886108B1091409201952496D4971098049C419D049E089F01A0A0A202A510A708AB40AC10B104B402B708C0E1C2EF38
:40060000C4FFCA91CCFFCE53D0E0D230E042E480E601EA20EC040A041201160819011A041E10221024012A022F0330033302340C350136103E504056410145C046EB480E27
:4006400049FF4AFF4BFF4EF04F44500C5804590D5A045C395D015F0166C06A406B02850489088C928E498FF39003921C930C941C95F396E3970C98E099829A1C9D2C9FD379
:40068000A06DA10FA292A3F0A4B6A541A649A8B6A9C3AA49AC24ADFFAEDBB1C0B30FB51CB6FFB72CBB28BE40D418D804D904DB04DC20DD20DF010140060808080A940C10D2
:4006C0000E960F0110AC1202164017241A011D601E801F0121082211230126202714280A2A0A2F01301031883202371038A847404D804E804F10541057405A0260046140C7
:400700007D208280834086208D808E128F2090AC9140952496E09A409C419D049E089F01A0A8A180A202A528A601A708C041C2FEC47FCA1FCC2FCE0ED010D230D601D80CEA
:40074000DE20E450EE04D804DC03DF010140022005040A820B040C400E4010A814011524170118841B4220402180220723042A082B4A31883218386A4120430A4A095260B2
:400780005A0868A869407015C025C29BC4FECA0FCC0ECE0FD007D20CD60200030141021C04B605080649082409040ADB0C920E49110F13F0141C16E3170C18E019F31A1C43
:4007C0001B0C1FF3206D211C229223E324B62582264929C32DFF30FF312C331C350F37C03B223E01580459045C505F0180018103840989018A108B028C058F049011910321
:40080000940395039A019D029E049F01A103A208A620A703A801AE02B104B201B43EB502B701B820BE10D804D904DC33DF01000801610208050406040741081809100A408D
:400840000B800E480F2210A0144215181B021D101E081F14210822122302250126A128192B402F50325A33803504374139013A283D123F40810183908710880B8A108B4276
:400880008C808D088EA09159938096A09728984099249A2C9B419D109E109F02A0A4A110A341A603A710A940AD80AF42B020C0FFC2F6C4FCCACFCCDFCEB7E250E403E60431
:4008C000E808EC062A013601580459045C335F01800184BF850387048C398E82910A9206931494A795139618970C99139A019B049C399E849F08A040A218A410A808AB40E5
:40090000AC40AD20AF05B020B280B30FB460B540B61FB730B828B980BA80BB08BE01D602D713D804D904DB04DC55DD50DF010101021205840744080809200AA10E06100260
:40094000110213181604170119291A011B401F4021202288230128062D102E042F10328933203584362037013B043F20590168A46940700272287318840485018804890445
:400980008B048D3191109202930497A1984299049A049B459C089D98A220A321A609AA20AB44AE20AF41B304B604C0FDC2CFC45FCA6CCCFFCE22D601E288E408EA01EE0A89
:4009C0000002010703380538070708010D1B0F2411091336140215241712192D1B12292D2B1230013402353F38203E11580459045C535F0183088723880C8A718B0C8D8070
:400A000090DC92229414956197069A209D4C9E039F03A010A110A240A409A6D0A810A961AAACAB0EB160B380B4E0B510B61FB70FB902BA20BB80BF15C004C540C9FFCA0FF8
:400A4000CBFFCC40CD20CEF0CF05D008D401D804D904DA04DB04DC22DD22DF01E040E1A8E240E320012004020504070909080A820B080C410D200E2010801218150619309D
:400A80001A021B801F11204222642404270429102B802F08324836053720388839203A103B813C043E4140404104430848804B0150045304581059415A0865016780860108
:400AC0008B0A8E018F0591029504972098419A089B099C029D849E04A140A290A322A408A521A840AE42B040B320B420C0F2C2FFC43ECA25CCEACEDFD001D60FE030E208AB
:400B0000E408E690E880EE1002010520070508010B081513170C19031A011B041D0A1F142601280129132B04330F3530360139203B083E4040624103450C460E470B4815B5
:400B400049FF4AFF4BFF4EF04F44500C580459045A045C235D025F0166C06A406B02800487018A088B029007960498019A029C059E02A301A405A602A805AA02B103B20C49
:400B8000B403BA02BF01D804D904DC35DF0100120120032105020708080609400A040B080E6A0F801030128813401508172019401C801D101E3021102208250129202D0282
:400BC0002E012F2030203248350436A0370139203B083C043D813E104010420448204A08504051086580670280028114830185048620874088488A188B088E048F4090046C
:400C0000910992819308948095249640980499209A089B219C109DC49E04A001A140A285A320A408A509A608AA24AC06AD21B320B401C05FC2FFC46FCAC4CCFECEF6D00618
:400C4000D204E2A0E4D0E620EC211010168032203B023E80C430CC10CE6063028620A620AB01AC10D640E640EC40EE20580887018C08A701D640E04087019F01A701E61085
:400C80007F80DE01A784AB0402201B0424404508822085088F809302A784AB01C008C608C801D001E002440890409302D00427015840878088409F01C820D480E4101B804F
:400CC0005A8063088E408F04A780C640D480D840092067027004840885208C01904093029C08C202D601DC01E00270019002A804B440DC01EA02102C1A281C2C0003100A3F
:400D0000004000000008040000100000014002180000080000A700180039048201390284030000010101020001BF020000000006036000200480081F002200800000100402
:400D4000640305000200EC000CFFFFFF62A0F0410C0000000000021204040404222200010000000000004002001030100010101200000000000000000000000000000000A4
:400D80002E010000000000002A012A002C000E018000000000000080B00000008000008080008000000000002800102020002008080000008000408B8B00800000000000C6
:400DC00000020200000000008800000000000088B80000007C0018010001000000000000000000000000000000000000000000000000000000000000000000000000000091
:400E000000000000000000000000000000000000000000000000000000000000000000000000000000000000000000000000000000000000000000000000000000000000B2
:400E40000000000000000000000000000000000000000000000000000000000000000000000000000000000000000000000000000000000000000000000000000000000072
:400E80000000000000000000000000000000000000000000000000000000000000000000000000000000000000000000000000000000000000000000000000000000000032
:400EC00000000000000000000000000000000000000000000000000000000000000000000000000000000000000000000000000000000000000000000000000000000000F2
:0200000490006A
:0400000000004005B7
:0200000490105A
:04000000BC90ACAF55
:0200000490303A
:0200000059FCA9
:0200000490402A
:4000000000000000000000000000000000000000000000000000000000000000000000000000000000000000000000000000000000000000000000000000000000000000C0
:400040000000000000000000000000000000000000000000000000000000000000000000000000000000000000000000000000000000000000000000000000000000000080
:400080000000000000000000000000000000000000000000000000000000000000000000000000000000000000000000000000000000000000000000000000000000000040
:4000C0000000000000000000000000000000000000000000000000000000000000000000000000000000000000000000000000000000000000000000000000000000000000
:0200000490501A
:0C00000000012E16106900012E376A6501
:00000001FF