:400000000080002011000000290C0000290C000008B5044B1A6803F53F5302331A6000F023FE00BFFA46004010B5054C237833B9044B13B10448AFF300800123237010BDEC
:400040009881FF1F0000000088500000084B10B51BB108490848AFF300800848036803B910BD074B002BFBD0BDE81040184700BF000000009C81FF1F88500000C880FF1FB2
:400080000000000010B500F079FF234B1A8892B2013292B21A805A8892B2013292B25A809A8892B2013292B29A801B889BB2052B10D109E0204600F0BBFB00B2174B23F81B
:4000C00014000134A4B200E00024012CF2D90122114B9A71104B1B889BB20A2B06D10E4B00221A800122DA7101F034F80A4B5B889BB2B3F5FA7F04D1074B00225A800122F8
:400100001A72054B9B889BB2092B04D9024B00229A8001225A7210BDB481FF1F0084FF1F2DE9F04782B0814688461746002426461AE000F049FE034650B911E0651CEDB293
:4001400000F02CFE02AB1C4404F8040C53462C465A1E5FFA82FA0BB1012CEFD9012C07D8012001F07BFA0136BE4201D2012CE0D99DF8043089F800309DF8053088F80030CC
:40018000012002B0BDE8F08770B58CB005460E4600238DF82F308DF82E3001E000F0FEFD00F012FE0028F9D1462000F019FE0A220DF12E010DF12F00FFF7B2FF044648B3C9
:4001C0002822002101A802F0F0FC9DF82E309DF82F20124901A803F061F901A800F0A2FE9DF82F009DF82E3043EA002000B200F001033370801002F071FA094902F076FBBD
:400200000646084B588902F065FA0146304602F0B9FA286020460CB070BD00BF9051000000C0CC44B481FF1F30B58DB0054600238DF82F308DF82E3001E000F0AFFD00F02D
:40024000C3FD0028F9D1502000F0CAFD0A220DF12E010DF12F00FFF763FF0446E8B12822002101A802F0A1FC9DF82E309DF82F200B4901A803F012F901A800F053FE9DF8F0
:400280002F009DF82E3043EA002040F38D0002F025FA044902F076FA286020460DB030BDA45100000000B43D2DE9F04F99B080460F4616461D4600238DF85F308DF85E300F
:4002C0008DF85D308DF85C3001E000F067FD00F07BFD0028F9D1422000F082FD0A220DF15E010DF15F00FFF71BFF0446002800F09680282200210DA802F057FC9DF85E3085
:400300009DF85F2048490DA803F0C8F80DA800F009FE01E000F042FD00F056FD0028F9D1412000F05DFD0A2217A90DF15D00FFF7F7FE0446002872D02822002103A802F026
:4003400034FC9DF85C309DF85D20384903A803F0A5F803A800F0E6FD9DF85F00FF2807D002F0BCF94FF07C5102F00CFA834601E0DFF8BCB09DF85E00FF2807D002F0AEF9CC
:400380004FF07C5102F0FEF9019001E0284B01939DF85D00FF2807D002F0A0F94FF07C5102F0F0F9824601E0DFF884A09DF85C00FF2807D002F092F94FF07C5102F0E2F984
:4003C000814601E0DFF86890C8F800A0C7F800905146504602F09CFB48B95946584602F097FB30B95946504602F0C2F802E0104800E00F4830604946484602F089FB50B9F8
:40040000019E3146304602F083FB30B93146484602F0AEF802E0064800E005482860204619B0BDE8F08F00BFB8510000D05100000000C07F82B002AB43F8040D18680860C7
:4004400002B0704782B002AB23F8040D1B880B8002B0704710B4084C235C4B40E05C002305E0D45C6040044C205C0133DBB28B42F7D310BC704700BF90500000F8B50F46F3
:4004800014460E4D28736A7305F10E0002F082FBA61C3A4621460A20FFF7DCFF2E443073E31C2B440D221A73231D1D440A232B73611DC9B2024800F0E9FCF8BDB481FF1F2D
:4004C000C081FF1F2DE9F0418AB062B60023ADF8243000F00DFD00F053FC00F0BDFC9A4800F020FD01E000F059FC00F06DFC0028F9D1532000F074FC00238DF823300AA925
:4005000001F8063D32220DF12300FFF709FE38B909A9FFF797FF8D4800F004FD042418E09DF823209DF8223043EA02231BB298B2002B02DA10F0010F07D109A9FFF782FFB8
:40054000834800F0EFFC042403E0002401E000F025FC00F039FC0028F9D1432000F040FC32220DF122010DF12300FFF7D9FD58B944F0040409A94CF6CC40FFF763FF0022E5
:40058000744B83F80E210AE09DF823209DF8223043EA02236F4A5381012382F80E31022209A92046FFF76AFF00F0C0FD00F02AF9694801F0CBF800F0CDFD01F0FBFB00F01C
:4005C00023FD012001F096F8624BDB7913F0FF0FFAD0604B9B7913F0FF0FF5D05D4B5B7A13F0FF0FF0D05B4B0020D8719871587200F0B4FD68B9002316E0204600F0BAFDB2
:40060000564B23F81400012001F028F80134A4B200E00024032CF0D908E04FF618414F4A22F8131001339BB2032BF6D9002501272C463AE0494B33F8150000B200F0A8FD63
:400640000646444B1B7A13F0FF0F19D0032D17D10022404B1A72424B1868014602F058FA60B93F4B1868314601F082FF20F000403C4902F039FA08B147F00507384B1E6024
:400680003949304602F03AFA20B93849304602F017FA08B147F00307354921443046FFF7C9FE0434E4B20135EDB2032DC2D900251AE0304B33F8150000B201F0CBFB06463C
:4006C000294902F01BFA20B92849304602F0F8F908B147F00907264921443046FFF7AAFE0434E4B20135EDB2012DE2D9224B0293039300228DF807200493059306930793A2
:40070000144B93F80E31002B3ED00DF1070102A8FFF73AFD064610B9184800F003FC03A8FFF782FD804610B9154800F0FBFB07AB06AA05A904A8FFF7B7FD054638BB114827
:4007400000F0F0FB23E000BFE4510000F451000018520000B481FF1F850000000484FF1FCC80FF1F9A99993E3333A340CDCCCCBDC482FF1F0084FF1F0000C07F40520000C4
:4007800060520000805200000025A8462E4636B1B8F1000F03D015B19DF807300BB947F02107174D29190298FFF744FE211DC9B229440398FFF73EFE04F10801C9B22944B6
:4007C0000498FFF737FE04F10C01C9B229440598FFF730FE04F11001C9B229440698FFF729FE04F11401C9B229440798FFF722FE04F11802D2B229463846FFF73FFEE3E6BB
:40080000C482FF1F08B501F0C1FA01F0D3FA00F0C5FC08BD10B5044601F0D4FAE0B200F0D9FC012000F01AFF01F0C4FA10BD00BF10B530B901F022FB84B20120FFF7EAFF3B
:4008400005E001F01BFB84B20020FFF7E3FF204610BD00BFFEE700BFF0B40022174611E050F82760F3B226F0FF0608E001EB420511F812406D78A5550132013BDBB2002BA9
:40088000F4D101372A2FEBD9F0BC704708B50A46002102F08AF908BDF8B5214B1B78DBB2204E3478E4B2204F3D78EDB203F007011E4A11701B090132137044F0030333700C
:4008C00045F003033B708023A2F26272137088213032117042F220011F3211800821A1321170402212490A7002310A703021114A11701021683211702221043211701C329F
:40090000137020220C4B1A70922235331A700A2000F0BAFE3D7034704422084B1A70F8BDCF010049F8460040F94600406E58004001590040985A0040235B0040765800409C
:4009400008B502F027F908BD38B50024384B1C80502202331A700C2202331A80182335490B7002310A80344A13700E210232118002321370172102321180023213701925F6
:40098000023215800232137004222C492C48FFF7D7FF06222B4B1A705222A3F580731A70294B1B78DBB2294A13704FF4E162284B1A8041F25122023B1A800CE0254B1B78A2
:4009C00003F0010343EA440404F003044FF4F07001F07AFB013D0DB1032CEFD115B90320FFF738FF1C4A4FF4807313800723137000231A490B7048200231087013700532D4
:400A000013700222164B1A7004220A331A70154A137843F03F031370013A137843F001031370013A137843F08003137038BD00BF80400040864000408A400040D40D0048E9
:400A400000410040004300400F010049A14600402242004025420040044000400640004001400040A2430040012807D8044B53F820201844017A13780B431370704700BF6C
:400A8000A4520000012808D8044B53F820201844017A137823EA010313707047A4520000012808D8044B03EB8002D2681844017D13780B4313707047A4520000012809D8CB
:400AC000054B03EB8002D2681844017D137823EA01031370704700BFA452000038B572B6384A137843F00403137000240BE0364863001A19510001440A46898B9069FFF7AC
:400B0000C5FE0134E4B2062CF1D930494FF09040FFF7A2FE0A242E4B1C7004212D48FFF7B5FE04222C492D48FFF70AFF2C4A137843F0020313701032137843F00203137044
:400B4000284D2B7843F040032B70A2F58632513A137843F010031370224623492348FFF7EFFE224622492348FFF7EAFE224622492248FFF7E5FE224621492248FFF7E0FEBA
:400B8000082221492148FFF7DBFE224620492148FFF7D6FE204A137843F0080313701F4C61232370FFF7D0FE8123237001221C4B1A70FFF771FE0E2229461A48FFF7C0FE04
:400BC00038BD00BFE8460040A4520000AC0000488358004000760040D80D00480876004003500140A0430040900D0048005100409C0D0048C0510040A80D0048F051004040
:400C0000B40D004810510040C00D004822510040C80D004830510040224300400048004004000840B043004008B501F087FF03680C2B00D1FEE7FEE708B5094B1A68104460
:400C4000084BC31A802B02DC054B186005E001F075FF0C2303604FF0FF32104608BD00BFD080FF1F2884FF1F08B5104E104D16E029686B68AC68002204E051F8040B43F816
:400C8000040B0432A242F8D1E868002203E0002143F8041B04328242F9D11035013E002EE6D101F051FFFFF70DFCFEE7010000007054000008B5114A114B1A60114A136897
:400CC00043F40073136000230AE0032B03D80E4A52F8231000E00D490D4A42F8231001332F2BF2D90B4B1A780B4B1A70084A0B4B1A60FFF7F3FE00F0CFFB08BD0004FA0546
:400D00000CED00E014ED00E000000000290C00000080FF1FBC760040C080FF1F08ED00E07622074B1A700023064A13700E215D3A11708F211032117048321370704700BFEA
:400D40008B6400408864004010B501F0C5F904460A4A137843F020031370033A137843F010031370053A137843F01003137000F045FA204601F0B4F910BD00BF9B64004080
:400D800008B5054B1B7823B9FFF7CAFF0122024B1A70FFF7D9FF08BDC383FF1F084B1B78DBB213F0200F06D0064A1078C0B213F01E0F02D17047002070470020704700BF1B
:400DC000686400404B650040044B1B7813F0200F01D0012070470020704700BF68640040034B1B7813F0040FFAD1024B1870704763640040486400407622074B1A700023C0
:400E0000064A13700E21993211708F2110321170B03A1370704700BF8E6400408D64004010B501F059F904460A4A137843F020031370013A137843F010031370073A137846
:400E400043F01003137000F0E7F9204601F048F910BD00BF9E64004008B5054B1B7823B9FFF7CAFF0122024B1A70FFF7D9FF08BDC583FF1F034B1B7813F0040FFAD1024B36
:400E8000187070476664004045650040084B1B7833B97047305DFFF7EDFF0134E4B203E070B50D4606460024AC42F3D370BD00BFC583FF1F0E22044B1A708F2210331A70E4
:400EC000002251331A7070472364004010B501F003F90446054A137843F01003137000F0A9F9204601F0FCF810BD00BF9464004008B5054B1B7823B9FFF7DCFF0122024B47
:400F00001A70FFF7E3FF08BDC783FF1F034B1B7813F0040FFAD1024B18707047646400404765004038B5074B1B782BB938BDFFF7EDFF0134A4B201E005460024285D0028CB
:400F4000F5D138BDC783FF1F084A137843F0010313701032137843F00103137002F64D32137843F001031370704700BFA3430040014B1870704700BF034F0040014B187820
:400F8000704700BF034F0040014B1880704700BF044F0040014B1880704700BF064F004008B5164A137803F0010313700232137803F0FC031370124B1A7802F0CF021A70BB
:400FC0001A7842F030021A701A7802F0F0021A701A7842F00F021A700A4A137843F00103137042F20F70FFF7CFFF42F20F70FFF7D1FF0820FFF7BCFF08BD00BF004F00409D
:401000000B4F0040014F004008B5054B1B7823B9FFF7C6FF0122024B1A70FFF795FF08BDC983FF1F10B541F6FF734FF480420121022000F0E7F9084C207041F6FF731A4628
:401040000121082000F0FCF96070044800F016FA002000F019FA10BDCC83FF1F9911000070B52C4C207800F04DFA607800F04AFA294B1B78FF2B03D100F0B2FA264B18700C
:40108000254D287806230246082100F0C3FA214E341DA4B2224645F6A031287800F0CEFA2978307800F06EFA6B78FF2B02D100F097FA6870184D687807230246082100F04B
:4010C000A9FA164A92B22146687800F0B7FA114C6978607800F056FA0121207800F0F6F90121607800F0F2F900F0F6FF0C4A137843F02003137000F0F3FF0A4B1A7842F063
:4011000001021A701A7842F002021A700122064B1A6070BDCC83FF1FD480FF1F0C84FF1F9B6500407264004080E200E008B5074BDB6823B9FFF776FF0122044BDA6000F05B
:4011400023F9FFF78DFF024B1B7808BDCC83FF1F6865004008B500F025F908BD044B1B7803F0FF020BB90028F8D01046704700BF68650040C0F10300034B33F91030034A04
:401180001088181A00B270470C84FF1F1C84FF1F08B500F00FF908BD704700BF10B5002407E02046FFF76EFC2046FFF787FC0134E4B2012CF5D9FF22014B1A7010BD00BFE2
:4011C000D680FF1F10B50446FFF75CFC2046FFF775FC10BD10B50446074B1878FF2801D0FFF7F0FF2046FFF73FFC2046FFF758FC014B1C7010BD00BFD680FF1F054A1378BD
:4012000043F0200313701032137843F020031370704700BFA2430040054A137843F0040313701032137843F004031370704700BFA2430040054A137843F002031370103201
:40124000137843F002031370704700BFA243004008B50A280FD00C2802D0082806D102E04FF4805209E04FF4807206E0002000F0F3F9002201E04FF480620021094B198085
:4012800042F2107303FB02F303F6C413064A82FB0302DB17C3EBE223044A1360044B198008BD00BF1484FF1FAD8BDB681884FF1F1C84FF1F10B500F00FFF0446184A13786D
:4012C00043F0010313701032137843F00103137002F5AA520832137843F0030313701822104B1A70013B1A7842F040021A701A7802F0FC021A70C822053B1A700222A3F5D2
:4013000097530C3B1A70084A137843F0080313700A2000F0B9F9204600F0E2FE10BD00BFAB43004006590040275B004010B504460A280DD00C2802D0082804D101E0C22249
:4013400007E0422205E0002000F086F9C22200E08222034B1A702046FFF77AFF10BD00BF0259004008B5064A137843F0060313700C20FFF7DBFF0022024B1A8008BD00BF92
:40138000015900401E84FF1F08B5054B1B7823B9FFF7E8FF0122024B1A70FFF78BFF08BDDC83FF1F024A137843F00103137070470059004038B50F4B1B881BB233B10D4BEA
:4013C0001B881BB203EB83035C0001E00A4B1C680A4B1B88C01A00B201F080F9084901F0D1F90546204601F079F90146284601F07DFA38BD1484FF1F1884FF1F1E84FF1FA3
:4014000000002041F0B583B016461F460B4C012525700023019300932B460A460146284600F0BCF83A463146207800F091F80221207800F07BF8207803B0F0BDD780FF1FA9
:40144000F0B583B016461F460B4D00242C700194009423460A460146204600F09FF83A463146287800F074F80221287800F05EF8287803B0F0BD00BFD880FF1F014B1B68A5
:401480001864704708ED00E04001C0B2014B1870704700BF00E400E00B4A7F2313708021517007E0DA0002F1804202F5F042013BDBB21370002BF5D1DB0003F1804303F521
:4014C000F04300221A707047DC80FF1F172815D831B103010A495A5C42F020025A5405E0030107495A5C02F0DF025A540001044A835C43F001038354002070470120704764
:401500001070004017280CD80001074BC1180A7942F004020A71C25C42F00102C254002070470120704700BF1070004017280BD80001064A835C03F0F103490001F00E014D
:401540001943815400207047012070471070004041F6FF73994201D14FF4005141F6FF739A4201D14FF40052172808D8C00000F1804000F5EC408180C28000207047012009
:40158000704700BF172805D8034B03EB0010417200207047012070471070004017281BD810B4C00000F1804404F5EC44D201D2B201F07F01114321709DF804201201D2B29A
:4015C00003F00F03134363709DF8083003F00F03A3700020E07001E00120704710BC704710B500F079FD0A4B5B78182B0BD9084A1478013B5370E30003F1804303F5F04310
:401600001B78137000E0FF2400F06AFD204610BDDC80FF1F10F0800F0CD111F4704F0BD1C00000F1804000F5F04001808270C37000207047012070470120704710F0800F2F
:4016400008D1C00000F1804000F5F0408180C280002070470120704701BE704710B5044605E0084B186800F02FFDA4F50044B4F5004FF6D8034B586800FB04F000F024FDFF
:4016800010BD00BFE480FF1F08B5034B1B7A00FB03F000F019FD08BDE480FF1F70B504460E46074B1D681F2802D90020FFF7D4FF04F01F04103455F8240045F8246070BDE2
:4016C00008ED00E038B504460D46072902D90020FFF7C2FF1F2C02D90020FFF7BDFF04F01F0000F1604000F564406D01EDB2057038BD00BF044A137803F0FD03400000F042
:40170000020018431070704720510040024B1B68C3F88400704700BF08ED00E04001C0B2014B1870704700BF11E400E04FF40032014B1A60704700BF00E100E04FF4003251
:40174000014B1A60704700BF80E100E010B50446FFF7F4FF2046FFF7D9FF0720FFF7DEFFFFF7E4FF10BD00BF38B59DF81040651EEDB2032D51D8013809282ED8DFE800F0ED
:40178000052D2D052D2D0F192D230F2B03D92548007840B222E02448007840B21EE00F2B03D92248007840B218E02148007840B214E00F2B03D91F48007840B20EE01E484C
:4017C000007840B20AE00F2B03D91C48007840B204E01B48007840B200E0002001EB401101FB02F2D20B91B20D2B0BD8C3F10E0192B20A4191B2621E124800EB8202013386
:40180000937005E0631E0F4A02EB83030F229A70013C0C4B23F8241038BD0020FFF71CFF38BD00BF180100491C010049190100491D0100491A0100491E0100491B010049B8
:401840001F010049E083FF1FF8B5074600F044FC06460D4D2B7843F003032B700B4C237843F0030323700A4B1F700320FFF70CFF2B7803F0FC032B70237803F0FC03237021
:40188000304600F02DFCF8BDF8460040F946004092580040F8B504460022BC4B1A7401285BD13822BA4B1A70042202331A70072201331A70002501331D7001331D703F22FD
:4018C00001331A7002331D7001331D7001331D7001260A331E70502203F527631A707C2701331F700C2201331A70202201331A70442003331870422201331A701222013378
:401900001A7002331E70112201331A70192201331A70972201331A70FFF796FF58229D4B1A7001331D700520053318700D2201331A7001331D700A2201331A704FF4FA22E5
:40194000954B1A60314600F0CDFA3146384600F04DFB92491D20FFF7A1FE022C5AD138228B4B1A70042202331A70072201331A70002501331D7001331D703F2201331A7060
:4019800002331D7001331D7001331D7001260A331E70502203F527631A70272201331A702C2201331A7001331D70552203331A705A2201331A70052701331F7002331E707C
:4019C000112201331A70192201331A70972201331A704420FFF738FF58226E4B1A7001331D7005331F7001331E7001331D700A2201331A704FF4FA42674B1A6031463846A3
:401A000000F070FA31467C2000F0F0FA64491D20FFF744FE032C5AD138225D4B1A70042202331A70072201331A70002501331D7001331D703F2201331A7002331D700133CF
:401A40001D7001331D7001260A331E70502203F527631A70272201331A702C2201331A7001331D70552203331A705A2201331A70052701331F7002331E70112201331A70C0
:401A8000192201331A70972201331A704420FFF7DBFE58223F4B1A7001331D7005331F7001331E7001331D700A2201331A704FF4FA42394B1A603146384600F013FA31461A
:401AC000252000F093FA37491D20FFF7E7FD042C5AD138222E4B1A70042202331A70072201331A70002401331C7001331C703F2201331A7002331C7001331C7001331C7005
:401B000001250A331D70502203F527631A70272201331A702C2201331A7001331C70552203331A705A2201331A70052601331E7002331D70112201331A70192201331A705A
:401B4000972201331A704420FFF77EFE5822114B1A7001331C7005331E7001331D7001331C700A2201331A704FF4FA420A4B1A602946304600F0B6F92946252000F036FA21
:401B800009491D20FFF78AFDF8BD00BFE083FF1F004E0040945800402084FF1FA51E0000A91E0000AD1E0000B11E00002DE9F04182B0394E4FF0010886F80080374F002494
:401BC0007C74102000F07CF9102000F0FDF907211D20FFF777FD0425314B1D7001331C7007331C702F4A137843F0180313702E4B1C7003F2F5231C7001331C700A20A3F2D1
:401C00000933187001331C7002331C705B2205331A705E2201331A7004331C701422A3F68C231A70CDF8008010234FF4004248F6E261FFF799FD0223009310234FF400429D
:401C400049F2DA012846FFF78FFD0323009310234FF4004249F2DA012846FFF785FD009510234FF4004249F2DA012846FFF77CFD3378013B07EB83039A780C4B1A703378B4
:401C8000013B37F823200A4B1A803078FFF702FE02B0BDE8F08100BFF480FF1FE083FF1F96580040075B0040935800400E4E00400C4E004070B500F00FFA06462A4B1B78AC
:401CC0002A4B1A7842F001021A701A7842F010021A7010331A7842F001021A701A7842F010021A70224D2B7843F002032B70214C237843F0020323701F4A137843F00303E5
:401D000013700320FFF7C0FC2B7803F0FD032B70237803F0FD032370184A137843F0060313707A22164B1A70164A137843F0010313701032137843F0010313700F3A1378C6
:401D400043F0010313701032137843F0010313704FF000530C4A1360A2F5C0721360304600F0BEF970BD00BFF480FF1FAA430040F8460040F946004091580040775800408E
:401D800082580040A143004080E200E008B5084B9B7C4BB9064BDB7C13F0FF0F01D1FFF705FF0122024B9A74FFF784FF08BD00BFE083FF1F024A137843F0010313707047AF
:401DC000004E0040024A137803F0FE0313707047004E0040094B1B7C13F0FF0F03D0074B5B7CDBB203E0064B1B7803F00103012B01D00028EED01846704700BFE083FF1F47
:401E0000014E00400E4B1B7803F00303012B03D80C4B188880B209E00A4A12780A49087842EA0020032B01D1084B1B78084B1B7C13F0FF0F02D00022054B5A7400B27047BC
:401E4000144E0040104E0040114E0040124E0040E083FF1F10B5074B5B69C01A00F03EFC0446054B186800F039FC0146204600F03DFD10BDE083FF1F2084FF1F10B5084A46
:401E8000137843F004031370FFF794FF0020FFF7A1FFFFF7B7FF0446FFF794FF204610BD014E0040704700BF704700BF704700BF704700BF014B188880B2704780400040AD
:401EC000034B1A7800F0F80010431870704700BF82400040024B187800F00700704700BF8240004070B505460E46FFF7F3FF0446FFF7E0FFA84256D02B4B1B7803F00102A1
:401F000094B900B185B938B9284B1D80284A137803F0BF03137070BD254A137843F040031370224B1D8070BD22B3002321490B7001240F310C7004310B700C390B7803F0AF
:401F40007F030B701A4B1B7813F0080F00D08DB9194B18800721013B1970164B1B7813F0010FFAD110490B7803F0FE030B700021104B19700C4B1B7813F0010F0DD00E4BFE
:401F80001D800EB1032200E001220A4B1A70094B1B7813F0010FFAD170BD044B1D8002490B7813430B7070BDA243004080400040824000400140004002400040014B1888FE
:401FC00080B2704700410040034B1A7800F0F80010431870704700BF02410040024B187800F00700704700BF0241004070B505460E46FFF7F3FF0446FFF7E0FFA84256D033
:402000002B4B1B7803F0010294B900B185B938B9284B1D80284A137803F0BF03137070BD254A137843F040031370224B1D8070BD22B3002321490B70012413310C700439D9
:402040000B7008390B7803F07F030B701A4B1B7813F0080F00D08DB9194B18800721013B1970164B1B7813F0010FFAD110490B7803F0FE030B700021104B19700C4B1B7814
:4020800013F0010F0DD00E4B1D800EB1032200E001220A4B1A70094B1B7813F0010FFAD170BD044B1D8002490B7813430B7070BDA143004000410040024100400140004021
:4020C00002400040000000000230800803D000BF01380046FCD17047EFF3108072B6704780F31088704700BF81F0004102E000BF83F0004330B54FEA41044FEA430594EAD2
:40210000050F08BF90EA020F1FBF54EA000C55EA020C7FEA645C7FEA655C00F0E2804FEA5454D4EB5555B8BF6D420CDD2C4480EA020281EA030382EA000083EA010180EA32
:40214000020281EA0303362D88BF30BD11F0004F4FEA01314FF4801C4CEA113102D0404261EB410113F0004F4FEA03334CEA133302D0524263EB430394EA050F00F0A7807F
:40218000A4F10104D5F1200E0DDB02FA0EFC22FA05F2801841F1000103FA0EF2801843FA05F359410EE0A5F120050EF1200E012A03FA0EFC28BF4CF0020C43FA05F3C0181B
:4021C00051EBE37101F0004507D54FF0000EDCF1000C7EEB00006EEB0101B1F5801F1BD3B1F5001F0CD349085FEA30004FEA3C0C04F101044FEA445212F5800F80F09A8048
:40220000BCF1004F08BF5FEA500C50F1000041EB045141EA050130BD5FEA4C0C404141EB010111F4801FA4F10104E9D191F0000F04BF01460020B1FA81F308BF2033A3F187
:402240000B03B3F120020CDA0C3208DD02F1140CC2F10C0201FA0CF021FA02F10CE002F11402D8BFC2F1200C01FA02F120FA0CFCDCBF41EA0C019040E41AA2BF01EB0451EA
:40228000294330BD6FEA04041F3C1CDA0C340EDC04F11404C4F1200220FA04F001FA02F340EA030021FA04F345EA030130BDC4F10C04C4F1200220FA02F001FA04F340EAE4
:4022C0000300294630BD21FA04F0294630BD94F0000F83F4801306BF81F480110134013D4EE77FEA645C18BF7FEA655C29D094EA050F08BF90EA020F05D054EA000C04BF1B
:402300001946104630BD91EA030F1EBF0021002030BD5FEA545C05D14000494128BF41F0004130BD14F580043CBF01F5801130BD01F0004545F0FE4141F470014FF00000F9
:4023400030BD7FEA645C1ABF194610467FEA655C1CBF0B46024650EA013406BF52EA033591EA030F41F4002130BD00BF90F0000F04BF0021704730B54FF4806404F1320483
:402380004FF000054FF0000150E700BF90F0000F04BF0021704730B54FF4806404F1320410F0004548BF40424FF000013EE700BF42004FEAE2014FEA31014FEA02701FBFFE
:4023C00012F07F4393F07F4F81F06051704792F0000F14BF93F07F4F704730B54FF4607401F0004521F0004120E700BF50EA010208BF704730B54FF000050AE050EA01022E
:4024000008BF704730B511F0004502D5404261EB41014FF4806404F132045FEA915C3FF4DCAE4FF003025FEADC0C18BF03325FEADC0C18BF033202EBDC02C2F1200300FA6E
:4024400003FC20FA02F001FA03FE40EA0E0021FA02F11444C1E600BF4FF0FF3C06E000BF4FF0010C02E000BF4FF0010C4DF804CD4FEA410C7FEA6C5C4FEA430C18BF7FEA64
:402480006C5C1BD001B050EA410C0CBF52EA430C91EA030F02BF90EA020F0020704710F1000F91EA030F58BF994208BF90422CBFD8176FEAE37040F0010070474FEA410C0F
:4024C0007FEA6C5C02D150EA013C07D14FEA430C7FEA6C5CD6D152EA033CD3D05DF8040B704700BF8446104662468C461946634600E000BF01B5FFF7B7FF002848BF10F15E
:40250000000F01BD4DF808EDFFF7F4FF0CBF012000205DF808FB00BF4DF808EDFFF7EAFF34BF012000205DF808FB00BF4DF808EDFFF7E0FF94BF012000205DF808FB00BF6A
:402540004DF808EDFFF7CEFF94BF012000205DF808FB00BF4DF808EDFFF7C4FF34BF012000205DF808FB00BF80F0004002E000BF81F0004142001FBF5FEA410392EA030F37
:402580007FEA226C7FEA236C6AD04FEA1262D2EB1363C1BFD218414048404140B8BF5B42192B88BF704710F0004F40F4000020F07F4018BF404211F0004F41F4000121F086
:4025C0007F4118BF494292EA030F3FD0A2F1010241FA03FC10EB0C00C3F1200301FA03F100F0004302D5494260EB4000B0F5000F13D3B0F1807F06D340084FEA310102F1A6
:402600000102FE2A51D2B1F1004F40EBC25008BF20F0010040EA03007047490040EB000010F4000FA2F10102EDD1B0FA80FCACF1080CB2EB0C0200FA0CF0AABF00EBC250A9
:4026400052421843BCBFD0401843704792F0000F81F4000106BF80F400000132013BB5E74FEA41037FEA226C18BF7FEA236C21D092EA030F04D092F0000F08BF0846704790
:4026800090EA010F1CBF0020704712F07F4F04D1400028BF40F00040704712F100723CBF00F50000704700F0004343F0FE4040F4000070477FEA226216BF08467FEA236341
:4026C0000146420206BF5FEA412390EA010F40F4800070474FF0000304E000BF10F0004348BF40425FEA000C08BF704743F0964301464FF000001CE050EA010208BF70471B
:402700004FF000030AE000BF50EA010208BF704711F0004302D5404261EB41015FEA010C02BF84460146002043F0B64308BFA3F18053A3F50003BCFA8CF2083AA3EBC25372
:4027400010DB01FA02FC634400FA02FCC2F12002BCF1004F20FA02F243EB020008BF20F00100704702F1200201FA02FCC2F1200250EA4C0021FA02F243EB020008BF20EABF
:40278000DC7070474FF0FF0C1CEAD0521EBF1CEAD15392EA0C0F93EA0C0F6FD01A4480EA010C400218BF5FEA41211ED04FF0006343EA501043EA5111A0FB01310CF00040E1
:4027C000B1F5000F3EBF490041EAD3715B0040EA010062F17F02FD2A1DD8B3F1004F40EBC25008BF20F00100704790F0000F0CF0004C08BF49024CEA502040EA51207F3A57
:40280000C2BFD2F1FF0340EAC250704740F400004FF00003013A5DDC12F1190FDCBF00F000407047C2F10002410021FA02F1C2F1200200FA02FC5FEA310040F1000053EA0F
:402840004C0308BF20EADC70704792F0000F00F0004C02BF400010F4000F013AF9D040EA0C0093F0000F01F0004C02BF490011F4000F013BF9D041EA0C018FE70CEAD15360
:4028800092EA0C0F18BF93EA0C0F0AD030F0004C18BF31F0004CD8D180EA010000F00040704790F0000F17BF90F0004F084691F0000F91F0004F14D092EA0C0F01D142021A
:4028C0000FD193EA0C0F03D14B0218BF084608D180EA010000F0004040F0FE4040F40000704740F0FE4040F4400070474FF0FF0C1CEAD0521EBF1CEAD15392EA0C0F93EA27
:402900000C0F69D0A2EB030280EA010C49024FEA402037D04FF0805343EA111143EA10130CF000408B4238BF5B0042F17D024FF4000C8B4224BF5B1A40EA0C00B3EB510FE9
:4029400024BFA3EB510340EA5C00B3EB910F24BFA3EB910340EA9C00B3EBD10F24BFA3EBD10340EADC001B0118BF5FEA1C1CE0D1FD2A3FF650AF8B4240EBC25008BF20F0D9
:40298000010070470CF0004C4CEA50207F32C2BFD2F1FF0340EAC250704740F400004FF00003013A37E792F0000F00F0004C02BF400010F4000F013AF9D040EA0C0093F01A
:4029C000000F01F0004C02BF490011F4000F013BF9D041EA0C0195E70CEAD15392EA0C0F08D142027FF47DAF93EA0C0F7FF470AF084676E793EA0C0F04D14B023FF44CAF8A
:402A000008466EE730F0004C18BF31F0004CCAD130F000427FF45CAF31F000437FF43CAF5FE700BF4FF0FF3C06E000BF4FF0010C02E000BF4FF0010C4DF804CD4FEA400218
:402A40004FEA41037FEA226C18BF7FEA236C11D001B052EA530C18BF90EA010F58BFB2EB030088BFC81738BF6FEAE17018BF40F0010070477FEA226C02D15FEA402C05D1F3
:402A80007FEA236CE4D15FEA412CE1D05DF8040B704700BF844608466146FFE70FB5FFF7C9FF002848BF10F1000F0FBD4DF808EDFFF7F4FF0CBF012000205DF808FB00BFB0
:402AC0004DF808EDFFF7EAFF34BF012000205DF808FB00BF4DF808EDFFF7E0FF94BF012000205DF808FB00BF4DF808EDFFF7D2FF94BF012000205DF808FB00BF4DF808EDD2
:402B0000FFF7C8FF34BF012000205DF808FB00BF4FEA40024FEA41037FEA226C02D15FEA402C08D17FEA236C02D15FEA412C02D14FF0000070474FF001007047014B186830
:402B4000704700BF5881FF1F0E4B70B51E460E4C0025E41AA410A54204D056F8253098470135F8E702F072FC084B094C1E46E41AA4100025A54204D056F8253098470135CD
:402B8000F8E770BD5854000058540000585400006054000010B5431E0A44914204D011F8014B03F8014FF8E710BD03460244934202D003F8011BFAE770472DE9F04788B080
:402BC000149F002B1E461299B8BF03F1004327F02007B6BF1E4600232D23462F1446109DDDF84CA00B7003D0452F03D1013501E0032300E0022307AA049206AA03928DE89A
:402C000028042246334600F003FD472F804602D1119BDB0728D5462F08EB050911D198F80030302B0AD10022002320463146FFF769FC18B9C5F10105CAF80050DAF8003091
:402C400099440022002320463146FFF75BFC08B9302202E0CDF81C9006E0079B994503D9591C07911A70F8E74046079B159AC8EB0303136008B0BDE8F087034673B5002979
:402C8000B8BF494203F8022BB4BF2D222B22092942701ADD0DF1070216460A2591FBF5F405FB1411092C01F1300102F8011D2146F4DC3031541E02F8011CB4421A460AD211
:402CC00014F8012B03F8012BF7E71A463024214402F8024B5970101A02B070BD2DE9F04F91B00C46DDF8688016461F46054601F027FA03681846099300F0F4FB00230E939A
:402D0000D8F800300A90073323F0070303F1080294F81890D4F800B0C8F80020D3E90023C4E91223D4F84CA0D4F848802AF000430B934FF0FF32A74B40460B9902F066F92F
:402D4000A0B94FF0FF32A34B40460B99FFF7EEFB60B90022002340465146FFF7DDFB10B12D2384F843309C4B9C4A0AE0424653464046514602F04AF9002800F09281984B12
:402D8000984AB9F1470F8CBF90469846032323612BF0040323604FF0000A3DE0B9F1670F00F08A81B9F1470F00F0868123600193636800210DF133020590029200934246F1
:402DC00053460691CDF81090CDF80CE02846FFF7F4FE09F0DF03472B804600F08481B9F1650F0D9900F28D8101394A4604F150000D91FFF742FF0E9A82468318012A2361CD
:402E000000F37C812268D10700F178819DF8333013B12D2384F84330009733460FAA2146284600F09FF9013002D14FF0FF3096E123685A0501D4236965E0B9F1650F40F26C
:402E4000D580D4E9120100220023FFF75BFB78B30123654A31462846B8470130E5D00E9B0D9A9A420BDB2368D80708D423689B0740F111814FF0000804F1190906E10A9BA2
:402E8000099A31462846B8470130CED04FF0000804F11A090E9B013B9845E7DA01234A4631462846B8470130BFD008F10108F1E70D9B002B29DC01234B4A31462846B84733
:402EC0000130B2D00D9B23B90E9B13B92368D907CCD50A9B099A31462846B8470130A4D04FF0000904F11A0A0D9B5B42994509DA0123524631462846B847013095D009F1B2
:402F00000109F1E70E9B4246A7E00E9AA36D9A42A8BF1A46002A914606DC4FF0000A29EAE97904F11A0B11E01346314642462846B8470130F1D178E701235A463146284630
:402F4000B84701303FF471AF0AF1010AA36DC9EB03029245F0DB08EB03090D9A0E9B9A420FDB2368DA070CD40E9B0D9A9844C9EB08089B1A9845A8BF9846B8F1000F08DC99
:402F80000FE00A9B099A31462846B8470130EBD14BE743464A4631462846B84701303FF444AF4FF0000928EAE87804F11A0A09E00123524631462846B84701303FF435AFDF
:402FC00009F101090D9A0E9B9B1AC8EB03039945EEDB4BE7FFFFEF7FE8520000EC520000F0520000F4520000F85200000E9A012A01DCDB0738D50123424631462846B84751
:4030000001303FF412AF0A9B099A31462846B84701303FF40AAFD4E9120100220023FFF771FA20B14FF0000804F11A090EE00E9B08F10102013B19E001234A46314628461B
:40304000B84701303FF4F1AE08F101080E9B013B9845F1DB534604F1500231462846B84701307FF403AFE0E64246012331462846B8470130EED1D8E601234A463146284607
:40308000B84701303FF4D1AE08F10108E3680F9A9B1A9845F0DBE0680F9B9842B8BF18465DE062680EA8531C0DF1340E4BF480637FF474AE062201E012B90122626075E603
:4030C000002106910DF133018DE80C00236005904246CDF81090CDF80CE0029153462846FFF76BFD80460D9BD81C02DB626893421DDDA9F102095FFA89F970E60133236151
:4031000084E6B9F1660F14D10029636807DD216113B92268D2071DD501330B4419E013B92268D00701D5023313E0012311E04FF067090D9B0E9A934205DB22682361D10750
:4031400008D5013305E0002BD4BFC3F102030123134423610D9B4FF0000AA36556E611B0BDE8F08F2DE9F04791461F460A698B6806469342B8BF1346C9F8003091F843200C
:403180000C46DDF8208012B10133C9F800302368990642BFD9F800300233C9F80030256815F0060510D104F1190A07E00123524639463046C04701301AD00135E368D9F86C
:4031C00000209B1A9D42F1DB94F843302268003318BF012392060FD5E118302081F843005A1C94F845102244023382F8431003E04FF0FF30BDE8F08704F1430239463046BC
:40320000C0470130F4D02268D9F80050E36802F00602042A08BF5D1B2269A3680CBF25EAE57500259342C4BF9B1AED184FF000091A344D4509D00123224639463046C047AB
:403240000130D5D009F10109F3E70020BDE8F0872DE9F04317460A7E85B06E2A984606460C460C9B01F1430E00F0AE8011D8632A22D009D8002A00F0BB80582A40F0CA8045
:4032800081F84520834955E0642A1ED0692A1CD0C0E0732A00F0B08009D86F2A2ED0702A40F0B8800A6842F020020A603EE0752A24D0782A3AD0ADE01A6801F14205111D5A
:4032C0001960136884F84230A8E021681A6811F0800F02D0111D196008E011F0400F02F10401196002D0B2F9003000E01368002B3CDA2D225B4284F8432037E021681A6871
:4033000011F0800F02D0111D196007E011F0400F02F10401196001D0138800E01368227E5C496F2A14BF0A2208221BE078225A4984F845202268186812F0800F00F1040560
:403340001D6003D1550601D5038800E00368D00744BF42F0200222601BB9226822F0200222601022002084F8430001E049490A226568002DA56008DB206820F00400206083
:403380002BB9002D7DD175460CE0002B79D07546B3FBF2F002FB1033CB5C05F8013D03460028F5D1082A0BD12368DA0708D5236962689A42DEBF302305F8013C05F1FF3592
:4033C000C5EB0E0323612EE008681A6810F0800F496903D0101D1860136808E010F0400F02F104001860136801D0198000E0196000232361754616E01A68111D1960156872
:4034000000216268284600F0A7FE08B1401B6060636804E004F1420584F8422001232361002384F84330CDF800803B4603AA21463046FFF797FE013002D14FF0FF3026E0F4
:4034400023692A4639463046C0470130F5D023689B0710D5002504F1190907E001234A4639463046C0470130E7D00135E368039A9B1A9D42F2DBE068039B9842B8BF18467D
:4034800005E00B7804F1420584F842308AE705B0BDE8F083FA5200000B5300000EB400B54FF402719CB0ADF814106FF00041049107914FF6FF711DAB02900690084853F843
:4034C000042BADF81610006802A9019301F03AFA029B00221A701CB05DF804EB03B070475881FF1F034613F8012B002AFBD1181A013870472DE9F74F03690C6980469C42D3
:403500007FDC013C01F114074FEA840E00F1140606EB0E0357F82450019356F824300135B3FBF5F507EB0E09C5B34FF0000A3846B446D34650F8043B9AB205FB02A21B0C4E
:403540004FEA124A05FB03A392B2C2EB0B0BBCF800204FEA134A5A441FFA83FBDCF800308145CBEB134303EB224392B242EA03424FEA234B4CF8042BDCD256F80E306BB914
:40358000019B043B9E421A4602D3C8F8104005E01268043B002AF8D1013CF3E7404600F0F6FF00282BDB304601354FF0000E57F8042B036891B2C1EB0E0E120C99B27144BF
:4035C000C2EB134303EB214389B24FEA234EB94541EA034340F8043BE9D256F8242006EB840362B9043B9E421A4602D3C8F8104005E01268043B002AF8D1013CF3E7284651
:4036000000E0002003B0BDE8F08F0000000000002DE9F04F456A95B08246219CCDE9022345B9102000F090FDCAF82400456085600560C560DAF82430196859B15A680123CE
:4036400093404A608B60504600F0C9FDDAF8243000221A60039BA04A002BBDBF01232360039B0023BCBF23F000430393DDF80C80A8BF236028F000431B0D1B0593421DD125
:4036800042F20F73209A1360029B43B9934A944BC8F31300002814BF1846104600E09048229B002B00F04685C37813B100F1080300E0C31C229A136000F03CBDDDE902451B
:4036C0000022002320462946FEF71CFF074658B1209A01231360229B002B00F01E8581481860013800F026BD12AB019313AB009322462B46504600F0C5FFC8F30A560490BD
:4037000056B1C5F3130343F07F51204641F44011A6F2FF3611971DE0139B129E1E4406F23243202B0ADD029A06F21240C3F1400322FA00F008FA03F3184304E0C3F1200000
:40374000029B03FA00F0FEF711FE0123A1F1F871013E11930022644BFEF7CAFC58A3D3E9002301F041FA58A3D3E90023FEF7C2FC044630460D46FEF709FE55A3D3E90023B4
:4037800001F032FA02460B4620462946FEF7B2FC04460D4601F050FC00228346002320462946FEF7B9FE58B15846FEF7EFFD02460B4620462946FEF7A5FE08B90BF1FF3BED
:4037C000BBF1160F0DD8DDE90223484901EBCB01D1E90001FEF7BEFE30B10BF1FF3B002300E00123109300E01090129B9E1B731E079343BFC3F10008002307934FF00008BF
:40380000BBF1000F06DB079BCDF82CB05B440793002705E00023CBEB0808CBF100070B931E9B092B28D8052BC4BF043B1E931E9BC8BF0025A3F10203D8BF0125032B20D8A9
:40384000DFE803F0060E0204012302E0012308E000230A931F9B002B1DDD9946059321E000230A931F9B0BEB030909F10103012B0593B8BF012315E0012500231E930A95E4
:4038800001E001230A934FF0FF390022CDF8149012231F9206E04FF001094B46CDF81490CDF87C90DAF8244000226260042101F114029A421CD86268490001326260F6E788
:4038C00061436F63A787D23FB3C8608B288AC63FFB799F501344D33F0000F07F1C53000025530000F95200000000F83F385300006168504600F03EFCDAF8243020601B6815
:403900000693059B0E2B00F25B81002D00F05881DDE90234BBF1000FCDE90E3430DD9F4A0BF00F034FEA2B1502EBC303E80618CBCDE908340CD5DDE90E01994B05F00F050D
:40394000D3E9082301F07AFA0324CDE9020100E00224934E6DB1E90708D5DDE90801D6E9002301F041F9CDE9080101346D100836F0E7DDE90823DDE9020101F05FFA20E0E3
:40398000CBF1000505B3DDE90E01844B05F00F0203EBC203D3E9002301F026F9CDE902017F4E2D110023022455B1EA0705D5D6E9002301F019F9013401236D100836F3E791
:4039C0001BB1CDE9020100E00224109BE3B1DDE902560022734B28463146FEF79DFD98B1059B8BB1B9F1000F40F3E6800BF1FF330893314600226C4B284601F0F5F801347A
:403A0000CDE902014E4602E0059ECDF820B02046FEF7BCFCDDE9022301F0E6F8634B0022FEF768FBA1F1507304460C931D46D6B9DDE9020100225E4BFEF75AFB22460C9B0D
:403A4000CDE90201FEF786FD002840F03F820C99224601F10043DDE90201FEF75DFD002840F02B82A8E00A9A4C4B711E002A49D003EBC103D3E9002300204E4901F0DEF9F8
:403A800022462B46FEF734FBCDE90C01069CDDE9020101F0D1FA0546FEF778FC02460B46DDE90201FEF724FBDDE90C23303504F8015BCDE90201FEF72FFD002840F01D8371
:403AC000DDE9022300203749FEF712FBDDE90C23FEF722FD002840F0D180069BE31AB3426ADADDE90C0100222F4B01F07DF80022CDE90C01DDE902012B4B01F075F8CDE9A3
:403B00000201C4E703EBC1012246D1E900012B4601F06AF8069BCDE90C011D469C19DDE9020101F089FA0646FEF730FC02460B46DDE90201FEF7DCFA303605F8016BAC4230
:403B4000CDE902014FF0000222D11A4BDDE90C01FEF7D0FA02460B46DDE90201FEF7FAFC002840F08B80DDE90C2300201149FEF7BFFA02460B46DDE90201FEF7CDFCD8B1EB
:403B800014F8013C621E302B40F0B7821446F7E7054B01F029F8CDE90201C0E738530000105400000000F03F0000244000001C40000014400000E03FDDE90E34CDE9023439
:403BC000139B002B7CDBBBF10E0F79DCAB4B03EBCB03D3E900671F9B002B14DA059B002B11DC40F06C810022A54B3046394600F0FBFFDDE90223FEF7A3FC059D2E4600284C
:403C000040F05F8165E1069CDDE9028932463B464046494601F012F901F00EFA0546FEF7B5FB32463B4600F0DFFF0B46024649464046FEF75DFA05F1300E069B04F801EBCA
:403C4000C3EB040E059B73452DD102460B46FEF751FA8046894602460B4630463946FEF75BFC78B942464B4630463946FEF74AFC002800F04482EB0704D440E2DDF820B0FD
:403C800000E01C4614F8012C631E392A07D1069A9A42F6D1069930220BF1010B0A701A7801321A702BE20022764B00F09DFF0022002380468946FEF725FC0028A6D01EE2BE
:403CC0000A9A002A2BD01E9A012A0ADC119A12B103F2334302E0129BC3F136033D46444613E0059B5D1EAF42BFBF0B9BEA1B9B180B93059BB6BF2F467D1B0025002BA7BF7F
:403D00004446059BC3EB08040023079A01211A4450469844079200F001FB064602E03D4644460A9E5CB1079B002B08DDA342A8BF2346079AC3EB0808E41AD31A0793002FFA
:403D40001DDD0A9BABB18DB131462A46504600F07FFB049A01460646504600F0E8FA04990890504600F03BFA089B04937A1B06D000E03A460499504600F06AFB0490012157
:403D8000504600F0CBFA0B9B05465BB31A460146504600F05DFB1E9B0546012B18DC029B83B9039BC3F3130373B9039B23F000473F0D3F054FB1079B08F1010801330793A7
:403DC000012702E0002700E0029F0B9B73B100E000272B6905EB8303186900F052FAC0F1200004E01E9B012BD9DD0B9F0120079B184410F01F0008D0C0F12003042B02DD87
:403E0000C0F11C0002E006D018461C30079B8044034404440793B8F1000F05DD42460499504600F063FB0490079B002B05DD29461A46504600F05AFB0546109B23B32946F9
:403E4000049800F0A4FB00281EDA00230A220499504600F0DBF90A9B0BF1FF3B0490002B00F05F81314600230A22504600F0CEF9B9F1000F06463FDC3BE000BF38530000AF
:403E80000000144000002440059B002B2BDC1E9B022B28DDDDF81490B9F1000F11D129464B460522504600F0B1F901460546049800F06DFB00280CDC03E0354600E0002529
:403EC0002E461F9B069C6FEA030B09E03546DDF820B0069B069A5C1C312313700BF1010B05960026F7E00A9BDDF8149023B9069CB2E01E9B022BCFDC002C05DD31462246A6
:403F0000504600F0F3FA06469FB17168504600F031F90446326906F10C01023292000C30FEF738FE01222146504600F0DFFA059000E00596029B069F03F001030793294698
:403F40000498FFF7D7FA3146044600F13008049800F01DFB059A02902946504600F033FBC36802463BB901460A90049800F00FFB0A9A034600E00123114650460A9300F0B3
:403F80002EF90A9B53B91E9A42B9079A32B9B8F1390F2AD0029B002B1CDC1DE0029A002A04DB1BD11E9ACAB9079ABAB9002B13DD01220499504600F099FA2946049000F07B
:403FC000E6FA002803DC07D118F0010F04D0B8F1390F0AD004F131087C1C0CE0002B07F101040BDDB8F1390F03D139233B70013756E008F1010887F800806CE0069B2746F4
:40400000E31A4B4504F8018C3BD000230A220499504600F0FBF8059B04909E424FF00A024FF000033146504604D100F0EFF80646059084E700F0EAF8002306460A22059949
:40404000504600F0E3F8059079E700230A220499504600F0DBF8049029460498FFF74AFA069B00F1300804F8018BE31A4B45ECDB069B0596B9F1010FACBF4B4401331F469D
:40408000002601220499504600F030FA2946049000F07DFA002803DC15D118F0010F12D03C4614F8013C621E392B09D1069B934204D10BF1010B3123069A02E01446F0E736
:4040C0000133137007E03C4614F8013C621E302B01D11446F8E72946504600F080F8059B6BB12EB19E4203D03146504600F077F80599504600F073F801E0DDF820B0049998
:40410000504600F06CF80023209A23700BF101031360229B1BB11C6001E008480AE0069808E0B9F1000F3FF7E2AE1E9B022B7FF7DEAEB1E615B0BDE8F08F00BFF85200001C
:40414000004870475C81FF1F024B0146186800F041BB00BF5881FF1F10B5C9B202449042034605D01C7801308C42F8D1184610BD002010BD70B5456A04460E463DB910200D
:40418000FFF7E2FF6062456085600560C560656AEB6843B1636ADB6853F8260078B1026843F8262017E021220421204600F0B8FA636AE860DB68002BECD1002070BD012191
:4041C00001FA06F56A1D9200204600F0A9FA0028F3D04660856000230361C36070BD70B5446A06460D463CB91020FFF7ADFF7062446084600460C4603DB1736A6A68DB686F
:4042000053F82210296043F8225070BD2DE9F04106460C460D691F4601F1140E0023DEF80000013381B202FB0171000C0F0C02FB007089B201EB00419D424FEA10474EF84A
:40424000041BECDCD7B1A3689D4212DB616830460131FFF78FFF8046226904F10C01023292000C30FEF796FC21463046FFF7B7FF444604EB850301355F6125612046BDE816
:40428000F081030C1B0413B90004102300E0002310F07F4F04BF0002083310F0704F04BF0001043310F0404F04BF80000233002803DB420003D5581C70471846704720202A
:4042C0007047036813F007020BD0D90722D49A074BBF5B089B08036003604CBF01200220704799B209B91B0C102213F0FF0F04BF1B0A0832190704BF1B090432990704BF2A
:404300009B080232D90702D45B0805D00132036010467047002070472020704710B50C460121FFF727FF01224461026110BD2DE9F74F14460A69236988469A42BEBF0B46CD
:40434000A0461C46D8F81070D4F81090D8F80830D8F8041007EB09069E42C8BF0131FFF709FF00F114052B4605EB860C0022634502D243F8042BFAE704F1140208F11401B6
:4043800002EB890301EB87070093009B0192934257D9B2F800B0BBF1000F23D08946AE464FF0000859F8044BBEF800A0A3B20BFB03A34FEA144ADEF8004043444FEA144872
:4043C0000BFB0A84F24604EB13449BB243EA04434F454FEA14484AF8043B01D9D646E1E7CEF80480019B0432B3F802A0BAF1000F21D02C4689462B684FF00008B9F800E0C2
:40440000B4F802B09BB20AFB0EBEA346F04443EA08434BF8043B59F8043BB4F804E01B0C0AFB03E34F4503EB18434FEA134801D95C46E3E763600435A7E75CF8043D13B915
:40444000013E002EF9DC066103B0BDE8F08F00002DE9F843154612F0030206460F4607D0214C013A002354F82220FFF7CFFE0746AD1036D0746A3CB91020FFF765FE706237
:40448000446084600460C460D6F82480D8F808404CB940F271213046FFF740FF04460023C8F8080003604FF00008EB070AD5394622463046FFF73BFF814639463046FFF7FF
:4044C0008EFE4F466D100CD0206808B10446ECE7224621463046FFF72AFF2060C0F80080F4E73846BDE8F883005400002DE9F0470C460746914626694FEA621A56444968A9
:40450000A368751CAB4202DA01315B00FAE73846FFF730FE002380461A4600F11401534503DA41F823200133F9E72AEAEA73206901EB830319F01F0904F1140101EB800E91
:4045400014D0C9F1200C002208689A4600FA09F0024343F8042B51F8042B8E4522FA0CF2F2D8CAF8042042B1B51C06E0043B51F8042B8E4543F8042FF9D8013D3846C8F859
:4045800010502146FFF72BFE4046BDE8F08703690A6910B59B1A11D192001430143183180A4453F8044D52F8041D8C4202D007D3012010BD9842F4D3002010BD184610BD0C
:4045C0004FF0FF3010BD2DE9F8430C460746114620461546FFF7DBFF061E08D131463846FFF7C8FD012303614661BDE8F883BCBF23462C4638466168BABF1D4601260026E6
:40460000FFF7B8FD2B69C660266905F1140904F1140101EB860709EB830800F114054FF0000C51F8042B59F8044B93B29C44A3B2240CC3EB0C03C4EB124202EB23429BB2FB
:404640004FEA224CC84543EA02428E4645F8042BE7D8BE450ED25EF8041B8AB26244131403EB114392B242EA03424FEA234C45F8042BEEE755F8043D0BB9013EFAE70661FC
:40468000BDE8F8832DE9F3411C4601219046089E099DFFF76FFDC4F31302C4F30A5407460CB142F480120192B8F1000F19D002A840F8088DFFF705FE009B48B1019AC0F151
:4046C000200102FA01F10B43C2407B61019200E07B61019B002B14BF02210121BB61396107E001A8FFF7EDFD019B01217B613961203034B1A4F2334404443460C0F13500F3
:4047000009E0A0F2324007EB810330601869FFF7B8FDC0EB41102860384602B0BDE8F08138B502FB01F4214600F054F8054618B122460021FEF739FA284638BD38B50546AE
:40474000002944D051F8043C0C1F002BB8BFE41800F017FA1E4A1368114613B96360146030E0A3420DD92268A018834201BF18685B681218226063600C6023E0A24203D8EA
:4047800013465A68002AF9D118681918A1420BD12168014458188242196013D110685268014419605A600DE002D90C232B6009E021686018824201BF1068526809182160AD
:4047C00062605C602846BDE8384000F0DBB938BDFC83FF1F70B5CD1C25F0030508350C2D38BF0C25002D064601DBA94202D90C23336046E000F0C5F9234B1C681A46214667
:40480000A1B10B685B1B0ED40B2B03D90B60CC18CD501EE08C420BBF63684B681360636018BF0C4615E00C464968E9E7174C23681BB9304600F07AF920602946304600F0B2
:4048400075F9431C18D0C41C24F00304A0420DD12560304600F096F904F10B00231D20F00700C31A0ED05A42E25070BD211A304600F05CF90130EBD10C233360304600F036
:4048800081F9002070BD00BFFC83FF1FF883FF1F2DE9F0478E6882469E420C46914698463ED88A8912F4906F3AD02568096902236F1A656905EB450595FBF3F57B1C4344C7
:4048C0009D4238BF1D4653050FD52946FFF782FF064698B13A462169FEF75CF9A38923F4906343F08003A38113E02A4600F04BF9064670B921695046FFF720FF0C23CAF832
:404900000030A3894FF0FF3043F04003A381BDE8F08726613E44266046466561ED1BA560464528BF464649463246206800F00EF9A36800209B1BA36023681E442660BDE889
:40494000F08700002DE9F04F9DB003938B8980461C060D4616460DD50B695BB94021FFF739FF2860286118B90C23C8F80030CDE040236B610023099320238DF82930DFF850
:404980009CB130238DF82A3037463C4614F8013B1BB9B7EB060910D003E0252BF9D02746F3E74B46324629464046FFF771FF013000F0A780099B4B4409933B78002B00F040
:4049C000A08000234FF0FF3204930793059206938DF853301A930126052221784E48FFF7BBFB671C049B38B14B4A3C46801A06FA00F018430490EFE7D90644BF20228DF8AB
:404A000053201A0744BF2B228DF8532022782A2A03D0079A00210A200BE0039A111D12680391002A10DA524243F00200079204900BE027463B780134303B092B03D800FB6A
:404A400002320121F5E701B107923B782E2B1ED17B782A2B0AD1039B02371A1D1B680392002BB8BF4FF0FF33059310E0002319460593781C0A2407463A780130303A092A31
:404A800003D804FB01210123F5E703B10591032239782248FFF760FB40B14023CBEB000003FA00F0049B013718430490397806221B487E1C8DF82810FFF74EFB88B1194BF3
:404AC00033B9039B073323F007030833039314E003AB00932A46144B04A94046FEF7FEF807E003AB00932A460F4B04A94046FEF7AFFBB0F1FF3F824603D0099B53440993CD
:404B000042E7AB895B0601D4099801E04FF0FF301DB0BDE8F08F00BF385400003E54000042540000DD2C00009148000038B5064C0023054608462360FCF77EF8431C02D193
:404B4000236803B12B6038BD2484FF1F884210B501EB020301D8421E0BE09842FBD28118D21AD34204D013F8014D01F8014DF8E710BD994204D011F8014B02F8014FF8E77E
:404B800010BD70477047F8B5074615460E4621B91146BDE8F840FFF71DBE1AB9FFF7CEFD2846F8BD00F015F885420ED929463846FFF710FE044650B131462A46FDF7EAFFD0
:404BC00031463846FFF7BAFD01E03046F8BD2046F8BD51F8040C0028BEBF091851F8043CC01804387047000070B54FF0FF0C4CF4E06C1CEA11541DBF1CEA135594EA0C0F30
:404C000095EA0C0F00F0DEF82C4481EA030621EA4C5123EA4C5350EA013518BF52EA033541F4801143F4801338D0A0FB02CE4FF00005E1FB02E506F00042E0FB03E54FF0DD
:404C40000006E1FB03569CF0000F18BF4EF0010EA4F1FF04B6F5007F64F5407404D25FEA4E0E6D4146EB060642EAC62141EA55514FEAC52040EA5E504FEACE2EB4F1FD0C48
:404C800088BFBCF5E06F1ED8BEF1004F08BF5FEA500E50F1000041EB045170BD06F0004646EA010140EA020081EA0301B4EB5C04C2BFD4EB0C0541EA045170BD41F4801190
:404CC0004FF0000E013C00F3AB8014F1360FDEBF002001F0004170BDC4F10004203C35DA0C341BDC04F11404C4F1200500FA05F320FA04F001FA05F240EA020001F0004213
:404D000021F0004110EBD37021FA04F642EB06015EEA430E08BF20EAD37070BDC4F10C04C4F1200500FA04F320FA05F001FA04F240EA020001F0004110EBD37041F1000161
:404D40005EEA430E08BF20EAD37070BDC4F1200500FA05F24EEA020E20FA04F301FA05F243EA020321FA04F001F0004121FA04F220EA020000EBD3705EEA430E08BF20EA1B
:404D8000D37070BD94F0000F0FD101F00046400041EB010111F4801F08BF013CF7D041EA060195F0000F18BF704703F00046520043EB030313F4801F08BF013DF7D043EA4A
:404DC0000603704794EA0C0F0CEA135518BF95EA0C0F0CD050EA410618BF52EA4306D1D181EA030101F000414FF0000070BD50EA410606BF1046194652EA430619D094EA3C
:404E00000C0F02D150EA013613D195EA0C0F05D152EA03361CBF104619460AD181EA030101F0004141F0FE4141F470014FF0000070BD41F0FE4141F4780170BD70B54FF00D
:404E4000FF0C4CF4E06C1CEA11541DBF1CEA135594EA0C0F95EA0C0F00F0A7F8A4EB050481EA030E52EA03354FEA013100F088804FEA03334FF0805545EA131343EA1263BF
:404E80004FEA022245EA111545EA10654FEA00260EF000419D4208BF964244F1FD0404F5407402D25B084FEA3202B61A65EB03055B084FEA32024FF480104FF4002CB6EB1E
:404EC000020E75EB030E22BFB61A754640EA0C005B084FEA3202B6EB020E75EB030E22BFB61A754640EA5C005B084FEA3202B6EB020E75EB030E22BFB61A754640EA9C0087
:404F00005B084FEA3202B6EB020E75EB030E22BFB61A754640EADC0055EA060E18D04FEA051545EA16754FEA06164FEAC30343EA52734FEAC2025FEA1C1CC0D111F4801FCC
:404F40000BD141EA00014FF000004FF0004CB6E711F4801F04BF01430020B4F1FD0C88BFBCF5E06F3FF6AFAEB5EB030C04BFB6EB020C5FEA500C50F1000041EB045170BDBB
:404F80000EF0004E4EEA113114EB5C04C2BFD4EB0C0541EA045170BD41F480114FF0000E013C90E645EA060E8DE60CEA135594EA0C0F08BF95EA0C0F3FF43BAF94EA0C0F44
:404FC0000AD150EA01347FF434AF95EA0C0F7FF425AF104619462CE795EA0C0F06D152EA03353FF4FDAE1046194622E750EA410618BF52EA43067FF4C5AE50EA41047FF432
:405000000DAF52EA43057FF4EBAE12E74FEA410C7FEA6C5C02D150EA013C0AD14FEA430C7FEA6C5C02D152EA033C02D14FF0000070474FF0010070474FEA410212F50012F3
:4050400015D211D56FF47873B3EB625212D94FEAC12343F0004343EA505311F0004F23FA02F018BF404270474FF00000704750EA013005D111F0004008BF6FF00040704771
:405080004FF00000704700BF000000000000000000070E091C1B1215383F363124232A2D70777E796C6B6265484F464154535A5DE0E7EEE9FCFBF2F5D8DFD6D1C4C3CACD53
:4050C00090979E998C8B8285A8AFA6A1B4B3BABDC7C0C9CEDBDCD5D2FFF8F1F6E3E4EDEAB7B0B9BEABACA5A28F88818693949D9A2720292E3B3C35321F18111603040D0AD0
:405100005750595E4B4C45426F68616673747D7A898E878095929B9CB1B6BFB8ADAAA3A4F9FEF7F0E5E2EBECC1C6CFC8DDDAD3D4696E676075727B7C51565F584D4A43448F
:40514000191E171005020B0C21262F283D3A33344E49404752555C5B7671787F6A6D64633E39303722252C2B0601080F1A1D1413AEA9A0A7B2B5BCBB9691989F8A8D84834F
:40518000DED9D0D7C2C5CCCBE6E1E8EFFAFDF4F3466C6F773A202530325820253032580D0A00000050686173653A202530325820253032580D0A00005072657620416D70F5
:4051C0003A202530325820253032580D0A000000416D703A202530325820253032580D0A0000000048656C6C6F20576F726C64210D0A0000466C6F772053656E736F72204D
:40520000496E697469616C697A6174696F6E204572726F720D0A0000496E697469616C697A6174696F6E2053746174757320436865636B204661696C7572650D0A000000FC
:40524000466C6F772052656164696E67204572726F722C2074696D656F757420720D0A0050686173652052656164696E67204572726F722C2074696D656F75740D0A000037
:40528000416D706C69747564652052656164696E67204572726F722C2074696D656F75740D0A00003D5100400D510040201000003C5100400D51004010200000004F004015
:4052C0000C0040510040300000000140001000140140000800400140000A004C014000020050014020004300494E4600696E66004E414E006E616E00300030313233343552
:4053000036373839414243444546003031323334353637383961626364656600496E66696E697479004E614E00504F534958002E0000000000000000000000000000F03F61
:40534000000000000000244000000000000059400000000000408F40000000000088C34000000000006AF8400000000080842E4100000000D01263410000000084D79741C8
:405380000000000065CDCD41000000205FA00242000000E876483742000000A2941A6D42000040E59C30A2420000901EC4BCD64200003426F56B0C430080E03779C34143B1
:4053C00000A0D8855734764300C84E676DC1AB43003D9160E458E143408CB5781DAF154450EFE2D6E41A4B4492D54D06CFF08044F64AE1C7022DB544B49DD9794378EA44CA
:4054000005000000190000007D000000000000000080E03779C34143176E05B5B5B89346F5F93FE9034F384D321D30F94877825A3CBF737FDD4F1575232D302B2000686CB3
:405440004C0065666745464700000000F8B500BFF8BC08BC9E4670474D000000B50C0000F8B500BFF8BC08BC9E4670472900000080540000C880FF1FD0000000900200000B
:40548000000000000000C07F2884FF1FFFFFFFFFFF0000007F800000030000000000E02EC05D00001800000000366E010100000000000000000000000000000000000000FD
:4054C00000000000000000000000000000000000E6520000000000000000000000000000000000000000000000000000000000000000000000000000000000000000000074
:4055000000000000000000000000000000000000F880FF1F2F5300003D5400003D5400003D5400003D5400003D5400003D5400003D5400003D5400003D540000FFFFFFFF3E
:40554000FFFFFFFFFFFFFFFFFFFF00000000000000000000000000000000000000000000000000000000000000000000000000000000000000000000000000000000000035
:4055800000000000000000000000000000000000000000000000000000000000000000000000000000000000000000000000000000000000000000000000000000000000EB
:4055C00000000000000000000000000000000000000000000000000000000000000000000000000000000000000000000000000000000000000000000000000000000000AB
:40560000000000000000000000000000000000000000000000000000000000000000000000000000000000000000000000000000000000000000000000000000000000006A
:40564000000000000000000000000000000000000000000000000000000000000000000000000000000000000000000000000000000000000000000000000000000000002A
:020000040003F7
:0200000480007A
:40000000024F004007520040015B0040076400400165004004000140040101403E02014038030140480401404A050140360601405107014051080140490901405C0A01401A
:40004000490B0140440C01404D0D0140400E01402E0F014033140140501501404116014052170140421801404B190140291A01405C1B014008400140094101400742014028
:400080000343014002440140034501400D46014007470140084801400A4901400A4C0140074D01400A5001400251014001400A4B0080088018886080618078207908278443
:4000C000830F840F860F88388B768D388E768B0339823F4159045F01200121028610E202080112011C012201260128012C01360152035302580459045B045C335D305F012A
:400100008110851C872289148D409403970398039C049D099F10A402A530A70CA92CAA01AB11B204B31FB403B760B820B980BE14C002C740C9FFCA0FCBFFCC40CD20CEF02B
:40014000CF05D008D401D804D904DA04DB04DC13DD51DF01E040E1A8E240E3200010010902910350041008140A050B420C400F401040118012041304148016201754180437
:4001800019041F80218828142C402E202F2031883480350839223A803B043C103D01400451015206582059045A816E106F0282848A808B029A10A902B401C04FC29FC4FFA6
:4001C000CAE6CC5ACEAFD004D60FE440030104100620070108100A200E200F0110101220140315011604180319011A0C1E0820032204240A260428402E05303031013240AF
:40020000340F38023A203E053F015401580459045B045C315D105F01812083058503862C8704881189138A268B0C8E08942C9513961397049811990A9A0E9B149E13AA10E3
:40024000AB08B010B20FB330B42AB50FB908BA28BB20BE01D804D904DC22DF0100E00104048006200718080409810A040E280F02114112041324160819041A0C1B021E68B5
:4002800023802514271828522A102B202E20311032853614382239413A803B043D203E083F0259045A205B817C807D807E0180128342850488408C958E1192109410952055
:4002C000968497469A909CC49E019F04A188A202A540A680A720B020B780C0E7C2EFC44FCA2FCC6FCEEFD60FE004E602EA40EE0501100509071009100B0C150C1711191C87
:400300001B021F03211429202C01311F352036013E403F105401580459045B045C235D205F0182208401860E87018A208E209203944098019A169B019E1CA220A620A81C72
:40034000AA03AE08B020B101B20FB41AB640BA28BE41BF01D804D904DC31DF0100600210038004280602070409880A040B400C11111612021408164017A019501A801B040B
:400380001E022080278828182C802E20302131013284361437803820390A3A823B403D29420243405E415F18630C640465106618671079107B0484408E018F0190409104B4
:4003C000925494AA9520968097069A809C549D109E0C9F44A010A19DA216A680A701A901AC10AF21B010B340C0EFC25FC4DFCAA6CC7FCEE7D6F0E002E804EA08EE01006414
:40040000029203E30438050F060707F009F30B0C0C490DC30EB610071238130C146D15081692186D19041A921CDB1D0C1E241FF325FF29822D4130C031C0323F332C350F38
:40044000371039803A203B284036410245CB470E481349FF4AFF4BFF4EF04F44500C5418580459045A045B045C555D555F0166C06A406B0281928349891C8BE38D6D8F924F
:4004800095B6974999B69B49A124A3DBA5E0A71CAD03AF1CB3FFBF04D804D904DC03DF010160028004020504060208200A400C290D40100213021D261F18201024282514A7
:4004C00026012701280129052A022C012F183028311035013754388239A03C803D2A4410450346084D084F2257045E02640267048704884089108F04908293809540964417
:4005000098909A489B149D289E209F02A028A220A310A701AB08AE08C0BBC2FAC409CA7BCCF6CEFDD060D220D680D830E010E240E8040103031C05B60604074909B60B49F1
:400540000D920E040F4910011202140115E01602171C191C1BE31D6D1F92200324012602280129242A022BDB31FF340436033E103F01580459045C025F0182808560878FCF
:40058000888A89E68A558B118E8893019420964598039A5C9B189C029E04A180A304A5A0A803A980AAD4AB63AD48AF86B030B20FB307B4C9B5F8B802BA28BB08C001C54041
:4005C000C9FFCA0FCBFFCC40CD20CEF0CF05D008D602D712D804D904DA04DB04DC55DD55DF01E040E1A8E240E32000880460050208040B400C100F22108011101304160868
:40060000180419401C401F1A220124302638280429102D0A2F0A30803214361239993B443C103E0846014D02561057105E046C697640771478107B088201860887108A12BB
:400640008F40919992289380940495409642988099109D609E209F42A0C4A701AB80B313B510B701C0D5C2ECC44ECAF4CCAECE6FD010D640E010E620EA80EE0107080B105F
:400680001302140117041B011F04210127102A03310C32023303360137103F415608580F59045B045C935D905F0180218101838084638508887F89108C1C8E638F01900FCC
:4006C0009119927093649473957F960C98429B189D199E0C9F62A408A804A967AB18AE73AF46B060B180B20FB31FB41CB520B758B920BA08BB88D418D804D904DB04DC2283
:40070000DD20DF0101050280030A0A980B020E2010011214171019021A101B241E201F80200822402350244025802710288129402B842FB031103240330A340236883710A3
:40074000382839013A143B403C203D043F0459025D806004618064027F40800882808A028B408D8090289198922893049440954096D2973299109C089D609E229F42A0D03F
:40078000A208A308C00FC22FC447CACCCCFFCE6FD611D81CDE80E080E4C0E604EC10012503D8040105B5074809B50B480D900F4810011302140115E0171C1B011C021D6D1D
:4007C0001F902801291D2BE02C02300133FC3403350338203A083E01403541024206440445EC480349FF4AFF4BFF4C624DA04EF04F41500C56025713580459045A045B045E
:400800005C225D225F016640670269106A306B106D106E106F12D804D904DC33DF01000401080520062007020A900B020E400F02135016801740191A1B08221C23042808F8
:400840002D602E8030803215374239983B023E623F0240444210485049404B20590268806998701473408680C0E4C29DC493CA34CC9FCEBFD007D20CD6010F0114021E01DA
:40088000200232013602370138803E40580459045C335F018003840389038C0390019202950399029A03A301A402A601A803B001B103B202B902BF01C021C103C6EBC70C22
:4008C000C81CC9FFCAFFCBFFCEF0CF44D00CD804D904DA04DC33DD02DF01E6C0EA40EB020042054509800A500B040C020F041012124914101720180219041D0A2002228051
:400900002780281029402A012C122E022F08310132083348350136943708380839403B043D223E40451046024708548056285A405B4080018401854289088A408D048E10DA
:400940008F40904891409210981099019A039B209E289FC0A191A21CA480A680A824A945AD04B010B20DB308B440C0B9C25FC46FCAFBCCFBCEBAD070E40CE620EA0CEE04CC
:4009800008010C011001160120012401280136014001454049FF4A0F4BFF4C404D204EF04F055008580459045A045C335D025F01604061A8624063208001861087018C045D
:4009C00096249A089E01A008A602A802AB02B020B102B301B41FB820BE10C024C106C6B0C7CEC838C9FFCAFFCBFFCEF0CF44D00CD804D904DA04DC33DD01DF01E6C0EA40B3
:400A0000EB02004203580460082009850D010F201020110412C91340141016401720184819211A081B101F8022092320280429012B102C102D203010328835013688390676
:400A40003B403C023F404284478049104C404D015001511052045602570181808310842489408C108E018F809102921494AA9529960899509A809C109D019E6C9F60A110AD
:400A8000A214A480A680A701AC68B221B380C0CFC23FC47FCA67CCDECE9BD015D204E24EE408E601EA02004001800218034004A705400618078008390A820B020D100E01FA
:400AC0000F2011021286150818BF1B011C011F082040210424102501280829202B102CB92E042F043060329833FF3420361F38023A803E103F045401580459045B0F5C0558
:400B00005D305F0187188B208D10911095109902A110A305A704A910B101B30CB530B702BF44D804D904DC53DF01000801600468050108200A400DA2100212801640175408
:400B40001D011E16204021582304250429142A022C802D502E0830083101322035203684370138903B043C083E613F084401458046025C807F408104820A860187018E4122
:400B80008F4090B8938095609644988099149A409B149C239D219E209F42A008A122A220A402A680AF01B301C0F7C2DAC4F9CAF7CCF7CEFED610DE80E080E408E644EA80F1
:400BC000580459045C335F018B019701AA01B001B101BF01C064C102C205C403C5ECC803C9FFCAFFCBFFCC62CDA0CEF0CF41D00CD602D73DD804D904DA04DB0FDC33DD353C
:400C0000DF01E640E702E910EA30EB10ED10EE10EF12016005200620080409400A410C140E600F0A1012128015501D011E402740281029202D042E60300431013280352817
:400C4000368039403A203D403E103F0840024340452A4C044D094E025F2065026C806D906E087608770179047A107F4081028212868087018D208F2090089140921093808F
:400C8000951196419A209C029D209E089F01A002A12AA210A304A480A684A880A940AA04AD01B026B230B302B540C063C2FCC4CDCA76CC7BCE7CD0E0D230D620D880DE80D8
:400CC000E010E410E680E8E1EC8011081680338038083E80C430CC10CE605D028D0494089B04A104A780AB04D680EA805B049B04A804AB80B502D640EEA0A520A920E820EB
:400D00007C01DE018108B401EC080108181026084708570894109D08A810C008C608C801D001D40244088F08A208A708AB08D004E0082520530187808F01A520C820D48035
:400D4000E4101B805610668086108A80A780C640D440D680E2400B025F018301840888019C08A208C202D601E00174018A08A001A208AB01DE04E601002E0101082A0A0E2E
:400D80000C2C0E0C0F01102E1A0E1C280003100A8000000000000080B00000008000008080008000000000002800102020002008080000008000408B8B008000000000005C
:400DC00000020200000000008800000000000088B80000007C0018010001000000000000000000000000000000000000000000000000000000000000000000000000000091
:400E000000000000000000000000000000000000000000000000000000000000000000000000000000000000000000000000000000000000000000000000000000000000B2
:400E40000000000000000000000000000000000000000000000000000000000000000000000000000000000000000000000000000000000000000000000000000000000072
:400E80000000000000000000000000000000000000000000000000000000000000000000000000000000000000000000000000000000000000000000000000000000000032
:400EC00000000000000000000000000000000000000000000000000000000000000000000000000000000000000000000000000000000000000000000000000000000000F2
:0200000490006A
:0400000000004005B7
:0200000490105A
:04000000BC90ACAF55
:0200000490303A
:02000000BD4EF3
:0200000490402A
:4000000000000000000000000000000000000000000000000000000000000000000000000000000000000000000000000000000000000000000000000000000000000000C0
:400040000000000000000000000000000000000000000000000000000000000000000000000000000000000000000000000000000000000000000000000000000000000080
:400080000000000000000000000000000000000000000000000000000000000000000000000000000000000000000000000000000000000000000000000000000000000040
:4000C0000000000000000000000000000000000000000000000000000000000000000000000000000000000000000000000000000000000000000000000000000000000000
:0200000490501A
:0C00000000012E16106900012E3ACDB749
:00000001FF