:400000000080002011000000510800005108000008B5044B1A6803F53F5302331A6000F037FC00BFFA46004010B5054C237833B9044B13B10448AFF300800123237010BD92
:400040009081FF1F00000000984C0000084B10B51BB108490848AFF300800848036803B910BD074B002BFBD0BDE81040184700BF000000009481FF1F984C0000C880FF1FAA
:400080000000000010B500F079FD2C4A13889BB201339BB2138053889BB201339BB2538013889BB2052B10D109E0204600F0A8F900B2234B23F814000134A4B200E0002470
:4000C000012CF2D901221D4B1A711C4B1B889BB20A2B27D10020194B188000F03FFE68B900231AE0204600F045FE164B23F81400012001F0BBF80134A4B200E00024032C3B
:40010000F0D901220D4B5A7100F024FE0AE000210C4A22F8131001339BB2032BF7D9052001F0A4F8054B5B889BB2B3F5FA7F04D1024B00225A8001229A7110BDAC81FF1FCA
:40014000F883FF1FFC83FF1F82B002AB43F8040D1868086002B0704710B4084C235C4B40E05C002305E0D45C6040044C205C0133DBB28B42F7D310BC704700BFA04C000045
:400180002DE9F04107468846144605E0012001F0B9F8052001F06AF800F078FC0028F5D105E0012001F0AEF8052001F05FF800F047FC10F0020FF4D00D4D2F726C722246BE
:4001C000414605F10A0002F0DFFAA61C424621463846FFF7C1FF35442872002001F092F8E11CC9B2034800F03DFCBDE8F08100BFAC81FF1FB481FF1F2DE9F047A2B062B604
:4002000000F076FC00F0D0FB00F00CFC664800F089FC66480B2300F8083F012100F022FC00F084FD00F0D6F8614801F097F800F091FD01F0C7FB00F0E7FC01F04BFD10B1E5
:4002400001F00CF8F9E7594B5B7913F0FF0FF4D0564B1B7913F0FF0FEFD0544B00255D711D712C460A276EE02646DFF8648138F814301BB2009323464E4A402102A802F04C
:4002800007FF02A800F04EFC4B4800F04BFC38F8140000B200F07CFD8246444B9B7913F0FF0F25D0042C23D1404B00229A71D3F80C01002102F00AFAB8B94049504601F06E
:4002C00069FF3A4BD3F80C1102F014FA50B93B49504601F05DFF354BD3F80C1102F014FA10B902E0F32700E0F327304BC3F80CA1504601F06DFE8046894629A3D3E900237D
:4003000001F038FF28B92E49504602F0E9F910B902E0F22700E0F2272A4929445046FFF713FF0435EDB2CDE900893346264A402112A802F0ADFE12A800F0F4FB1E4800F0F1
:40034000F1FB0134E4B2032C8ED9002420E01F4B33F8140000B201F085FB064601F038FE0FA3D3E9002301F005FF28B91449304602F0B6F910B902E0F42700E0F4271149D7
:4003800029443046FFF7E0FE0435EDB20134E4B2012CDCD92A460B493846FFF7F1FE4CE76666663333330B40A04D0000AC81FF1F85000000B04D0000AC4D00009A99993ED4
:4003C000CDCCCCBDBC82FF1FD04D0000F883FF1FFC83FF1F08B501F0E1FA01F0F3FA00F0DDFC08BD10B5044601F0F4FAE0B200F0F1FC012000F03AFF01F0E4FA10BD00BF35
:4004000010B530B901F042FB84B20120FFF7EAFF05E001F03BFB84B20020FFF7E3FF204610BD00BFFEE700BFF0B40022174611E050F82760F3B226F0FF0608E001EB42051C
:4004400011F812406D78A5550132013BDBB2002BF4D101372A2FEBD9F0BC704708B50A46002102F09CF908BDF8B51D4B1B78DBB21C4E3478E4B21C4F3D78EDB203F0070189
:400480001A4A11701B090132137044F00303337045F003033B70CC22154B1A704023154A1370023213703022134B1A700123134A1370202212490A70C0201C3108700331B8
:4004C0000A7010210F4A1170033213700A2000F0E3FE3D70347044220B4B1A70F8BD00BFCF010049F8460040F94600406E5800400D51004001590040945A0040035B004099
:40050000045B0040585B00407658004008B502F03BF908BD38B50024384B1C80502202331A700C2202331A80182335490B7002310A80344A13700E21023211800232137078
:40054000172102321180023213701925023215800232137004222C492C48FFF7D7FF06222B4B1A705222A3F580731A70294B1B78DBB2294A13704FF4E162284B1A8041F22D
:400580005122023B1A800CE0254B1B7803F0010343EA440404F003044FF4F07001F0A4FB013D0DB1032CEFD115B90320FFF73AFF1C4A4FF4807313800723137000231A49FB
:4005C0000B704820023108701370053213700222164B1A7004220A331A70154A137843F03F031370013A137843F001031370013A137843F08003137038BD00BF804000401F
:40060000864000408A400040C00F004800410040004300400F010049A14600402242004025420040044000400640004001400040A2430040012807D8044B53F820201844D6
:40064000017A13780B431370704700BFE84D0000012808D8044B53F820201844017A137823EA010313707047E84D0000012808D8044B03EB8002D2681844017D13780B437E
:4006800013707047E84D0000012809D8054B03EB8002D2681844017D137823EA01031370704700BFE84D000038B572B64D4A137843F00403137000240BE04B4863001A19F7
:4006C000510001440A46898B9069FFF7C7FE0134E4B2082CF1D900240CE04348A20011194B000344B3F85820596D186DFFF70EFF0134E4B2012CF0D93C494FF09040FFF7CE
:4007000093FE0A243A4B1C7004213A48FFF7A6FE042239493948FFF7F9FE394A394B1A6002F1605203F520731A60A2F5880203F5C0731A6002F1814202F5802203F52073C7
:400740001A60A2F5040203F518631A602E4A137843F0020313701032137843F0020313702A4D2B7843F040032B70A2F58632513A137843F010031370224625492548FFF79D
:40078000C5FE224624492548FFF7C0FE224624492448FFF7BBFE224623492448FFF7B6FE082223492348FFF7B1FE082222492348FFF7ACFE224A137843F008031370214C3B
:4007C00061232370FFF7A6FE8123237001221E4B1A70FFF749FE0E2229461C48FFF796FE38BD00BFE8460040E84D0000AC0000488358004000760040C40F0048087600403C
:400800000404440C5808014003500140A0430040800F0048005100408C0F0048C0510040980F0048F0510040A40F004810510040B00F004822510040B80F004832510040D4
:40084000224300400048004004000840B043004008B501F06DFF03680C2B00D1FEE7FEE708B5094B1A681044084BC31A802B02DC054B186005E001F05BFF0C2303604FF00C
:40088000FF32104608BD00BFCC80FF1F2084FF1F08B5104E104D16E029686B68AC68002204E051F8040B43F8040B0432A242F8D1E868002203E0002143F8041B04328242C6
:4008C000F9D11035013E002EE6D101F037FFFFF793FCFEE701000000D04F000008B5114A114B1A60114A136843F40073136000230AE0032B03D80E4A52F8231000E00D4912
:400900000D4A42F8231001332F2BF2D90B4B1A780B4B1A70084A0B4B1A60FFF7C5FE00F0BBFB08BD0004FA050CED00E014ED00E000000000510800000080FF1FBC76004066
:40094000C080FF1F08ED00E07622074B1A700023064A13700E21A2F25F1211708F21103211705432137070478B6400408765004010B501F0C1F904460A4A137843F02003A8
:400980001370FC32137843F010031370FB3A137843F01003137000F031FA204601F0B0F910BD00BF9B64004008B5054B1B7823B9FFF7CAFF0122024B1A70FFF7D9FF08BDFB
:4009C000BB83FF1F7622074B1A700023064A13700E216C3A11708F211032117051321370704700BF886500408F64004010B501F083F904460A4A137843F020031370F93A25
:400A0000137843F0100313700B3A137843F01003137000F001FA204601F072F910BD00BF9865004008B5054B1B7823B9FFF7CAFF0122024B1A70FFF7D9FF08BDBD83FF1F2D
:400A4000014B1878704700BF64640040034B1B7813F0040FFAD1024B187070476464004044640040084B1B7833B97047305DFFF7EDFF0134E4B203E070B50D460646002450
:400A8000AC42F3D370BD00BFBD83FF1F074B1B78DBB213F0040F04D113F0020F03D000207047042070470120704700BF646400400E22054B1A708F2210331A70002203F204
:400AC0004D131A70704700BF2764004010B501F013F90446054A137843F01003137000F0A9F9204601F00CF910BD00BF9465004008B5054B1B7823B9FFF7DAFF0122024BAE
:400B00001A70FFF7E3FF08BDBF83FF1F034B1B7813F0040FFAD1024B18707047646500404465004038B5074B1B782BB938BDFFF7EDFF0134A4B201E005460024285D0028D9
:400B4000F5D138BDBF83FF1F084A137843F0010313701032137843F00103137002F64D32137843F001031370704700BFA3430040014B1870704700BF034F0040014B18782C
:400B8000704700BF034F0040014B1880704700BF044F0040014B1880704700BF064F004008B5164A137803F0010313700232137803F0FC031370124B1A7802F0CF021A70BF
:400BC0001A7842F030021A701A7802F0F0021A701A7842F00F021A700A4A137843F00103137042F20F70FFF7CFFF42F20F70FFF7D1FF0820FFF7BCFF08BD00BF004F0040A1
:400C00000B4F0040014F004008B5054B1B7823B9FFF7C6FF0122024B1A70FFF795FF08BDC183FF1F10B541F6FF734FF480420121022000F0E7F9084C207041F6FF731A4634
:400C40000121082000F0FCF96070044800F016FA002000F019FA10BDC483FF1F990D000070B52C4C207800F04DFA607800F04AFA294B1B78FF2B03D100F0B2FA264B18701C
:400C8000254D287806230246082100F0C3FA214E341DA4B2224645F6A031287800F0CEFA2978307800F06EFA6B78FF2B02D100F097FA6870184D687807230246082100F04F
:400CC000A9FA164A92B22146687800F0B7FA114C6978607800F056FA0121207800F0F6F90121607800F0F2F901F006F80C4A137843F02003137001F003F80A4B1A7842F053
:400D000001021A701A7842F002021A700122064B1A6070BDC483FF1FD080FF1F0484FF1F9B6500407964004080E200E008B5074BDB6823B9FFF776FF0122044BDA6000F06C
:400D400023F9FFF78DFF024B1B7808BDC483FF1F6864004008B500F025F908BD044B1B7803F0FF020BB90028F8D01046704700BF68640040C0F10300034B33F91030034A12
:400D80001088181A00B270470484FF1F1484FF1F08B500F00FF908BD704700BF10B5002407E02046FFF754FC2046FFF76DFC0134E4B2012CF5D9FF22014B1A7010BD00BF2A
:400DC000D280FF1F10B50446FFF742FC2046FFF75BFC10BD10B50446074B1878FF2801D0FFF7F0FF2046FFF725FC2046FFF73EFC014B1C7010BD00BFD280FF1F054A137831
:400E000043F0200313701032137843F020031370704700BFA2430040054A137843F0040313701032137843F004031370704700BFA2430040054A137843F002031370103205
:400E4000137843F002031370704700BFA243004008B50A280FD00C2802D0082806D102E04FF4805209E04FF4807206E0002000F0F3F9002201E04FF480620021094B198089
:400E800042F2107303FB02F303F6C413064A82FB0302DB17C3EBE223044A1360044B198008BD00BF0C84FF1FAD8BDB681084FF1F1484FF1F10B500F01FFF0446184A137879
:400EC00043F0010313701032137843F00103137002F5AA520832137843F0030313701822104B1A70013B1A7842F040021A701A7802F0FC021A70C822053B1A700222A3F5D6
:400F000097530C3B1A70084A137843F0080313700A2000F0C1F9204600F0F2FE10BD00BFAB43004006590040275B004010B504460A280DD00C2802D0082804D101E0C22235
:400F400007E0422205E0002000F086F9C22200E08222034B1A702046FFF77AFF10BD00BF0259004008B5064A137843F0060313700C20FFF7DBFF0022024B1A8008BD00BF96
:400F8000015900401684FF1F08B5054B1B7823B9FFF7E8FF0122024B1A70FFF78BFF08BDD483FF1F024A137843F00103137070470059004038B50F4B1B881BB233B10D4BFE
:400FC0001B881BB203EB83035C0001E00A4B1C680A4B1B88C01A00B201F090F9084901F0E1F90546204601F089F90146284601F08DFA38BD0C84FF1F1084FF1F1684FF1F7F
:4010000000002041F0B583B016461F460B4C012525700023019300932B460A460146284600F0BCF83A463146207800F091F80221207800F07BF8207803B0F0BDD380FF1FB1
:40104000F0B583B016461F460B4D00242C700194009423460A460146204600F09FF83A463146287800F074F80221287800F05EF8287803B0F0BD00BFD480FF1F014B1B68AD
:401080001864704708ED00E04001C0B2014B1870704700BF00E400E00B4A7F2313708021517007E0DA0002F1804202F5F042013BDBB21370002BF5D1DB0003F1804303F525
:4010C000F04300221A707047D880FF1F172815D831B103010A495A5C42F020025A5405E0030107495A5C02F0DF025A540001044A835C43F00103835400207047012070476C
:401100001070004017280CD80001074BC1180A7942F004020A71C25C42F00102C254002070470120704700BF1070004017280BD80001064A835C03F0F103490001F00E0151
:401140001943815400207047012070471070004041F6FF73994201D14FF4005141F6FF739A4201D14FF40052172808D8C00000F1804000F5EC408180C2800020704701200D
:40118000704700BF172805D8034B03EB0010417200207047012070471070004017281BD810B4C00000F1804404F5EC44D201D2B201F07F01114321709DF804201201D2B29E
:4011C00003F00F03134363709DF8083003F00F03A3700020E07001E00120704710BC704710B500F089FD0A4B5B78182B0BD9084A1478013B5370E30003F1804303F5F04304
:401200001B78137000E0FF2400F07AFD204610BDD880FF1F10F0800F0CD111F4704F0BD1C00000F1804000F5F04001808270C37000207047012070470120704710F0800F27
:4012400008D1C00000F1804000F5F0408180C280002070470120704701BE7047024A137843F0010313707047F646004010B5044605E0084B186800F037FDA4F50044B4F562
:40128000004FF6D8034B586800FB04F000F02CFD10BD00BFE080FF1F08B5034B1B7A00FB03F000F021FD08BDE080FF1F70B504460E46074B1D681F2802D90020FFF7CCFF75
:4012C00004F01F04103455F8240045F8246070BD08ED00E038B504460D46072902D90020FFF7BAFF1F2C02D90020FFF7B5FF04F01F0000F1604000F564406D01EDB205704C
:4013000038BD00BF044A137803F0FD03400000F0020018431070704720510040024B1B68C3F88400704700BF08ED00E04001C0B2014B1870704700BF11E400E04FF4003217
:40134000014B1A60704700BF00E100E04FF40032014B1A60704700BF80E100E010B50446FFF7F4FF2046FFF7D9FF0720FFF7DEFFFFF7E4FF10BD00BF38B59DF81040651E9E
:40138000EDB2032D51D8013809282ED8DFE800F0052D2D052D2D0F192D230F2B03D92548007840B222E02448007840B21EE00F2B03D92248007840B218E02148007840B260
:4013C00014E00F2B03D91F48007840B20EE01E48007840B20AE00F2B03D91C48007840B204E01B48007840B200E0002001EB401101FB02F2D20B91B20D2B0BD8C3F10E01AA
:4014000092B20A4191B2621E124800EB82020133937005E0631E0F4A02EB83030F229A70013C0C4B23F8241038BD0020FFF714FF38BD00BF180100491C010049190100490D
:401440001D0100491A0100491E0100491B0100491F010049D883FF1FF8B5074600F04CFC06460D4D2B7843F003032B700B4C237843F0030323700A4B1F700320FFF70CFFDD
:401480002B7803F0FC032B70237803F0FC032370304600F035FCF8BDF8460040F946004092580040F8B504460022BC4B1A7401285BD13822BA4B1A70042202331A7007226F
:4014C00001331A70002501331D7001331D703F2201331A7002331D7001331D7001331D7001260A331E70502203F527631A707C2701331F700C2201331A70202201331A7062
:40150000442003331870422201331A70122201331A7002331E70112201331A70192201331A70972201331A70FFF796FF58229D4B1A7001331D700520053318700D220133D1
:401540001A7001331D700A2201331A704FF4FA22954B1A60314600F0CDFA3146384600F04DFB92491D20FFF7A1FE022C5AD138228B4B1A70042202331A70072201331A7096
:40158000002501331D7001331D703F2201331A7002331D7001331D7001331D7001260A331E70502203F527631A70272201331A702C2201331A7001331D70552203331A70A6
:4015C0005A2201331A70052701331F7002331E70112201331A70192201331A70972201331A704420FFF738FF58226E4B1A7001331D7005331F7001331E7001331D700A2219
:4016000001331A704FF4FA42674B1A603146384600F070FA31467C2000F0F0FA64491D20FFF744FE032C5AD138225D4B1A70042202331A70072201331A70002501331D704B
:4016400001331D703F2201331A7002331D7001331D7001331D7001260A331E70502203F527631A70272201331A702C2201331A7001331D70552203331A705A2201331A7091
:40168000052701331F7002331E70112201331A70192201331A70972201331A704420FFF7DBFE58223F4B1A7001331D7005331F7001331E7001331D700A2201331A704FF41E
:4016C000FA42394B1A603146384600F013FA3146252000F093FA37491D20FFF7E7FD042C5AD138222E4B1A70042202331A70072201331A70002401331C7001331C703F2265
:4017000001331A7002331C7001331C7001331C7001250A331D70502203F527631A70272201331A702C2201331A7001331C70552203331A705A2201331A70052601331E700B
:4017400002331D70112201331A70192201331A70972201331A704420FFF77EFE5822114B1A7001331C7005331E7001331D7001331C700A2201331A704FF4FA420A4B1A60D1
:401780002946304600F0B6F92946252000F036FA09491D20FFF78AFDF8BD00BFD883FF1F004E0040945800401884FF1FB51A0000B91A0000BD1A0000C11A00002DE9F041C9
:4017C00082B0394E4FF0010886F80080374F00247C74102000F07CF9102000F0FDF907211D20FFF777FD0425314B1D7001331C7007331C702F4A137843F0180313702E4BD0
:401800001C7003F2F5231C7001331C700A20A3F20933187001331C7002331C705B2205331A705E2201331A7004331C701422A3F68C231A70CDF8008010234FF4004248F63C
:40184000E261FFF799FD0223009310234FF4004249F2DA012846FFF78FFD0323009310234FF4004249F2DA012846FFF785FD009510234FF4004249F2DA012846FFF77CFD76
:401880003378013B07EB83039A780C4B1A703378013B37F823200A4B1A803078FFF702FE02B0BDE8F08100BFF080FF1FD883FF1F96580040075B0040935800400E4E0040CB
:4018C0000C4E004070B500F017FA06462A4B1B782A4B1A7842F001021A701A7842F010021A7010331A7842F001021A701A7842F010021A70224D2B7843F002032B70214C68
:40190000237843F0020323701F4A137843F0030313700320FFF7C0FC2B7803F0FD032B70237803F0FD032370184A137843F0060313707A22164B1A70164A137843F0010315
:4019400013701032137843F0010313700F3A137843F0010313701032137843F0010313704FF000530C4A1360A2F5C0721360304600F0C6F970BD00BFF080FF1FAA430040E5
:40198000F8460040F9460040915800407758004082580040A143004080E200E008B5084B9B7C4BB9064BDB7C13F0FF0F01D1FFF705FF0122024B9A74FFF784FF08BD00BF47
:4019C000D883FF1F024A137843F0010313707047004E0040024A137803F0FE0313707047004E0040094B1B7C13F0FF0F03D0074B5B7CDBB203E0064B1B7803F00103012B96
:401A000001D00028EED01846704700BFD883FF1F014E00400E4B1B7803F00303012B03D80C4B188880B209E00A4A12780A49087842EA0020032B01D1084B1B78084B1B7C48
:401A400013F0FF0F02D00022054B5A7400B27047144E0040104E0040114E0040124E0040D883FF1F10B5074B5B69C01A00F046FC0446054B186800F041FC0146204600F017
:401A800045FD10BDD883FF1F1884FF1F10B5084A137843F004031370FFF794FF0020FFF7A1FFFFF7B7FF0446FFF794FF204610BD014E0040704700BF704700BF704700BFA3
:401AC000704700BF014B188880B2704780400040034B1A7800F0F80010431870704700BF82400040024B187800F00700704700BF8240004070B505460E46FFF7F3FF04463E
:401B0000FFF7E0FFA84256D02B4B1B7803F0010294B900B185B938B9284B1D80284A137803F0BF03137070BD254A137843F040031370224B1D8070BD22B3002321490B701B
:401B400001240F310C7004310B700C390B7803F07F030B701A4B1B7813F0080F00D08DB9194B18800721013B1970164B1B7813F0010FFAD110490B7803F0FE030B700021CD
:401B8000104B19700C4B1B7813F0010F0DD00E4B1D800EB1032200E001220A4B1A70094B1B7813F0010FFAD170BD044B1D8002490B7813430B7070BDA243004080400040DC
:401BC000824000400140004002400040014B188880B2704700410040034B1A7800F0F80010431870704700BF02410040024B187800F00700704700BF0241004070B50546B1
:401C00000E46FFF7F3FF0446FFF7E0FFA84256D02B4B1B7803F0010294B900B185B938B9284B1D80284A137803F0BF03137070BD254A137843F040031370224B1D8070BD71
:401C400022B3002321490B70012413310C7004390B7008390B7803F07F030B701A4B1B7813F0080F00D08DB9194B18800721013B1970164B1B7813F0010FFAD110490B7877
:401C800003F0FE030B700021104B19700C4B1B7813F0010F0DD00E4B1D800EB1032200E001220A4B1A70094B1B7813F0010FFAD170BD044B1D8002490B7813430B7070BD70
:401CC000A143004000410040024100400140004002400040024B1878C0F30010704700BF21510040000000000230800803D000BF01380046FCD17047EFF3108072B6704751
:401D000080F31088704700BF81F0004102E000BF83F0004330B54FEA41044FEA430594EA050F08BF90EA020F1FBF54EA000C55EA020C7FEA645C7FEA655C00F0E2804FEAFE
:401D40005454D4EB5555B8BF6D420CDD2C4480EA020281EA030382EA000083EA010180EA020281EA0303362D88BF30BD11F0004F4FEA01314FF4801C4CEA113102D040423D
:401D800061EB410113F0004F4FEA03334CEA133302D0524263EB430394EA050F00F0A780A4F10104D5F1200E0DDB02FA0EFC22FA05F2801841F1000103FA0EF2801843FA89
:401DC00005F359410EE0A5F120050EF1200E012A03FA0EFC28BF4CF0020C43FA05F3C01851EBE37101F0004507D54FF0000EDCF1000C7EEB00006EEB0101B1F5801F1BD34C
:401E0000B1F5001F0CD349085FEA30004FEA3C0C04F101044FEA445212F5800F80F09A80BCF1004F08BF5FEA500C50F1000041EB045141EA050130BD5FEA4C0C404141EB34
:401E4000010111F4801FA4F10104E9D191F0000F04BF01460020B1FA81F308BF2033A3F10B03B3F120020CDA0C3208DD02F1140CC2F10C0201FA0CF021FA02F10CE002F14C
:401E80001402D8BFC2F1200C01FA02F120FA0CFCDCBF41EA0C019040E41AA2BF01EB0451294330BD6FEA04041F3C1CDA0C340EDC04F11404C4F1200220FA04F001FA02F32C
:401EC00040EA030021FA04F345EA030130BDC4F10C04C4F1200220FA02F001FA04F340EA0300294630BD21FA04F0294630BD94F0000F83F4801306BF81F480110134013D1A
:401F00004EE77FEA645C18BF7FEA655C29D094EA050F08BF90EA020F05D054EA000C04BF1946104630BD91EA030F1EBF0021002030BD5FEA545C05D14000494128BF41F098
:401F4000004130BD14F580043CBF01F5801130BD01F0004545F0FE4141F470014FF0000030BD7FEA645C1ABF194610467FEA655C1CBF0B46024650EA013406BF52EA0335BE
:401F800091EA030F41F4002130BD00BF90F0000F04BF0021704730B54FF4806404F132044FF000054FF0000150E700BF90F0000F04BF0021704730B54FF4806404F1320456
:401FC00010F0004548BF40424FF000013EE700BF42004FEAE2014FEA31014FEA02701FBF12F07F4393F07F4F81F06051704792F0000F14BF93F07F4F704730B54FF4607447
:4020000001F0004521F0004120E700BF50EA010208BF704730B54FF000050AE050EA010208BF704730B511F0004502D5404261EB41014FF4806404F132045FEA915C3FF4FC
:40204000DCAE4FF003025FEADC0C18BF03325FEADC0C18BF033202EBDC02C2F1200300FA03FC20FA02F001FA03FE40EA0E0021FA02F11444C1E600BF4FF0FF3C06E000BF53
:402080004FF0010C02E000BF4FF0010C4DF804CD4FEA410C7FEA6C5C4FEA430C18BF7FEA6C5C1BD001B050EA410C0CBF52EA430C91EA030F02BF90EA020F0020704710F160
:4020C000000F91EA030F58BF994208BF90422CBFD8176FEAE37040F0010070474FEA410C7FEA6C5C02D150EA013C07D14FEA430C7FEA6C5CD6D152EA033CD3D05DF8040B90
:40210000704700BF8446104662468C461946634600E000BF01B5FFF7B7FF002848BF10F1000F01BD4DF808EDFFF7F4FF0CBF012000205DF808FB00BF4DF808EDFFF7EAFF2A
:4021400034BF012000205DF808FB00BF4DF808EDFFF7E0FF94BF012000205DF808FB00BF4DF808EDFFF7CEFF94BF012000205DF808FB00BF4DF808EDFFF7C4FF34BF0120AB
:4021800000205DF808FB00BF80F0004002E000BF81F0004142001FBF5FEA410392EA030F7FEA226C7FEA236C6AD04FEA1262D2EB1363C1BFD218414048404140B8BF5B4299
:4021C000192B88BF704710F0004F40F4000020F07F4018BF404211F0004F41F4000121F07F4118BF494292EA030F3FD0A2F1010241FA03FC10EB0C00C3F1200301FA03F1FF
:4022000000F0004302D5494260EB4000B0F5000F13D3B0F1807F06D340084FEA310102F10102FE2A51D2B1F1004F40EBC25008BF20F0010040EA03007047490040EB000019
:4022400010F4000FA2F10102EDD1B0FA80FCACF1080CB2EB0C0200FA0CF0AABF00EBC25052421843BCBFD0401843704792F0000F81F4000106BF80F400000132013BB5E742
:402280004FEA41037FEA226C18BF7FEA236C21D092EA030F04D092F0000F08BF0846704790EA010F1CBF0020704712F07F4F04D1400028BF40F00040704712F100723CBF8C
:4022C00000F50000704700F0004343F0FE4040F4000070477FEA226216BF08467FEA23630146420206BF5FEA412390EA010F40F4800070474FF0000304E000BF10F000438A
:4023000048BF40425FEA000C08BF704743F0964301464FF000001CE050EA010208BF70474FF000030AE000BF50EA010208BF704711F0004302D5404261EB41015FEA010CD1
:4023400002BF84460146002043F0B64308BFA3F18053A3F50003BCFA8CF2083AA3EBC25310DB01FA02FC634400FA02FCC2F12002BCF1004F20FA02F243EB020008BF20F0F4
:402380000100704702F1200201FA02FCC2F1200250EA4C0021FA02F243EB020008BF20EADC7070474FF0FF0C1CEAD0521EBF1CEAD15392EA0C0F93EA0C0F6FD01A4480EA3A
:4023C000010C400218BF5FEA41211ED04FF0006343EA501043EA5111A0FB01310CF00040B1F5000F3EBF490041EAD3715B0040EA010062F17F02FD2A1DD8B3F1004F40EB59
:40240000C25008BF20F00100704790F0000F0CF0004C08BF49024CEA502040EA51207F3AC2BFD2F1FF0340EAC250704740F400004FF00003013A5DDC12F1190FDCBF00F03F
:4024400000407047C2F10002410021FA02F1C2F1200200FA02FC5FEA310040F1000053EA4C0308BF20EADC70704792F0000F00F0004C02BF400010F4000F013AF9D040EA7A
:402480000C0093F0000F01F0004C02BF490011F4000F013BF9D041EA0C018FE70CEAD15392EA0C0F18BF93EA0C0F0AD030F0004C18BF31F0004CD8D180EA010000F0004082
:4024C000704790F0000F17BF90F0004F084691F0000F91F0004F14D092EA0C0F01D142020FD193EA0C0F03D14B0218BF084608D180EA010000F0004040F0FE4040F40000DE
:40250000704740F0FE4040F4400070474FF0FF0C1CEAD0521EBF1CEAD15392EA0C0F93EA0C0F69D0A2EB030280EA010C49024FEA402037D04FF0805343EA111143EA1013C5
:402540000CF000408B4238BF5B0042F17D024FF4000C8B4224BF5B1A40EA0C00B3EB510F24BFA3EB510340EA5C00B3EB910F24BFA3EB910340EA9C00B3EBD10F24BFA3EB63
:40258000D10340EADC001B0118BF5FEA1C1CE0D1FD2A3FF650AF8B4240EBC25008BF20F0010070470CF0004C4CEA50207F32C2BFD2F1FF0340EAC250704740F400004FF0DD
:4025C0000003013A37E792F0000F00F0004C02BF400010F4000F013AF9D040EA0C0093F0000F01F0004C02BF490011F4000F013BF9D041EA0C0195E70CEAD15392EA0C0F0D
:4026000008D142027FF47DAF93EA0C0F7FF470AF084676E793EA0C0F04D14B023FF44CAF08466EE730F0004C18BF31F0004CCAD130F000427FF45CAF31F000437FF43CAF91
:402640005FE700BF4FF0FF3C06E000BF4FF0010C02E000BF4FF0010C4DF804CD4FEA40024FEA41037FEA226C18BF7FEA236C11D001B052EA530C18BF90EA010F58BFB2EBE7
:40268000030088BFC81738BF6FEAE17018BF40F0010070477FEA226C02D15FEA402C05D17FEA236CE4D15FEA412CE1D05DF8040B704700BF844608466146FFE70FB5FFF7EF
:4026C000C9FF002848BF10F1000F0FBD4DF808EDFFF7F4FF0CBF012000205DF808FB00BF4DF808EDFFF7EAFF34BF012000205DF808FB00BF4DF808EDFFF7E0FF94BF0120DA
:4027000000205DF808FB00BF4DF808EDFFF7D2FF94BF012000205DF808FB00BF4DF808EDFFF7C8FF34BF012000205DF808FB00BF014B1868704700BF5481FF1F0E4B70B5C1
:402740001E460E4C0025E41AA410A54204D056F8253098470135F8E702F028FC084B094C1E46E41AA4100025A54204D056F8253098470135F8E770BDB84F0000B84F0000EC
:40278000B84F0000C04F000010B5431E0A44914204D011F8014B03F8014FF8E710BD03460244934202D003F8011BFAE770472DE9F04788B0149F002B1E461299B8BF03F1DA
:4027C000004327F02007B6BF1E4600232D23462F1446109DDDF84CA00B7003D0452F03D1013501E0032300E0022307AA049206AA03928DE828042246334600F011FD472F75
:40280000804602D1119BDB0728D5462F08EB050911D198F80030302B0AD10022002320463146FFF77FFC18B9C5F10105CAF80050DAF8003099440022002320463146FFF7FD
:4028400071FC08B9302202E0CDF81C9006E0079B994503D9591C07911A70F8E74046079B159AC8EB0303136008B0BDE8F087034673B50029B8BF494203F8022BB4BF2D2270
:402880002B22092942701ADD0DF1070216460A2591FBF5F405FB1411092C01F1300102F8011D2146F4DC3031541E02F8011CB4421A460AD214F8012B03F8012BF7E71A4664
:4028C0003024214402F8024B5970101A02B070BD2DE9F04F91B00C46DDF8688016461F46054601F035FA03681846099300F002FC00230E93D8F800300A90073323F007032D
:4029000003F1080294F81890D4F800B0C8F80020D3E90023C4E91223D4F84CA0D4F848802AF000430B934FF0FF32A74B40460B9902F074F9A0B94FF0FF32A34B40460B9935
:40294000FFF704FC60B90022002340465146FFF7F3FB10B12D2384F843309C4B9C4A0AE0424653464046514602F058F9002800F09281984B984AB9F1470F8CBF90469846DB
:40298000032323612BF0040323604FF0000A3DE0B9F1670F00F08A81B9F1470F00F0868123600193636800210DF13302059002920093424653460691CDF81090CDF80CE090
:4029C0002846FFF7F4FE09F0DF03472B804600F08481B9F1650F0D9900F28D8101394A4604F150000D91FFF742FF0E9A82468318012A236100F37C812268D10700F17881DB
:402A00009DF8333013B12D2384F84330009733460FAA2146284600F09FF9013002D14FF0FF3096E123685A0501D4236965E0B9F1650F40F2D580D4E9120100220023FFF74C
:402A400071FB78B30123654A31462846B8470130E5D00E9B0D9A9A420BDB2368D80708D423689B0740F111814FF0000804F1190906E10A9B099A31462846B8470130CED09A
:402A80004FF0000804F11A090E9B013B9845E7DA01234A4631462846B8470130BFD008F10108F1E70D9B002B29DC01234B4A31462846B8470130B2D00D9B23B90E9B13B9E1
:402AC0002368D907CCD50A9B099A31462846B8470130A4D04FF0000904F11A0A0D9B5B42994509DA0123524631462846B847013095D009F10109F1E70E9B4246A7E00E9A20
:402B0000A36D9A42A8BF1A46002A914606DC4FF0000A29EAE97904F11A0B11E01346314642462846B8470130F1D178E701235A4631462846B84701303FF471AF0AF1010AED
:402B4000A36DC9EB03029245F0DB08EB03090D9A0E9B9A420FDB2368DA070CD40E9B0D9A9844C9EB08089B1A9845A8BF9846B8F1000F08DC0FE00A9B099A31462846B8470B
:402B80000130EBD14BE743464A4631462846B84701303FF444AF4FF0000928EAE87804F11A0A09E00123524631462846B84701303FF435AF09F101090D9A0E9B9B1AC8EB42
:402BC00003039945EEDB4BE7FFFFEF7F4E4E0000524E0000564E00005A4E00005E4E00000E9A012A01DCDB0738D50123424631462846B84701303FF412AF0A9B099A314643
:402C00002846B84701303FF40AAFD4E9120100220023FFF787FA20B14FF0000804F11A090EE00E9B08F10102013B19E001234A4631462846B84701303FF4F1AE08F10108E9
:402C40000E9B013B9845F1DB534604F1500231462846B84701307FF403AFE0E64246012331462846B8470130EED1D8E601234A4631462846B84701303FF4D1AE08F101082B
:402C8000E3680F9A9B1A9845F0DBE0680F9B9842B8BF18465DE062680EA8531C0DF1340E4BF480637FF474AE062201E012B90122626075E6002106910DF133018DE80C0080
:402CC000236005904246CDF81090CDF80CE0029153462846FFF76BFD80460D9BD81C02DB626893421DDDA9F102095FFA89F970E60133236184E6B9F1660F14D1002963685E
:402D000007DD216113B92268D2071DD501330B4419E013B92268D00701D5023313E0012311E04FF067090D9B0E9A934205DB22682361D10708D5013305E0002BD4BFC3F14E
:402D400002030123134423610D9B4FF0000AA36556E611B0BDE8F08F2DE9F04791461F460A698B6806469342B8BF1346C9F8003091F843200C46DDF8208012B10133C9F8F9
:402D800000302368990642BFD9F800300233C9F80030256815F0060510D104F1190A07E00123524639463046C04701301AD00135E368D9F800209B1A9D42F1DB94F8433070
:402DC0002268003318BF012392060FD5E118302081F843005A1C94F845102244023382F8431003E04FF0FF30BDE8F08704F1430239463046C0470130F4D02268D9F8005098
:402E0000E36802F00602042A08BF5D1B2269A3680CBF25EAE57500259342C4BF9B1AED184FF000091A344D4509D00123224639463046C0470130D5D009F10109F3E7002082
:402E4000BDE8F0872DE9F04317460A7E85B06E2A984606460C460C9B01F1430E00F0AE8011D8632A22D009D8002A00F0BB80582A40F0CA8081F84520834955E0642A1ED0C2
:402E8000692A1CD0C0E0732A00F0B08009D86F2A2ED0702A40F0B8800A6842F020020A603EE0752A24D0782A3AD0ADE01A6801F14205111D1960136884F84230A8E02168C6
:402EC0001A6811F0800F02D0111D196008E011F0400F02F10401196002D0B2F9003000E01368002B3CDA2D225B4284F8432037E021681A6811F0800F02D0111D196007E078
:402F000011F0400F02F10401196001D0138800E01368227E5C496F2A14BF0A2208221BE078225A4984F845202268186812F0800F00F104051D6003D1550601D5038800E067
:402F40000368D00744BF42F0200222601BB9226822F0200222601022002084F8430001E049490A226568002DA56008DB206820F0040020602BB9002D7DD175460CE0002B43
:402F800079D07546B3FBF2F002FB1033CB5C05F8013D03460028F5D1082A0BD12368DA0708D5236962689A42DEBF302305F8013C05F1FF35C5EB0E0323612EE008681A6882
:402FC00010F0800F496903D0101D1860136808E010F0400F02F104001860136801D0198000E0196000232361754616E01A68111D1960156800216268284600F0B5FE08B106
:40300000401B6060636804E004F1420584F8422001232361002384F84330CDF800803B4603AA21463046FFF797FE013002D14FF0FF3026E023692A4639463046C047013076
:40304000F5D023689B0710D5002504F1190907E001234A4639463046C0470130E7D00135E368039A9B1A9D42F2DBE068039B9842B8BF184605E00B7804F1420584F8423018
:403080008AE705B0BDE8F083604E0000714E00000CB430B5164B0C1E9DB01D6804DA8B232B604FF0FF301EE04FF40273ADF814300CBF234604F1FF33049307934FF6FF73FC
:4030C00002900690ADF81630209A21AB02A92846019301F03FFA431CBCBF8B232B6014B1029B00221A701DB0BDE8304002B070475481FF1F034613F8012B002AFBD1181A59
:40310000013870472DE9F74F03690C6980469C427FDC013C01F114074FEA840E00F1140606EB0E0357F82450019356F824300135B3FBF5F507EB0E09C5B34FF0000A384632
:40314000B446D34650F8043B9AB205FB02A21B0C4FEA124A05FB03A392B2C2EB0B0BBCF800204FEA134A5A441FFA83FBDCF800308145CBEB134303EB224392B242EA0342DF
:403180004FEA234B4CF8042BDCD256F80E306BB9019B043B9E421A4602D3C8F8104005E01268043B002AF8D1013CF3E7404600F0F6FF00282BDB304601354FF0000E57F80E
:4031C000042B036891B2C1EB0E0E120C99B27144C2EB134303EB214389B24FEA234EB94541EA034340F8043BE9D256F8242006EB840362B9043B9E421A4602D3C8F81040A8
:4032000005E01268043B002AF8D1013CF3E7284600E0002003B0BDE8F08F0000000000002DE9F04F456A95B08246219CCDE9022345B9102000F090FDCAF8240045608560DD
:403240000560C560DAF82430196859B15A68012393404A608B60504600F0C9FDDAF8243000221A60039BA04A002BBDBF01232360039B0023BCBF23F000430393DDF80C8058
:40328000A8BF236028F000431B0D1B0593421DD142F20F73209A1360029B43B9934A944BC8F31300002814BF1846104600E09048229B002B00F04685C37813B100F10803B3
:4032C00000E0C31C229A136000F03CBDDDE902450022002320462946FEF724FF074658B1209A01231360229B002B00F01E8581481860013800F026BD12AB019313AB0093A7
:4033000022462B46504600F0C5FFC8F30A56049056B1C5F3130343F07F51204641F44011A6F2FF3611971DE0139B129E1E4406F23243202B0ADD029A06F21240C3F1400349
:4033400022FA00F008FA03F3184304E0C3F12000029B03FA00F0FEF719FE0123A1F1F871013E11930022644BFEF7D2FC58A3D3E9002301F041FA58A3D3E90023FEF7CAFC6F
:40338000044630460D46FEF711FE55A3D3E9002301F032FA02460B4620462946FEF7BAFC04460D4601F050FC00228346002320462946FEF7C1FE58B15846FEF7F7FD0246A0
:4033C0000B4620462946FEF7ADFE08B90BF1FF3BBBF1160F0DD8DDE90223484901EBCB01D1E90001FEF7C6FE30B10BF1FF3B002300E00123109300E01090129B9E1B731E5A
:40340000079343BFC3F10008002307934FF00008BBF1000F06DB079BCDF82CB05B440793002705E00023CBEB0808CBF100070B931E9B092B28D8052BC4BF043B1E931E9B79
:40344000C8BF0025A3F10203D8BF0125032B20D8DFE803F0060E0204012302E0012308E000230A931F9B002B1DDD9946059321E000230A931F9B0BEB030909F10103012B81
:403480000593B8BF012315E0012500231E930A9501E001230A934FF0FF390022CDF8149012231F9206E04FF001094B46CDF81490CDF87C90DAF8244000226260042101F196
:4034C00014029A421CD86268490001326260F6E761436F63A787D23FB3C8608B288AC63FFB799F501344D33F0000F07F824E00008B4E00005F4E00000000F83F984E000081
:403500006168504600F03EFCDAF8243020601B680693059B0E2B00F25B81002D00F05881DDE90234BBF1000FCDE90E3430DD9F4A0BF00F034FEA2B1502EBC303E80618CBF4
:40354000CDE908340CD5DDE90E01994B05F00F05D3E9082301F07AFA0324CDE9020100E00224934E6DB1E90708D5DDE90801D6E9002301F041F9CDE9080101346D1008362D
:40358000F0E7DDE90823DDE9020101F05FFA20E0CBF1000505B3DDE90E01844B05F00F0203EBC203D3E9002301F026F9CDE902017F4E2D110023022455B1EA0705D5D6E9CE
:4035C000002301F019F9013401236D100836F3E71BB1CDE9020100E00224109BE3B1DDE902560022734B28463146FEF7A5FD98B1059B8BB1B9F1000F40F3E6800BF1FF33CE
:403600000893314600226C4B284601F0F5F80134CDE902014E4602E0059ECDF820B02046FEF7C4FCDDE9022301F0E6F8634B0022FEF770FBA1F1507304460C931D46D6B982
:40364000DDE9020100225E4BFEF762FB22460C9BCDE90201FEF78EFD002840F03F820C99224601F10043DDE90201FEF765FD002840F02B82A8E00A9A4C4B711E002A49D007
:4036800003EBC103D3E9002300204E4901F0DEF922462B46FEF73CFBCDE90C01069CDDE9020101F0D1FA0546FEF780FC02460B46DDE90201FEF72CFBDDE90C23303504F87B
:4036C000015BCDE90201FEF737FD002840F01D83DDE9022300203749FEF71AFBDDE90C23FEF72AFD002840F0D180069BE31AB3426ADADDE90C0100222F4B01F07DF8002277
:40370000CDE90C01DDE902012B4B01F075F8CDE90201C4E703EBC1012246D1E900012B4601F06AF8069BCDE90C011D469C19DDE9020101F089FA0646FEF738FC02460B4667
:40374000DDE90201FEF7E4FA303605F8016BAC42CDE902014FF0000222D11A4BDDE90C01FEF7D8FA02460B46DDE90201FEF702FD002840F08B80DDE90C2300201149FEF7E7
:40378000C7FA02460B46DDE90201FEF7D5FCD8B114F8013C621E302B40F0B7821446F7E7054B01F029F8CDE90201C0E7984E0000704F00000000F03F0000244000001C407C
:4037C000000014400000E03FDDE90E34CDE90234139B002B7CDBBBF10E0F79DCAB4B03EBCB03D3E900671F9B002B14DA059B002B11DC40F06C810022A54B3046394600F0A0
:40380000FBFFDDE90223FEF7ABFC059D2E46002840F05F8165E1069CDDE9028932463B464046494601F012F901F00EFA0546FEF7BDFB32463B4600F0DFFF0B460246494696
:403840004046FEF765FA05F1300E069B04F801EBC3EB040E059B73452DD102460B46FEF759FA8046894602460B4630463946FEF763FC78B942464B4630463946FEF752FCC1
:40388000002800F04482EB0704D440E2DDF820B000E01C4614F8012C631E392A07D1069A9A42F6D1069930220BF1010B0A701A7801321A702BE20022764B00F09DFF0022BF
:4038C000002380468946FEF72DFC0028A6D01EE20A9A002A2BD01E9A012A0ADC119A12B103F2334302E0129BC3F136033D46444613E0059B5D1EAF42BFBF0B9BEA1B9B1885
:403900000B93059BB6BF2F467D1B0025002BA7BF4446059BC3EB08040023079A01211A4450469844079200F001FB064602E03D4644460A9E5CB1079B002B08DDA342A8BF04
:403940002346079AC3EB0808E41AD31A0793002F1DDD0A9BABB18DB131462A46504600F07FFB049A01460646504600F0E8FA04990890504600F03BFA089B04937A1B06D07D
:4039800000E03A460499504600F06AFB04900121504600F0CBFA0B9B05465BB31A460146504600F05DFB1E9B0546012B18DC029B83B9039BC3F3130373B9039B23F000470F
:4039C0003F0D3F054FB1079B08F1010801330793012702E0002700E0029F0B9B73B100E000272B6905EB8303186900F052FAC0F1200004E01E9B012BD9DD0B9F0120079BBE
:403A0000184410F01F0008D0C0F12003042B02DDC0F11C0002E006D018461C30079B8044034404440793B8F1000F05DD42460499504600F063FB0490079B002B05DD29463E
:403A40001A46504600F05AFB0546109B23B32946049800F0A4FB00281EDA00230A220499504600F0DBF90A9B0BF1FF3B0490002B00F05F81314600230A22504600F0CEF9C2
:403A8000B9F1000F06463FDC3BE000BF984E00000000144000002440059B002B2BDC1E9B022B28DDDDF81490B9F1000F11D129464B460522504600F0B1F901460546049818
:403AC00000F06DFB00280CDC03E0354600E000252E461F9B069C6FEA030B09E03546DDF820B0069B069A5C1C312313700BF1010B05960026F7E00A9BDDF8149023B9069CEF
:403B0000B2E01E9B022BCFDC002C05DD31462246504600F0F3FA06469FB17168504600F031F90446326906F10C01023292000C30FEF72AFE01222146504600F0DFFA059057
:403B400000E00596029B069F03F00103079329460498FFF7D7FA3146044600F13008049800F01DFB059A02902946504600F033FBC36802463BB901460A90049800F00FFB65
:403B80000A9A034600E00123114650460A9300F02EF90A9B53B91E9A42B9079A32B9B8F1390F2AD0029B002B1CDC1DE0029A002A04DB1BD11E9ACAB9079ABAB9002B13DDE0
:403BC00001220499504600F099FA2946049000F0E6FA002803DC07D118F0010F04D0B8F1390F0AD004F131087C1C0CE0002B07F101040BDDB8F1390F03D139233B700137BD
:403C000056E008F1010887F800806CE0069B2746E31A4B4504F8018C3BD000230A220499504600F0FBF8059B04909E424FF00A024FF000033146504604D100F0EFF80646C7
:403C4000059084E700F0EAF8002306460A220599504600F0E3F8059079E700230A220499504600F0DBF8049029460498FFF74AFA069B00F1300804F8018BE31A4B45ECDB1F
:403C8000069B0596B9F1010FACBF4B4401331F46002601220499504600F030FA2946049000F07DFA002803DC15D118F0010F12D03C4614F8013C621E392B09D1069B934295
:403CC00004D10BF1010B3123069A02E01446F0E70133137007E03C4614F8013C621E302B01D11446F8E72946504600F080F8059B6BB12EB19E4203D03146504600F077F86A
:403D00000599504600F073F801E0DDF820B00499504600F06CF80023209A23700BF101031360229B1BB11C6001E008480AE0069808E0B9F1000F3FF7E2AE1E9B022B7FF783
:403D4000DEAEB1E615B0BDE8F08F00BF5E4E0000004870475881FF1F024B0146186800F041BB00BF5481FF1F10B5C9B202449042034605D01C7801308C42F8D1184610BD27
:403D8000002010BD70B5456A04460E463DB91020FFF7E2FF6062456085600560C560656AEB6843B1636ADB6853F8260078B1026843F8262017E021220421204600F0B8FABF
:403DC000636AE860DB68002BECD1002070BD012101FA06F56A1D9200204600F0A9FA0028F3D04660856000230361C36070BD70B5446A06460D463CB91020FFF7ADFF7062B4
:403E0000446084600460C4603DB1736A6A68DB6853F82210296043F8225070BD2DE9F04106460C460D691F4601F1140E0023DEF80000013381B202FB0171000C0F0C02FBEB
:403E4000007089B201EB00419D424FEA10474EF8041BECDCD7B1A3689D4212DB616830460131FFF78FFF8046226904F10C01023292000C30FEF788FC21463046FFF7B7FF23
:403E8000444604EB850301355F6125612046BDE8F081030C1B0413B90004102300E0002310F07F4F04BF0002083310F0704F04BF0001043310F0404F04BF8000023300281E
:403EC00003DB420003D5581C70471846704720207047036813F007020BD0D90722D49A074BBF5B089B08036003604CBF01200220704799B209B91B0C102213F0FF0F04BFB5
:403F00001B0A0832190704BF1B090432990704BF9B080232D90702D45B0805D00132036010467047002070472020704710B50C460121FFF727FF01224461026110BD2DE9E9
:403F4000F74F14460A69236988469A42BEBF0B46A0461C46D8F81070D4F81090D8F80830D8F8041007EB09069E42C8BF0131FFF709FF00F114052B4605EB860C00226345DB
:403F800002D243F8042BFAE704F1140208F1140102EB890301EB87070093009B0192934257D9B2F800B0BBF1000F23D08946AE464FF0000859F8044BBEF800A0A3B20BFBAD
:403FC00003A34FEA144ADEF8004043444FEA14480BFB0A84F24604EB13449BB243EA04434F454FEA14484AF8043B01D9D646E1E7CEF80480019B0432B3F802A0BAF1000FF4
:4040000021D02C4689462B684FF00008B9F800E0B4F802B09BB20AFB0EBEA346F04443EA08434BF8043B59F8043BB4F804E01B0C0AFB03E34F4503EB18434FEA134801D9D3
:404040005C46E3E763600435A7E75CF8043D13B9013E002EF9DC066103B0BDE8F08F00002DE9F843154612F0030206460F4607D0214C013A002354F82220FFF7CFFE0746D5
:40408000AD1036D0746A3CB91020FFF765FE7062446084600460C460D6F82480D8F808404CB940F271213046FFF740FF04460023C8F8080003604FF00008EB070AD53946D2
:4040C00022463046FFF73BFF814639463046FFF78EFE4F466D100CD0206808B10446ECE7224621463046FFF72AFF2060C0F80080F4E73846BDE8F883604F00002DE9F04797
:404100000C460746914626694FEA621A56444968A368751CAB4202DA01315B00FAE73846FFF730FE002380461A4600F11401534503DA41F823200133F9E72AEAEA732069B7
:4041400001EB830319F01F0904F1140101EB800E14D0C9F1200C002208689A4600FA09F0024343F8042B51F8042B8E4522FA0CF2F2D8CAF8042042B1B51C06E0043B51F8F3
:40418000042B8E4543F8042FF9D8013D3846C8F810502146FFF72BFE4046BDE8F08703690A6910B59B1A11D192001430143183180A4453F8044D52F8041D8C4202D007D3FA
:4041C000012010BD9842F4D3002010BD184610BD4FF0FF3010BD2DE9F8430C460746114620461546FFF7DBFF061E08D131463846FFF7C8FD012303614661BDE8F883BCBF8E
:4042000023462C4638466168BABF1D4601260026FFF7B8FD2B69C660266905F1140904F1140101EB860709EB830800F114054FF0000C51F8042B59F8044B93B29C44A3B243
:40424000240CC3EB0C03C4EB124202EB23429BB24FEA224CC84543EA02428E4645F8042BE7D8BE450ED25EF8041B8AB26244131403EB114392B242EA03424FEA234C45F84E
:40428000042BEEE755F8043D0BB9013EFAE70661BDE8F8832DE9F3411C4601219046089E099DFFF76FFDC4F31302C4F30A5407460CB142F480120192B8F1000F19D002A81E
:4042C00040F8088DFFF705FE009B48B1019AC0F1200102FA01F10B43C2407B61019200E07B61019B002B14BF02210121BB61396107E001A8FFF7EDFD019B01217B61396155
:40430000203034B1A4F2334404443460C0F1350009E0A0F2324007EB810330601869FFF7B8FDC0EB41102860384602B0BDE8F08138B502FB01F4214600F054F8054618B1FA
:4043400022460021FEF72BFA284638BD38B50546002944D051F8043C0C1F002BB8BFE41800F017FA1E4A1368114613B96360146030E0A3420DD92268A018834201BF186810
:404380005B681218226063600C6023E0A24203D813465A68002AF9D118681918A1420BD12168014458188242196013D110685268014419605A600DE002D90C232B6009E0AA
:4043C00021686018824201BF106852680918216062605C602846BDE8384000F0DBB938BDF483FF1F70B5CD1C25F0030508350C2D38BF0C25002D064601DBA94202D90C233A
:40440000336046E000F0C5F9234B1C681A462146A1B10B685B1B0ED40B2B03D90B60CC18CD501EE08C420BBF63684B681360636018BF0C4615E00C464968E9E7174C236898
:404440001BB9304600F07AF920602946304600F075F9431C18D0C41C24F00304A0420DD12560304600F096F904F10B00231D20F00700C31A0ED05A42E25070BD211A304692
:4044800000F05CF90130EBD10C233360304600F081F9002070BD00BFF483FF1FF083FF1F2DE9F0478E6882469E420C46914698463ED88A8912F4906F3AD0256809690223A8
:4044C0006F1A656905EB450595FBF3F57B1C43449D4238BF1D4653050FD52946FFF782FF064698B13A462169FEF74EF9A38923F4906343F08003A38113E02A4600F04BF9B8
:40450000064670B921695046FFF720FF0C23CAF80030A3894FF0FF3043F04003A381BDE8F08726613E44266046466561ED1BA560464528BF464649463246206800F00EF9EE
:40454000A36800209B1BA36023681E442660BDE8F08700002DE9F04F9DB003938B8980461C060D4616460DD50B695BB94021FFF739FF2860286118B90C23C8F80030CDE03E
:4045800040236B610023099320238DF82930DFF89CB130238DF82A3037463C4614F8013B1BB9B7EB060910D003E0252BF9D02746F3E74B46324629464046FFF771FF013012
:4045C00000F0A780099B4B4409933B78002B00F0A08000234FF0FF3204930793059206938DF853301A930126052221784E48FFF7BBFB671C049B38B14B4A3C46801A06FA59
:4046000000F018430490EFE7D90644BF20228DF853201A0744BF2B228DF8532022782A2A03D0079A00210A200BE0039A111D12680391002A10DA524243F0020007920490C5
:404640000BE027463B780134303B092B03D800FB02320121F5E701B107923B782E2B1ED17B782A2B0AD1039B02371A1D1B680392002BB8BF4FF0FF33059310E000231946A7
:404680000593781C0A2407463A780130303A092A03D804FB01210123F5E703B10591032239782248FFF760FB40B14023CBEB000003FA00F0049B0137184304903978062266
:4046C0001B487E1C8DF82810FFF74EFB88B1194B33B9039B073323F007030833039314E003AB00932A46144B04A94046FEF7F0F807E003AB00932A460F4B04A94046FEF744
:40470000A1FBB0F1FF3F824603D0099B5344099342E7AB895B0601D4099801E04FF0FF301DB0BDE8F08F00BF984F00009E4F0000A24F0000D1280000A144000038B5064C77
:404740000023054608462360FCF78AF8431C02D1236803B12B6038BD1C84FF1F884210B501EB020301D8421E0BE09842FBD28118D21AD34204D013F8014D01F8014DF8E79E
:4047800010BD994204D011F8014B02F8014FF8E710BD70477047F8B5074615460E4621B91146BDE8F840FFF71DBE1AB9FFF7CEFD2846F8BD00F015F885420ED929463846ED
:4047C000FFF710FE044650B131462A46FDF7DCFF31463846FFF7BAFD01E03046F8BD2046F8BD51F8040C0028BEBF091851F8043CC01804387047000070B54FF0FF0C4CF4C9
:40480000E06C1CEA11541DBF1CEA135594EA0C0F95EA0C0F00F0DEF82C4481EA030621EA4C5123EA4C5350EA013518BF52EA033541F4801143F4801338D0A0FB02CE4FF049
:404840000005E1FB02E506F00042E0FB03E54FF00006E1FB03569CF0000F18BF4EF0010EA4F1FF04B6F5007F64F5407404D25FEA4E0E6D4146EB060642EAC62141EA555123
:404880004FEAC52040EA5E504FEACE2EB4F1FD0C88BFBCF5E06F1ED8BEF1004F08BF5FEA500E50F1000041EB045170BD06F0004646EA010140EA020081EA0301B4EB5C047F
:4048C000C2BFD4EB0C0541EA045170BD41F480114FF0000E013C00F3AB8014F1360FDEBF002001F0004170BDC4F10004203C35DA0C341BDC04F11404C4F1200500FA05F3B2
:4049000020FA04F001FA05F240EA020001F0004221F0004110EBD37021FA04F642EB06015EEA430E08BF20EAD37070BDC4F10C04C4F1200500FA04F320FA05F001FA04F2D5
:4049400040EA020001F0004110EBD37041F100015EEA430E08BF20EAD37070BDC4F1200500FA05F24EEA020E20FA04F301FA05F243EA020321FA04F001F0004121FA04F2F4
:4049800020EA020000EBD3705EEA430E08BF20EAD37070BD94F0000F0FD101F00046400041EB010111F4801F08BF013CF7D041EA060195F0000F18BF704703F0004652007D
:4049C00043EB030313F4801F08BF013DF7D043EA0603704794EA0C0F0CEA135518BF95EA0C0F0CD050EA410618BF52EA4306D1D181EA030101F000414FF0000070BD50EA1A
:404A0000410606BF1046194652EA430619D094EA0C0F02D150EA013613D195EA0C0F05D152EA03361CBF104619460AD181EA030101F0004141F0FE4141F470014FF0000040
:404A400070BD41F0FE4141F4780170BD70B54FF0FF0C4CF4E06C1CEA11541DBF1CEA135594EA0C0F95EA0C0F00F0A7F8A4EB050481EA030E52EA03354FEA013100F0888061
:404A80004FEA03334FF0805545EA131343EA12634FEA022245EA111545EA10654FEA00260EF000419D4208BF964244F1FD0404F5407402D25B084FEA3202B61A65EB03055B
:404AC0005B084FEA32024FF480104FF4002CB6EB020E75EB030E22BFB61A754640EA0C005B084FEA3202B6EB020E75EB030E22BFB61A754640EA5C005B084FEA3202B6EB8B
:404B0000020E75EB030E22BFB61A754640EA9C005B084FEA3202B6EB020E75EB030E22BFB61A754640EADC0055EA060E18D04FEA051545EA16754FEA06164FEAC30343EA95
:404B400052734FEAC2025FEA1C1CC0D111F4801F0BD141EA00014FF000004FF0004CB6E711F4801F04BF01430020B4F1FD0C88BFBCF5E06F3FF6AFAEB5EB030C04BFB6EBE9
:404B8000020C5FEA500C50F1000041EB045170BD0EF0004E4EEA113114EB5C04C2BFD4EB0C0541EA045170BD41F480114FF0000E013C90E645EA060E8DE60CEA135594EAD8
:404BC0000C0F08BF95EA0C0F3FF43BAF94EA0C0F0AD150EA01347FF434AF95EA0C0F7FF425AF104619462CE795EA0C0F06D152EA03353FF4FDAE1046194622E750EA410638
:404C000018BF52EA43067FF4C5AE50EA41047FF40DAF52EA43057FF4EBAE12E74FEA410C7FEA6C5C02D150EA013C0AD14FEA430C7FEA6C5C02D152EA033C02D14FF0000006
:404C400070474FF0010070474FEA410212F5001215D211D56FF47873B3EB625212D94FEAC12343F0004343EA505311F0004F23FA02F018BF404270474FF00000704750EA97
:404C8000013005D111F0004008BF6FF0004070474FF00000704700BF000000000000000000070E091C1B1215383F363124232A2D70777E796C6B6265484F464154535A5DEA
:404CC000E0E7EEE9FCFBF2F5D8DFD6D1C4C3CACD90979E998C8B8285A8AFA6A1B4B3BABDC7C0C9CEDBDCD5D2FFF8F1F6E3E4EDEAB7B0B9BEABACA5A28F88818693949D9AD4
:404D00002720292E3B3C35321F18111603040D0A5750595E4B4C45426F68616673747D7A898E878095929B9CB1B6BFB8ADAAA3A4F9FEF7F0E5E2EBECC1C6CFC8DDDAD3D493
:404D4000696E676075727B7C51565F584D4A4344191E171005020B0C21262F283D3A33344E49404752555C5B7671787F6A6D64633E39303722252C2B0601080F1A1D141353
:404D8000AEA9A0A7B2B5BCBB9691989F8A8D8483DED9D0D7C2C5CCCBE6E1E8EFFAFDF4F348656C6C6F20576F726C64210D0A00004F726967696E616C204368616E6E656CA1
:404DC0002025643A20563D256420560D0A0000004368616E6E656C2025643A20563D252E336620560D0A00003C5100400C510040201000003D5100400D5100401020000009
:404E0000004F00400C0040510040300000000140800A000B01408003000F0140000100140140000800400140000A004C014000020050014020000000800A0140800E004822
:404E40008000800E0140000F004880004300494E4600696E66004E414E006E616E0030003031323334353637383941424344454600303132333435363738396162636465C7
:404E80006600496E66696E697479004E614E00504F534958002E0000000000000000F03F000000000000244000000000000059400000000000408F40000000000088C340BE
:404EC00000000000006AF8400000000080842E4100000000D01263410000000084D797410000000065CDCD41000000205FA00242000000E876483742000000A2941A6D4223
:404F0000000040E59C30A2420000901EC4BCD64200003426F56B0C430080E03779C3414300A0D8855734764300C84E676DC1AB43003D9160E458E143408CB5781DAF154470
:404F400050EFE2D6E41A4B4492D54D06CFF08044F64AE1C7022DB544B49DD9794378EA4405000000190000007D000000000000000080E03779C34143176E05B5B5B893465D
:404F8000F5F93FE9034F384D321D30F94877825A3CBF737FDD4F1575232D302B2000686C4C0065666745464700000000F8B500BFF8BC08BC9E4670474D000000DD080000AE
:404FC000F8B500BFF8BC08BC9E46704729000000E04F0000C880FF1FC800000090020000000000002084FF1FFFFFFFFFFF0000007F800000030000000000E02EC05D000030
:405000001800000000366E010100000000000000000000000000000000000000000000000000000000000000000000004C4E00000000000000000000000000000000000018
:405040000000000000000000000000000000000000000000000000000000000000000000000000000000000000000000F480FF1F954E00009D4F00009D4F00009D4F0000F7
:405080009D4F00009D4F00009D4F00009D4F00009D4F00009D4F0000FFFFFFFFFFFFFFFFFFFFFFFFFFFF000000000000000000000000000000000000000000000000000076
:4050C00000000000000000000000000000000000000000000000000000000000000000000000000000000000000000000000000000000000000000000000000000000000B0
:40510000000000000000000000000000000000000000000000000000000000000000000000000000000000000000000000000000000000000000000000000000000000006F
:40514000000000000000000000000000000000000000000000000000000000000000000000000000000000000000000000000000000000000000000000000000000000002F
:4051800000000000000000000000000000000000000000000000000000000000000000000000000000000000000000000000000000000000000000000000000000000000EF
:020000040003F7
:0200000480007A
:40000000024F004004520040015B004004640040046500404B0001403B0101405602014055030140430401405B050140440601404E070140590801405F0901400F0A014082
:40004000590B01403A0C01405C0D0140040E0140400F0140481401405B1501403F16014047170140261801404E190140241A0140531B0140084001400D4101400A4201404A
:400080000543014002440140014501400E46014008470140044801400A4901400B4C0140084D01400C5001400251014001400A4B00040140088061802784840F8B768C0FE6
:4000C0008F38840F873888768B030160030506400B800E800F80120C1310140C1633182119601A0E1B0E1CDF1F0921112208230224102549262027042A202B242C222E0586
:400100002F0830203110321F33603440350F3680378039083B203E013F44580459045C225F0181018602870188FD8B018CB58E489425950196D898E099019A1C9C6D9E9083
:40014000A0B5A101A248A490A648A901AA01AC1DAEE0B003B4FCB501D804D904DC35DF0101800310048005080608088009200A900E080F1210021254140415041601170180
:40018000184019C41A181B401E081F022128220123022610288029042A502C802E20313032413728380239203A803C203D094C035C405F80831084048504870389508B08A0
:4001C0008D048F20C0E5C2EFC4FFCAAFCC6DCEEDE008E204E60A0101040D06C207010A010B010C0110081501160C180D19011AB01C04210122A224AF280F2A502B012CA396
:400200002E0C30CC343F35013A22580459045C355F01810185FB8BD88C038D908E1C91DB92109320941295039608980399489A089C039D239E049FDCA323A5F8A609A7032B
:40024000A803A902AA08AC20ADE3AF04B1E0B420B61FB71FBA80BB80BE10C003C604C9FFCA0FCBFFCC40CD20CEF0CF05D008D804D904DA04DC52DD02DF09E040E1A8E24062
:40028000E3200180042006010710088009200A900D800E040F501216144015981608180219801A091E041F22208021402280251028482B212C802E20301432803302372897
:4002C00039083A013B523C203D093E024108511052507880808081108440884091019210940296809710980C99109B809C809EFD9F28A128A214A340A490A504A840AA0173
:40030000AD08AE20AF03B101B204B488B604C0E1C2FFC4F7CAAFCC6FCEEFD002DE08E002E204E601E80CEA03EC02EE0800300101020C042C050B061109020C140F20100966
:40034000110812101303141C1510162219031A031C1F1D0B201021102440250827032B032D232F0430603103331C341F35083720380A39083E043F104012410645B047EC67
:40038000483249FF4AFF4BFF4EF04F44500C5401580459045A045B045C525D225F0D66C06A406B028101AF01B301D804D904DC53DF010088034005800620070808800A94C1
:4003C0000C800F041250160217201A841B08214822112310242028182A012B212F013128328033023602370239983B023D083F0641104201434046044710484449105206B4
:400400005A085B92788079107A0482048560874089048A448E10912092199420950896809752988099109A529B809E249F28A284A322A490A504A602A701AB12AC10AD9078
:40044000AF01B210B680B740C0EDC2CFC4CCCA1FCC0FCE8FD00CD204D60FDE08E020E20AE404E612EA88EE022C0136013E40580459045C335F0180808380846285108605B0
:40048000884C89148A138E808F03901F9340960C9720988099109B0C9C619D7F9E0EA380A51CA680A702A909AA08AB10AC10AD0CAE20AF11B060B140B21FB320B580B680A1
:4004C000B71FB882BE01BF10C003C504C9FFCA0FCBFFCC40CD20CEF0CF05D008D804D904DA04DC55DD01DF01E040E1A8E240E3200010028003220720088409400A880E500D
:400500000F0410101140120415911708189019041B801F40200421442206280529042B802C802D112E20324633203580372839823A143D083E404108440145404A20501027
:40054000820487048B208C1091029202930495089702981499809E209F28A140A2C0A302A490A504A701AA01AC10AD81B00CB108B308B680C02FC27FC4F7CAAFCC7FCE5FA1
:40058000D002E008E241E408EA24EE02006D011D029203E004B605B50649074808B609E00A490B1C0F021024119012DB134814FF1701181C19FD1AE31C031D6D1E1C1F900D
:4005C0002092224928E029B52A1C2B482D252FD830FF330335FC3E014003470449FF4A0F4BFF4C404D204EF04F0550085401580459045A045B0C5C205D355F09604061A8C3
:40060000624063208202840189048A088D018E019104921096049E10A303AA04B003B210B304B40CB501B702B908BE14BF04D203D302D804D90CDB04DC39DD30DF01004838
:4006400001010208042806280740080809810C120E280F421120120416041701184019091A081C8020082140221023102510260C29012C022E2032023638374139903C8043
:400680003D203E083F0247044D024E80550857045D085E805F0469506A806B0879407C107D408008810883018440860288048A428C808E10900491049412950296089706F4
:4006C00098209CD49D169E46A012A1C1A502A620A756A901AF08B040B204B30CB540C07FC2FDC452CA31CCF1CEFCD040D610DE38E098E242E860EA80EC20EE800101040191
:40070000110119011D011E01210125012B0131013601580459045C325F010220048007140A010E84150216101A011C401D081E021F0422022614272928042B502C402D0163
:400740003080312033023480350236143A013C103E023F0842404301454A4D444F1057085C086C606E906F9474047501760879087B107C147F1080208410860887208A1091
:400780008B108C088E0393209452950B9658970E9A019C149D149E44A092A1E1A464A660A780AC04B101B310B404B704C0E4C251C430CA87CCFDCEE1D0D0D230D640DE2024
:4007C000E040E4A0E610EA08EC40EE10002001DB0320040F052307DC080F09020F23102013D8140315481610180819901A071C081DE31E071F04200121FB240325032802F1
:4008000029F82B032D012E0330383203331F340835E0360438823B083E105401580459045B045C225D505F0584018C019801A201A401AA01AC01B001D804D904DC33DF01A5
:40084000020203200424064009200C020E090F201084110412111410155016841B021D811F1824202504271428042A082B202C592E802F0130823121330135153740398C13
:400880003A013D183E013F8048084A044C014D404F805C0A5E405F10780279027A207B107C1080488220834285408B0491809201941295089618970498409A099C059D14CA
:4008C0009E109F15A090A121A206A460A660A788A901AA10ACA2AE88B104B202B420B601C075C2F2C4FFCAF6CCFCCEFBD6F0DE20E280E8C0EC40EE80580459045C335F01DA
:400900000004020204020514070108040C010E090F801101121914401504160217101E0926802A012C202E102F8030843420350136403708380439813A183C9044404714C9
:400940004C014E0455415E02640267047D047E208340841086408788884089618C048D408E038F08C0F5C2D4C4FFCAE1CCFACE3FD0E0D230D680D830DE40E080E4D0E620BB
:40098000024604100506062107090B0B0C460D140E290F09142815071645171823102602282829072A432B0830633101331E3407361838803A223B083F014032410645B080
:4009C000460E470C481649FF4AFF4BFF4EF04F44500C5401580459045A045B045C115D115F0166C06A406B02820288028C0890049A109E05A620AA08AC10B001B23EB8088F
:400A0000BE04D608D804D904DB04DC33DD90DF010044038006A0070909080C800E500F08100412201440161A18C019101B801C201D011E50210822042380280429102B8063
:400A40002E5032043440370938A839203E224004411849104A804C044D2050045240580259245B805E806002624065808288830C8580860288C089108A108D0190209480A6
:400A80009510965899049A209B019C409D109E489F08A260A410A680A780A904AA60AB01AC10AF21B304C0FDC2F4C4F6CA35CCD2CEAED006D204D61FD810E018E205E60D50
:400AC000E808EA05EC0907013301580459045C335F0180408403861C870388128A088B208C038D5C8E048F02922095709610970C99109A099C039D149E08A109A310A8030F
:400B0000A96CAA08AB11B020B240B360B41FB51FB908BA20BE04BF04C023C104C6BEC70CC81CC9FFCAFFCBFFCEF0CF44D00CD418D804D904DA04DB04DC15DD55DF0DE6C094
:400B4000EA40EB02001002400322062008A40B800C400D200E501204172819041A801B23210823042608272029102B802C802E1032A43440372838A03B043E6840A043202D
:400B80005180521453045A02600463017B0182088301848085A08B4090349202951096D0970A98A49E109F28A260A490A50CA721B340B460B540C02FC2FFC462CAA5CC7E16
:400BC000CE7ED007D601D80CDE08E004E208E482E6040501060107020B100F0411011302150117021B081F202103270429012B022F08311833043520360137033F05560258
:400C00005712580459045B045C235D205E085F018901B301BF04D804D904DC33DF01012003020520071009240B800C040DA00F801082140116201D801F4021042402250A0F
:400C4000262029202B502D442E012F083081312033023460370539203B803C203D803E045C046C146E056F45751476407E2080028140834085018740900491049280931008
:400C8000943A950398209B089C049D149E409F41A010A140A308A502A620A752B008B349B680B704C063C2FEC4A9CAF7CCFDCE7CD640DE40E604EA40EC90580459045C33ED
:400CC0005F01810285088A028B028F0491809340950199409B809D04A201A308A701A920AA04AB10AD10AF20B004B201B3FFB402BF04D602D73AD804D904DB0FDC03DD300B
:400D0000DF0101200302048005010620070409200B800C800D200E201080110812011404160117011D251E201F12272029042A212B402C042D022F5A308031203302352006
:400D40003610374538803B803E263FA05F0867106E046F797580760277047E4081208364850389808A108B208D048E209280939095019B089D209E209F10A080A340A5241C
:400D8000A712A810A908AB02ACC4B114C0F3C2EAC4DDCAF7CCFDCEF8D640D840DE80E010E280E440E6A0EC2012201680338039083E80C430CC10CE60528055085B046208DB
:400DC000810882089508A220A780D460D640D840E2A05B028A208F049F04A220A780AD04B280D640EA1085208F80A780B302E0107F08DE01A70800021B02272047085004BF
:400E00008C04A70AAF02C008C608C801D001D404E008440287289B209F08A001B308D004E80425208901A520C8201040150118088C0495019C40AC40C430C640EC100B026A
:400E40005E01830192019C02B001B201C202D601EA01EC0173108C0293109C02B310DC01E008EC01002E0101082C0A2E0C2C0D010E2C102E11011A2A1B011C0C0003100AAF
:400E800000500005010002080101020203000000012002440050000E0100020900090054080000400400000000000000000000000800030F00300440002000080000414018
:400EC00053060100040C000E11FFFFFF62A0F0410C00000000000212040404045555080900000000000040020010301000101012000000000000000000000000000000008A
:400F00000000A2000400000008FF000000240CDB0103001C001C00E30DE0B01C0D92C249AF6D00920FB65049A3B60C4900000100000000003F00CCFF0000A00000000040D2
:400F40002504030006000CE024FFFFFF62A0F0410C00000018000000040404040222000D0000000000004002001030100010101200000000000000000000000000000000D6
:400F8000CC000000000000CCFC0000008000038080008000000000002000102020002000000000008000408B8B008000000000001002020000000000000000000000300070
:400FC0007C0018010001000000000000000000000000000000000000000000000000000000000000000000000000000000000000000000000000000000000000000000005B
:4010000000000000000000000000000000000000000000000000000000000000000000000000000000000000000000000000000000000000000000000000000000000000B0
:401040000000000000000000000000000000000000000000000000000000000000000000000000000000000000000000000000000000000000000000000000000000000070
:401080000000000000000000000000000000000000000000000000000000000000000000000000000000000000000000000000000000000000000000000000000000000030
:4010C00000000000000000000000000000000000000000000000000000000000000000000000000000000000000000000000000000000000000000000000000000000000F0
:0200000490006A
:0400000000004005B7
:0200000490105A
:04000000BC90ACAF55
:0200000490303A
:0200000028BC1A
:0200000490402A
:4000000000000000000000000000000000000000000000000000000000000000000000000000000000000000000000000000000000000000000000000000000000000000C0
:400040000000000000000000000000000000000000000000000000000000000000000000000000000000000000000000000000000000000000000000000000000000000080
:400080000000000000000000000000000000000000000000000000000000000000000000000000000000000000000000000000000000000000000000000000000000000040
:4000C0000000000000000000000000000000000000000000000000000000000000000000000000000000000000000000000000000000000000000000000000000000000000
:0200000490501A
:0C00000000012E16106900012E39392570
:00000001FF